:10000000000204000000000000260000042600009A
:10001000082600000C260000102600000026000024
:10002000002600000026000014260000182600000C
:100030001C260000202600000026000024260000C8
:10004000282600002C260000302600003426000060
:10005000382600003C260000402600004426000010
:100060000026000000260000482600004C26000064
:1000700050260000542600005826000000260000EC
:100080000026000000260000002600005C2600007C
:100090006026000064260000682600006C26000030
:1000A0007026000074260000782600007C260000E0
:1000B0000026000000260000002600008026000028
:1000C0008426000088260000002600008C26000000
:1000D00000260000002600000026000090260000F8
:1000E00000260000002600000026000094260000E4
:1000F00098260000002600000026000000260000D0
:100100000026000000260000002600000026000057
:100110000026000000260000002600000026000047
:100120009C2600000026000000260000A0260000FB
:10013000A4260000A82600000026000000260000DB
:100140000026000000260000AC260000002600006B
:100150000026000000260000002600000026000007
:1001600000260000002600000026000000260000F7
:1001700000260000002600000026000000260000E7
:1001800000260000002600000026000000260000D7
:1001900000260000002600000026000000260000C7
:1001A00000260000002600000026000000260000B7
:1001B00000260000002600000026000000260000A7
:1001C0000026000000260000002600000026000097
:1001D0000026000000260000002600000026000087
:1001E0000026000000260000002600000026000077
:1001F0000026000000260000002600000026000067
:100200000000000000000000441B0000441B000030
:10021000441B0000441B0000441B0000441B000062
:10022000441B0000441B0000441B0000441B000052
:10023000441B0000441B0000441B0000441B000042
:10024000441B0000441B0000441B0000441B000032
:10025000441B0000441B0000441B0000441B000022
:10026000441B0000441B0000441B0000441B000012
:10027000441B0000441B0000441B0000441B000002
:10028000441B0000441B0000441B0000441B0000F2
:10029000441B0000441B0000441B0000441B0000E2
:1002A000441B0000441B0000441B0000441B0000D2
:1002B000441B0000441B0000441B0000441B0000C2
:1002C000441B0000441B0000441B0000441B0000B2
:1002D000441B0000441B0000441B0000441B0000A2
:1002E000441B0000441B0000441B0000441B000092
:1002F000441B0000441B0000441B0000441B000082
:10030000441B0000441B0000441B0000441B000071
:10031000441B0000441B0000441B0000441B000061
:10032000441B0000441B0000441B0000441B000051
:10033000441B0000441B0000441B0000441B000041
:10034000441B0000441B0000441B0000441B000031
:10035000441B0000441B0000441B0000441B000021
:10036000441B0000441B0000441B0000441B000011
:10037000441B0000441B0000441B0000441B000001
:10038000441B0000441B0000441B0000441B0000F1
:10039000441B0000441B0000441B0000441B0000E1
:1003A000441B0000441B0000441B0000441B0000D1
:1003B000441B0000441B0000441B0000441B0000C1
:1003C000441B0000441B0000441B0000441B0000B1
:1003D000441B0000441B0000441B0000441B0000A1
:1003E000441B0000441B0000441B0000441B000091
:1003F000441B0000441B0000441B0000441B000081
:100400008FE320000E7F22000E0188000000000014
:10041000000020000000E000020032000001200087
:1004200020028800140007009C0007000000E00084
:1004300003003A00C0A6210001002000020037009E
:100440000000200001002000810F70000100320038
:1004500014000700000020000000E000020032004D
:1004600000000200000000001E1702000000000053
:100470000040DA000000FE004440A9008002200095
:100480000000E0000300320000002000A00188000E
:100490004440A800000006008A1F78008B1F7800E7
:1004A0000000060091018800800478000000EB0045
:1004B0001A003700E284440032A0B4009905BA0063
:1004C000E284440032A0B4009906BA00E2844400F9
:1004D00032A0B4000006EB00476FDE00FD07B2005B
:1004E000636CE10003003A00EBFF07000000EB0043
:1004F0000A003700606CE10004003A00005DEB0088
:100500008B05E900FDFF3E00040037006168E10053
:10051000010032000086EB000B00070019C7BA008B
:100520001905BA000E04E00003003A000A00E000DA
:10053000E0FF3A0000000600FE07B2009E018800BE
:100540008A047800F5FF3700395DBA008B05E900B1
:100550000C003200295DBA008B05E900080032006A
:100560000C00E00003003A00E284440032A0B40032
:10057000F5FF370019DDBA008B05E900FAFF3A00F4
:100580008904E800E184440032A0B40000000600C1
:100590003600F800809FBE00829FBE00849FBE0090
:1005A000869FBE000000FA008020A9000000EB003A
:1005B000060C07000080FA004F03BE004F02BE0089
:1005C0004F01BE004F00BE003600F900004006009B
:1005D0003600F800809FBE00829FBE00849FBE0050
:1005E000869FBE000000FA00FF0B07008040A900B4
:1005F00010002000F50B07000080FA004F03BE003A
:100600004F02BE004F01BE004F00BE003600F90091
:10061000004006003600F800809FBE00829FBE00AA
:10062000849FBE00869FBE000000FA008060A90083
:1006300020002000E50B07000080FA004F03BE00F9
:100640004F02BE004F01BE004F00BE003600F90051
:10065000004006003600F800809FBE00829FBE006A
:10066000849FBE00869FBE000000FA008080A90023
:1006700030002000D50B07000080FA004F03BE00B9
:100680004F02BE004F01BE004F00BE003600F90011
:10069000004006000040DA000000FE0000000500F7
:1006A0008001780002003700B15978000201E900AA
:1006B0000200E000FCFF3A00000006008001780024
:1006C00081027800810F50003B003200028240001E
:1006D000840F50000300310002024000848F50005C
:1006E00001003900EEFF370000826800810F5000E2
:1006F0001B0031000408A30005003200150037007C
:100700000200E0002C0032000201E900B15978003B
:100710000308A300FAFF3A0003037800820278007E
:100720000102780002003700B41978000281E90064
:10073000E10F5100FCFF3E00618162000500A10055
:10074000850143008582400002003700B5597800DA
:100750000201E9000200E000FCFF3A000000060090
:100760000408A30012003A00040037000200E00071
:10077000110032000201E90061707900820140003D
:100780000308A300F9FF3A00820178000200370055
:100790000281E90061307900E10F5100FCFF3E0069
:1007A00061816100020037000201E9006170790097
:1007B0000200E000FCFF3A0000000600889FBE0037
:1007C0008A9FBE00800478000200E0005B003200D7
:1007D00001407800814C780082814400F1F99F004B
:1007E000E20F51005500360091449800A144980052
:1007F000E1F99F00D1F99F00E60F51004F0036004C
:10080000B1449800C1F99F00E80F51004B00360039
:100810000905EA00630565000A8444000A055100E1
:10082000C1FF2F00010565000080FB008000EB0088
:10083000121020001310200044000700008CBE009E
:100840000A01440060B99F0071B99F00E80F55008C
:100850003A003600200498003104980040049800C3
:100860005104980020B99F0031B99F0040B99F0002
:1008700051B99F00F80F5500300036006004980011
:1008800071049800000C9800110C9800200C98003E
:10089000310C9800400C9800510C980020B19F003A
:1008A00031B19F0040B19F0051B19F0060B19F00E6
:1008B00071B19F0000B99F0011B99F0064016400ED
:1008C0007801410002044400020555006011B8009F
:1008D0000203BE000002BE000403BE006022B80096
:1008E0000000720081807200020173008381730036
:1008F00010003700009CBE000294BE004004980027
:10090000510498006204980073049800000C980049
:10091000110C9800220C9800330C9800400C9800A1
:10092000510C9800620C9800730C98000A02B100F8
:100930000802B000FF0F5500EEFF3E0009007800EE
:100940004F05BE004F04BE0000000600020AB900B9
:10095000001BB9000200B800810042008100430082
:10096000000006000B08000000000000000000006E
:100970000000000000000000000100000024000052
:1009800000000000FE9F00000000000009000000C1
:100990000000000000000000000000000000000057
:1009A00000010000002400000000000000240000FE
:1009B000000000000000FA0010C0B3005F00070054
:1009C0000080FA00000006000600FA00881F780088
:1009D000C8090700000F78001E0078000000E00042
:1009E00002003A0010002000480037001E00780086
:1009F000EA0F500002003E002000200043003700B4
:100A00000000EB007B090700204798001000200041
:100A1000780907000084FB0020002000750907000A
:100A20000080FB004800DD00000044006B00400037
:100A300020079800AE00900000102000808F50002A
:100A4000060036002E409000E34F500003003200B5
:100A5000D00F2000430007002C0037002E409000EC
:100A60000080FB00E30F50001B003200E30F50003A
:100A700007003C00E10F500013003200E10F50006E
:100A80000F003C000000E000110032001D003700A4
:100A9000E90F500012003200E90F500003003C0043
:100AA000E80F50001100320016003700EA0F500026
:100AB00010003200EB0F5000100032001100370020
:100AC0001A01070011003700A90107000F003700C5
:100AD000360007000D0037009C0007000B003700B0
:100AE0007D0007000000EB0008003700FF01070051
:100AF00006003700A402070004003700C302070005
:100B000002003700F00F2000160007004F047800A5
:100B10000080FA00000006000200FA000040EB002E
:100B200006000700C0402200000F78001E00780079
:100B3000000001000080FA00000006000200FA0038
:100B4000004F78001E80FB004F00DD001104800084
:100B500001F0A10001007000100488000080FA007C
:100B6000000006000E00FA0060079800B1002000A7
:100B700040D120002B090700B200200041D1200005
:100B80000E007800C6FE07006E009000004078005E
:100B9000304F9800C10020000E0078003D0907008A
:100BA000300020000080FA00000006002600FA0055
:100BB00011000900001FEB00005FEB005E02B100B6
:100BC000DE009000F00F2000008060000090A00088
:100BD00050079800EE00900000F02F0000806000A9
:100BE0000000A00060079800EE009000F00F2000C9
:100BF0000080600060079800FE00900000F02F0069
:100C0000008060000000A000700798008E0890002F
:100C1000F00F20008080600000602500010070005F
:100C2000000F98009E08900000F02F008080600068
:100C30004003200001007000100F9800BE089000D3
:100C4000F00F20000080600000A0A000300F98008E
:100C5000CE08900000F02F0000806000400F980048
:100C60002D060700F10F200081006000C808DD009C
:100C7000AE099000F20F20000281610082807000B6
:100C8000210F9800C800DE00F00F200000806000F7
:100C90003E09900001F02F0081006100010070000A
:100CA000300F9800B100200040D12000DD0807007F
:100CB000510220000E007800F60807000000EB004B
:100CC0000080FA00000006000000FA000000FE00AC
:100CD0000080FA00000006000C00FA00604C2800BA
:100CE0008E007800B0187800A0107800E4804000F2
:100CF00064004000B0187800A0107800E480400044
:100D000064004000B0187800A0107800E480400033
:100D100064004000B100200040D12000C10807005D
:100D2000C10020000E007800DA0807000CC8BF00E0
:100D30000004E000020032004007A9004027A9009B
:100D4000E1FF07000080FA00000006000E00FA0034
:100D5000881F780040D12000000F7800B1002000EB
:100D600040D12000AF0807000E80E800B20020004C
:100D700041D120004AFE0700E0CFB300504F980059
:100D80001116800000082000008060000000E000D4
:100D900003003200B0CFB300504F98002F0037004F
:100DA0001E007800B04090008180FB00404290001F
:100DB0000482FB004822DD0084807000010178007D
:100DC000D04090008180FB00604090000080FB00DC
:100DD0004800DD0000807000800178001E0078006F
:100DE000904090008180FB00204090000080FB003C
:100DF0004800DD00008070006103B8001E0278002A
:100E0000F44290008582FB00044C90000884FB00B3
:100E10004844DD008882720005007800944A900002
:100E20008582FB00244A90000482FB004822DD00FA
:100E300004827200840078000202BE000601BE0037
:100E4000290507000000E00004003A0010C0B300CC
:100E5000504F980010C0B3000CE8B7000E80E800B7
:100E6000C10020008B0807001E017800B2419000ED
:100E70008381FB00424290000482FB004822DD0097
:100E80008481710003007800D24190008381FB00CF
:100E9000624190000281FB004811DD000281710077
:100EA000820078000081EA008181EA001E0078005B
:100EB000F10F20008100610030429000604262002A
:100EC0008140720031409800C810DE00404290001E
:100ED000604262008140720041409800F10F2000A2
:100EE0008180610050429000604262008140720047
:100EF00051409800C818DE006041900060416100D8
:100F000081407100614098005E489000E14F5000C0
:100F100002003A000000EB00010037003000200022
:100F20004F0478000080FA00000006001000FA006C
:100F3000889FBE0040D12000000F780020002000D4
:100F40002C0807000080FB004800DD001007980017
:100F500010002000270807000080FB009E00900082
:100F60000100700010079800620807009E009000C2
:100F7000EB804000810F5000020031002000200073
:100F8000780037001E0090006B0040008000780061
:100F900040D120002308070064004700B200200071
:100FA00041D12000BEFD070010C0B300704F980073
:100FB0001116800000082000008060000000E000A2
:100FC00003003200B0CFB300704F980034003700F8
:100FD0009E009000500F2000808F50002E003E0099
:100FE0001E007800B04090008180FB0040429000DD
:100FF0000482FB004822DD0084807000010178003B
:10100000D04090008180FB00604090000080FB0099
:101010004800DD0000807000800178009E007800AC
:10102000EB8240001E0090006104B8001E027800B0
:10103000744390000683FB00844B90008783FB0081
:10104000C83BDD000703730006007800144B9000D6
:101050000683FB00244A90000482FB004822DD0046
:1010600004027300840078000203BE0005027800C9
:101070000801BE00F10307000000E0000300320099
:10108000E0CFB300704F98000500370010C0B300E8
:101090000CE8B70002003700E0CFB300704F9800B3
:1010A00064004700C1002000FA0707001E01780015
:1010B000B24190008381FB00424290000482FB0019
:1010C0004822DD008481710003007800D241900045
:1010D0008381FB00624190000281FB004811DD002A
:1010E00002817100820078000081EA008181EA00BB
:1010F0001E007800F10F2000810061003042900056
:10110000604262008140720031409800C810DE00E9
:10111000404290006042620081407200414098006D
:10112000F10F200081806100504290006042620017
:101130008140720051409800C818DE006041900064
:101140006041610081407100614098007E489000DC
:10115000E14F500002003A000000EB0001003700B0
:10116000300020004F04BE000080FA00000006009E
:101170000401FA0040D12000000F7800B1002000E7
:1011800040D12000A707070064004700B2002000FC
:1011900041D1200042FD07001E00780090409000E1
:1011A0008180FB00204090000080FB004800DD00B3
:1011B0000080700080007800400F2000808F500079
:1011C0002E003E001E017800F24190008381FB005A
:1011D000024A90000482FB004822DD0084817100F5
:1011E00003007800924990008381FB00224990001F
:1011F0000281FB004811DD0002817100820078004D
:101200001E017800924190008381FB0022419000F2
:101210000281FB004811DD00028171008001EB00BA
:10122000640247006C0342000002BE000600780022
:10123000E0030700100798001E0090000000E00087
:1012400003003A0010C0B300704F9800150037003B
:10125000E0CFB300704F9800AE009000F00F200078
:101260000080600020079800BE00900000F02F0072
:1012700000806000300798000A003700E0CFB3001C
:10128000704F9800AE009000F00F200000806000CA
:1012900020079800BE00900000F02F000080600042
:1012A000300798002E0090004800DE003E019000BC
:1012B000F10F200081006100C808DD00010070000E
:1012C000EC00400064004700720707007E48900071
:1012D000E14F500002003A000000EB00010037002F
:1012E000300020000080FA00000006001A00FA001A
:1012F000889FBE008A9FBE0040D120003007980022
:101300006000B800008FBE00B100200040D1200076
:101310004407070068004700B200200041D12000C8
:10132000DFFC07003E019000F24190008381FB004A
:10133000024A90000482FB004822DD008481710093
:1013400003007800924990008381FB0022499000BD
:101350000281FB004811DD000281710082007800EB
:101360003E019000924190008381FB002241900059
:101370000281FB004811DD00028171000201D100F1
:101380008001EB00000041008180490061025000B3
:10139000E08258003E019000F24190008381FB0002
:1013A000024B90000683FB004833DD00868171000C
:1013B00003007800924990008381FB00224990004D
:1013C0000281FB004811DD0002817100820078007B
:1013D0000401BE00040307000004E00053003200D3
:1013E0000000EB00200798003D0037003E01900010
:1013F000F24190008381FB00024A90000482FB00CE
:101400004822DD0084817100030078009249900039
:101410008381FB00224990000281FB004811DD001E
:1014200002817100820078002E0190000201D1003B
:101430008001EB00000041008180490076034700F5
:101440000002BE00420020000300200006007800D9
:10145000580307003E099000CE099000F0FF2F00CE
:10146000010020000202780003017800800178006A
:10147000810078000300620081006100810478002F
:10148000000478000802BE003E089000CE089000DC
:101490004009DE0003002000F00F200001002000C2
:1014A0000203780003017800800178008100780051
:1014B0000300630081006100810578000005780069
:1014C0000A00BE0004004000858048001E0F400056
:1014D0005E9748002E0090006400400020079800AE
:1014E0003E009000904090008180FB0020409000E2
:1014F0000080FB004800DD00008070008000780064
:101500002E009000808F5000B8FF3E001E00780033
:10151000200F980010C0B3003057980068004700B3
:10152000E1002000DB0607000D003700E0CFB3002C
:1015300030579800CE009000F00F2000008060002F
:1015400040079800DE00900000F02F00008060004F
:101550005007980068004700C1002000CD06070032
:101560003E509000E14F500002003A000000EB00B6
:1015700001003700300020004F05BE004F04BE00C0
:101580000080FA00000006000E00FA00B100200002
:101590000E007800A30607000000EB0030040700EF
:1015A0000004A2000004E00003003200C0CFB3003A
:1015B000304F98000200370010C0B300304F980041
:1015C0009E007800F00F200000806000000F78007F
:1015D0009E00900000F02F0000806000100798002F
:1015E000C10020000E007800AA0607003E489000C7
:1015F000E14F500002003A000000EB00010037000C
:10160000300020000080FA00000006001400FA00FC
:10161000214B280009000900311F78004E01B1005C
:10162000B100200040D120007E06070041012000CB
:101630000E007800970607000000EB000080FA001B
:10164000000006000000000000000000AB410000A8
:1016500041810000FDC20000C383000056830000EA
:101660008202000051C40000C6860000FA85000016
:1016700087070000AC0600000505000007470000D2
:101680004484000009C90000CC8C0000A28800003E
:101690008D0D0000F40B00000F0F00005F4A0000EA
:1016A0004E8E0000580D00000A0A0000F34C0000A6
:1016B0004B8B0000A5CF0000C98900000E8E0000F2
:1016C00088080000B9D30000D898000012920000EA
:1016D00099190000441100001B1B0000EF5000008E
:1016E0005A9A0000E81700001E1E00004356000032
:1016F0005F9F000015D50000DD9D0000BE94000036
:101700009C1C0000B01A0000141400001B5B0000B9
:10171000559500004DD80000D7970000E6990000CD
:1017200096160000E1DE0000D29200004A9F000001
:10173000931300001C1C000011110000B75D000095
:1017400050900000D9E60000F0B0000072A7000041
:10175000B131000024240000333300008F65000005
:1017600072B20000882200003636000023630000B9
:1017700077B7000075E00000F5B50000DEA10000BD
:10178000B4340000D02F00003C3C00007B6E000011
:101790007DBD00002DED0000FFBF000086AC000005
:1017A000BE3E000081EB0000FABA00002AAA000049
:1017B000BB3B00007C29000039390000D7680000DD
:1017C00078B800006035000028280000CB740000C5
:1017D00069A900009DF70000EBAB000036B60000E1
:1017E000AA2A000031F10000EEAE00009AB000001D
:1017F000AF2F0000CC3300002D2D000067720000D9
:101800006CAC000069FC0000E4A40000C2BD000054
:10181000A5250000943E0000272700003F7F000020
:1018200066A60000383800002222000093790000EC
:1018300063A30000C5FA0000E1A100006EBB000038
:10184000A0200000198C0000A0E00000B2CD000034
:10185000E1610000E44E0000636300004F0F0000F0
:1018600022E200004848000066660000E30900002C
:1018700027E70000B58A0000A5E500001ECB0000A8
:10188000E4640000104500006C6C0000BB04000024
:101890002DED0000ED870000AFEF000046C6000010
:1018A000EE6E000041810000AAEA0000EAC00000DC
:1018B000EB6B0000BC4300006969000017020000E8
:1018C00028E80000A05F0000787800000B1E0000F0
:1018D00039F900005D9D0000BBFB0000F6DC000054
:1018E000FA7A0000F19B0000BEFE00005ADA000008
:1018F000FF7F00000C5900007D7D0000A71800004C
:101900003CFC0000A9960000B4F4000002D70000DF
:10191000F57500005454000077770000FF150000B3
:1019200036F60000F85200007272000053130000F7
:1019300033F3000005900000B1F10000AED10000CB
:10194000F0700000C06A0000505000006B2B0000D7
:1019500011D100003DA8000093D3000096E90000DB
:10196000D252000091AE000096D600003AEF00007F
:10197000D75700006C6C000055550000C72D0000C3
:1019800014D40000C9A300009CDC000062E2000047
:10199000DD5D0000346100005F5F00009F200000FB
:1019A0001EDE0000986700005A5A0000332600002F
:1019B0001BDB000065A5000099D90000CEE4000003
:1019C000D858000079B9000088C80000D2F800009B
:1019D000C9490000847B00004B4B00002F3A0000F7
:1019E0000ACA0000287D00004E4E0000833C000023
:1019F0000FCF0000D5BF00008DCD00007EFE00009F
:101A0000CC4C00007070000044440000DB3100004A
:101A100005C500008DB2000087C7000026F3000056
:101A2000C646000021B4000082C200008AF5000012
:101A3000C3430000DC76000041410000773700001E
:101A400000C000009959000000400000321800005A
:101A500041C10000649B0000C3C30000CFDA000056
:101A600082420000C89D0000C6C6000063DC000082
:101A700087470000355F0000054500009E1E0000FE
:101A800044C4000090900000CCCC00003BD100008A
:101A90008D4D00006D5200000F4F0000C613000076
:101AA0004ECE0000C15400000A4A00006A15000032
:101AB0004BCB00003C960000C9C9000097D700003E
:101AC00088480000208A0000D8D800008BCB000096
:101AD00099590000DD4800001B5B000076090000FA
:101AE0005ADA0000714E00001E5E0000DA0F00009E
:101AF0005FDF00008C8C0000DDDD000027CD0000E2
:101B00009C5C000029430000145400008202000085
:101B100055D50000D4810000D7D700007FC0000059
:101B20009656000078870000D2D20000D3C600008D
:101B30009353000085450000115100002E04000061
:101B400050D0000040BF0000F0F00000EBFE0000AD
:101B5000B1710000BD7D000033730000163C000031
:101B600072F20000117B000036760000BA3A0000E5
:101B700077F70000ECB90000F5F5000047F8000029
:101B8000B4740000497600003C7C0000E23700009D
:101B90007DFD0000B4B40000FFFF00001FF5000051
:101BA000BE7E000018B20000FAFA0000B3F3000095
:101BB000BB7B0000E5700000397900004E31000069
:101BC00078F80000F96C000028680000522D000031
:101BD00069E9000004AE0000EBEB0000AFEF00008D
:101BE000AA6A0000A8A80000EEEE000003E90000C9
:101BF000AF6F0000556A00002D6D0000FE2B000045
:101C00006CEC0000F0A50000E4E400005BE40000E0
:101C1000A56500000D67000027670000A6260000EC
:101C200066E60000A1610000226200000A200000B8
:101C300063E300005CA30000E1E10000F7E20000C4
:101C4000A060000080D50000A0A000002B94000040
:101C5000E12100007D17000063230000D65600003C
:101C600022A20000D1110000662600007A50000078
:101C700027A700002CD30000A5A500008792000034
:101C8000E4240000891C00006C2C0000225D000090
:101C90002DAD000074DE0000AFAF0000DF9F00003C
:101CA000EE2E0000D8D80000AAAA00007399000008
:101CB000EB2B0000251A0000692900008E5B000054
:101CC00028A800003906000078380000924700007C
:101CD00039B90000C4C40000BBBB00006F85000020
:101CE000FA3A000068C20000BEBE0000C3830000D4
:101CF000FF3F0000950000007D3D00003E410000D8
:101D00003CBC000030CF0000B4B400009B8E00004B
:101D1000F5350000CD0D000077370000664C00005F
:101D200036B60000610B000072320000CA4A0000A3
:101D300033B300009CC90000B1B100003788000037
:101D4000F03000005933000050100000F272000023
:101D500011910000A4F10000939300000FB0000067
:101D6000D212000008F7000096960000A3B600000B
:101D7000D7170000F5350000551500005E7400000F
:101D80001494000050FA00009C9C0000FBBB000073
:101D9000DD1D0000AD3800005F1F00000679000067
:101DA0001E9E0000013E00005A1A0000AA7F00009B
:101DB0001B9B0000FCFC00009999000057BD00002F
:101DC000D8180000E0E00000888800004BA1000067
:101DD000C90900001D2200004B0B0000B663000083
:101DE0000A8A0000B12400004E0E00001A650000AF
:101DF0000F8F00004CE600008D8D0000E7A700006B
:101E0000CC0C0000E92900004404000042680000F6
:101E10000585000014EB000087870000BFAA0000C2
:101E2000C6060000B8ED00008282000013AC00007E
:101E3000C3030000452F000041010000EE6E0000CA
:101E400000800000809FBE00821F7800208120005B
:101E5000010020009101880021B220000220200012
:101E60003118BA000201E900FDFF3A004F01780085
:101E70004F00BE00000006003200F800889FBE0040
:101E8000220F0200000000000404BE002800B00081
:101E90000980B0000203BE00248120000600B000CB
:101EA00005003A000700B00003003A000001EB0013
:101EB0008001EB00070037000830E10002003A0023
:101EC0000938E10031003200970188001601BA009C
:101ED0009681BA00C80ADE0082C26A00C22ADD000A
:101EE00085024200C808DD000080FD0081406800D6
:101EF0000040EB00350068009580680081026900B1
:101F0000C82ADE00C22ADD0085024200C808DD00C2
:101F10000080FD00814068000040EB003500680053
:101F200095806800C80ADE0083C26A00C22ADD000C
:101F300085024200C808DD000080FD008140680085
:101F40000040EB00350068009580680081826900E0
:101F5000C82ADE00C22ADD0085024200C808DD0072
:101F60000080FD00814068000040EB003500680003
:101F7000958068002600B0000780B0000830E100BE
:101F8000D1FF3A000938E100CFFF3A004F04BE000C
:101F90003200F900000006000400FA00008FBE00C5
:101FA000F03F2200010020001E01BE00800F510002
:101FB000818F590008003600E0FF29000100200051
:101FC0001E01BE00800F5100818F590002003E00AB
:101FD00010002000010037000000EB0000407800F6
:101FE0000080FA00000006000800FA00008FBE0022
:101FF00022079800330798001E00BE00E6FF070086
:102000000004E000090032002E009000BE009000A5
:1020100062005000E0805800DFFF07000004E0008D
:102020000200320010002000010037000000EB0029
:10203000004078000080FA00000006001C00FA0052
:10204000889FBE0070079800010F9800120F98003B
:10205000230F9800340F9800460F9800570F9800F0
:102060006000B800008FBE000000EB002007980061
:102070001E089000AE089000000078006300600029
:102080008004EB00000478000800BE00E00F500060
:10209000E08F580041003A001E089000AE08900002
:1020A0008101D1000081D3007E0090008E08900055
:1020B00002004000838048000001BE007E009000C6
:1020C0008E089000C8FF07000004E00030003200D6
:1020D0004E089000DE089000C20207006000B800C1
:1020E000008FBE00220037001E00BE008101D1001B
:1020F0000081D3007E0090008E0890000200400016
:10210000838048000001BE000000EB00EE000700E5
:1021100030079800410798001E007800BE08900024
:10212000808040006A004700420020005CF9070000
:102130005E009000EE0090000001BE003E009000A6
:10214000CE009000DF0207000004A2000004E000BF
:102150000300320030002000200798000A003700FA
:1021600042002000030020001E0F41005E9749003E
:102170001E089000AE0890001E01BE00800F5100A6
:10218000818F5900D8FF39009B02070005003700F6
:1021900020002000200798000200370010002000D7
:1021A000200798002E0090004F04BE000080FA0027
:1021B000000006001800FA0070079800020F98004F
:1021C000130F9800240F9800350F98000000EB00C3
:1021D000200798000E0890009E08900000007800EC
:1021E000630060008003EB00000378000600BE007F
:1021F000E00F5000E08F580036003A000E089000C3
:102200009E0890008101D1000081D3002E0890002B
:10221000BE08900002004000838048000001BE001C
:102220002E089000BE0890006FFF07000004E00039
:10223000250032006000B800008FBE001B00370090
:102240001E00BE008101D1000081D3002E08900045
:10225000BE08900002004000838048000001BE00DC
:102260000000EB0098000700300798004107980035
:102270003E009000CE0090007302070050079800C7
:10228000610798001E007800FE009000008040006A
:10229000EA0047004200200001F907004200200048
:1022A000030020001E0F41005E9749000E089000B9
:1022B0009E0890001E01BE00800F5100818F5900C2
:1022C000DFFF3900050037002000200020079800BC
:1022D0000200370010002000200798002E00900018
:1022E0000080FA00000006001800FA00600798005D
:1022F00071079800020F9800130F9800240F9800A0
:10230000350F98000000EB00000F78006E01900080
:10231000FE019000120798002307980010C0B30038
:10232000604798001E019000AE01900000C02F0091
:10233000F1FF2F000202780003017800800178008D
:102340008100780003006200810061008103780051
:10235000000378000601BE001E009000AE00900051
:10236000800F5100818F5900020032000040EB00C5
:10237000604798002E089000BE08900019020700E0
:10238000260037001E019000AE01900000402000A2
:102390000100200002004000838048000001BE00D0
:1023A0001E009000AE0090000FFF07000004E00048
:1023B000180032001E019000AE0190000000EB00FA
:1023C0004100070040079800510798004E00900018
:1023D000DE009000280207000080FB0000F0A7004C
:1023E0000000EA000000EA004F00DE0060479800AD
:1023F0001E019000AE01900000402000010020006E
:1024000002004000838048001007980021079800D0
:10241000020037000040EB00604798006E409000DB
:102420000004E0000F0032000E0890009E089000AB
:102430004A09DD00C601DE00830171004A01DD00AA
:102440006E009000FE009000020140008381480071
:102450001E009000AE009000800F5100818F590047
:10246000C8FF3E00E40107006E4090000004A20097
:102470000004E0000F003A000E0890009E08900053
:102480004A09DD00C601DE00830171004A01DD005A
:102490006E009000FE009000020140008381480021
:1024A0001E009000AE009000800F5100818F5900F7
:1024B0000200320020002000000F78001E0078008B
:1024C0000080FA00000006000A00FA0020079800C9
:1024D0003207980043079800B0268400C126840084
:1024E0003E019000CE019000001F5100019759005D
:1024F0002E009000C200DD00604D280000804000EA
:102500001000BE003E014000AE8148000200BE0047
:102510000080FA00000006000000FA0000402000E1
:102520000080FA00000006000600FA00889FBE0046
:10253000000F780012079800230798001E009000F3
:10254000AE009000C60107008000EB001E0178007D
:102550000089BE001E0078001004BE001E0090001E
:10256000AE00900062004000E0804800BC0107001F
:102570008000EB00C000DD000000200008004000EB
:10258000898048001E0178000089BE000000EB0031
:102590004F04BE000080FA00000006000600FA00AA
:1025A000000F780012079800230798001E00900083
:1025B000AE009000AA0107009E0078008008780015
:1025C0000000EB000080FA00000006000400FA00A2
:1025D000008FBE001E0078006100600000F0A700C0
:1025E0000000EA000000EA004F00DE000040780032
:1025F0000080FA00000006000600FA00008FBE000E
:10260000220798002E0090001E01BE00C6FF0700A2
:1026100042002000030020003E004100AE8049003F
:102620002E019000640241000001BE000400780009
:10263000BDFF070082002000030020003E00410093
:10264000AE8049002E019000680241000001BE00EA
:1026500004007800B4FF07000080FA0000000600C4
:102660001200FA00889FBE00000F98000E0890002C
:102670000000E000020032000040EB00A300370041
:1026800090268400A12684000001BE000E08900060
:102690008DFF070064014700D7FF07004E00900040
:1026A000DE009000C9FF07000004E00002003200D5
:1026B0000040EB00950037006E009000FE00900097
:1026C000C2FF07000004E000020032000040EB00FF
:1026D0008E0037004E019000DE019000F03F220096
:1026E00001002000800F5100818F590002003E0040
:1026F0000040EB00850037006E019000FE01900065
:10270000F03F220001002000800F5100818F59000E
:1027100002003E000040EB007C0037004E019000BC
:10272000DE019000E0FF290001002000800F510031
:10273000818F5900020036000040EB007300370023
:102740006E019000FE019000E0FF290001002000D2
:10275000800F5100818F5900020036000040EB00CD
:102760006A0037004E019000DE0190006E0090007C
:10277000FE009000800F5100818F5900020036004A
:102780000040EB00610037004E019000DE01900038
:1027900090268400A1268400800F5100818F59006B
:1027A00007003E006E019000FE019000902684001C
:1027B000A1268400800F5100818F59001100310043
:1027C0006E009000FE0090000001BE000E08900018
:1027D0003DFF07000004BE004E009000DE009000A8
:1027E0000001BE000E08900037FF07000802BE007F
:1027F0000001BE006000B8009FFD0700008FBE0012
:10280000370037006000B800008FBE004E01900016
:10281000DE01900090268400A1268400800F5100E4
:10282000818F59001200320090268400A126840076
:1028300062005000E08058000001BE000E089000C9
:1028400021FF07000004BE004E009000DE00900053
:102850000001BE000E0890001BFF07000802BE002A
:102860000001BE001E00BE0083FD0700008FBE00F9
:102870006022B8006011B8001E00BE007EFD070097
:10288000008FBE006022B8006011B8001E00BE00BC
:1028900079FD0700008FBE006E009000FE009000E2
:1028A0000001BE000E08900007FF07000004BE00F4
:1028B00090268400A126840064004000E080480047
:1028C0000001BE000E089000FFFE07000802BE00D7
:1028D0000001BE001E00BE0067FD0700008FBE00A5
:1028E0002E009000BE0090003E016800AE8168009E
:1028F0000200BE000080700000F0A7000000EA00A7
:102900000000E9004F00DE00004078004F04BE00E8
:102910000080FA00000006000000FA000000EB0052
:102920004FFF07000080FA00000006000600FA00D2
:10293000000F780012079800230798001E00780007
:102940001E019000AE01900014FF07001E009000D1
:10295000AE00900062004000E08048001E82E80067
:102960000001BE0004007800EFFE07001E0090008A
:10297000AE00900066004000E08048001E01780034
:1029800030019800410198000080FA000000060024
:102990000400FA00008FBE001E00BE000000780098
:1029A000610060008001EB00000178000200BE00C1
:1029B0000080700000F0A7000000EA000000E900BD
:1029C0004F00DE00004078000080FA0000000600A2
:1029D0000E00FA004007980051079800620798001F
:1029E0004E009000A000900010009000000F7800B2
:1029F0004E00900030019000C00190001207980036
:102A0000230798001E0078008000EB00E0FF07001D
:102A1000604798006E4090000004E000180032000B
:102A20006E0090009E007800808F500011003600EC
:102A3000EE019000030F78000E0037001E01900099
:102A4000AE0190005E009000D4FE07005E00900092
:102A50000080E800500798001E009000AE00900033
:102A600062004000E08048001007980021079800AD
:102A70001E8FE9001E0078000000E000EFFF3A0022
:102A80006E4090000080FA00000006001C00FA0072
:102A9000200F9800310F9800420F9800530F9800B4
:102AA00002412200030020002E08900086FE07004D
:102AB000008FBE000040EB004047980068004700D0
:102AC0001E01BE0099FF07004E0090000000E000CC
:102AD00031003A005E019000EE01900020002000DD
:102AE00001002000800F5100818F59002A003A0018
:102AF000F20047006800470022002000B4FF0700F2
:102B00000004E0002400320010002000300798008C
:102B10001B0037005E009000EE0090003E01400078
:102B2000AE8148000200BE006200200003002000C9
:102B3000021F400003974800680047001E01BE00C6
:102B40007AFF0700CE0090003E089000808F500072
:102B500005003A00680047005E099000CE0890002A
:102B60009BFF0700404798004E4090000004E000A3
:102B700008003A003E0090000000E800300798008E
:102B80001E089000BE009000808F5000E1FF3900C9
:102B900001003700000000004E4090000080FA0065
:102BA000000006000400FA00000F780011079800EA
:102BB000420020008000EB001E009000FFF607009E
:102BC0001E0090004300200000017800210020003A
:102BD0001E007800ADFF07000080FA00000006002C
:102BE0000000FE0042E3200000197800010978008F
:102BF000000006000000FE000000EB008000EB007B
:102C0000F8FF07006627EF00000006000000FE0046
:102C1000801F7800811F780041E320000600FC003F
:102C200031007800303B880011007800303B88008C
:102C300061E7A8000000000000000000CF0078005D
:102C40004F0078000000060092018000910188008A
:102C50009080BA001000BA009201880000000600BF
:102C600092018000910188001000BA009201880052
:102C7000000006000000FE0061E7AF00FEFF370025
:102C8000F23F2000000161000C003A002204240001
:102C9000023B880092018000910188000008BB007F
:102CA000081602000000000061E7AF00FEFF3700D9
:102CB000920188001000200061A7AF0000002000F2
:102CC0000000060061E7AF00FEFF37000000A7002C
:102CD0000D0037009401800091018800310024002C
:102CE000013B88000208BB000388BB0008160200F5
:102CF0000000000061E7AF00FEFF3700940188008C
:102D00001000200061A7AF000000200000000600B6
:102D100061E7AF00FEFF37000000A7000E0037009C
:102D200033002400033B8800930180009101880058
:102D30000208BB00F20F20000288BB000816020048
:102D40000000000061E7AF00FEFF3700930188003C
:102D50001000200061A7AF00000020000000060066
:102D600061E7AF00FEFF3700F307200080816100BC
:102D700010003A0013002400033B880093018000F8
:102D800091018800040420003208BB003298BB0087
:102D90001400B100FCFF3A00081602000000000019
:102DA00061E7AF00FEFF37009301880010002000AC
:102DB00061A7AF00000020000000060061E7AF003F
:102DC000FEFF3700F30720008081610011003A0008
:102DD00013002400033B88009301800091018800C8
:102DE00004042000F10F20003208BB000198BB0052
:102DF0001400B100FCFF3A000816020000000000B9
:102E000061E7AF00FEFF370093018800100020004B
:102E100061A7AF000000200000000600F23F200084
:102E2000000061000000060002C02F0000006100E9
:102E3000F2FF2F0081006100000006000000FA0090
:102E4000C142A900C542A800D022A900D422A800EE
:102E5000013A800000042000008060000000E000D3
:102E60000A0032000240800013408000E0AF2C00D6
:102E700071002B00800F5100818F590003003A0030
:102E80000028EF000228EF0023F707000028EF00DA
:102E90000228EF00F1010700C142A900C542A800C5
:102EA000D022A900D422A800C882A900D042A9003B
:102EB000CC82A800D442A8004E010700C922A90074
:102EC000CD22A800C942A800040037000060FE001F
:102ED00000202E0041002000CA010700511680008A
:102EE00000402000008060000000E000F7FF32009A
:102EF000CD22A800040037000060FE0000202E0054
:102F000041002000BF010700511680000040200052
:102F1000008060000000E000F7FF320051168000E2
:102F200000402000008060000000E00001003A0046
:102F300003000700320107000060FE00F7FF3700C2
:102F40000200FA000040EB00004F7800210037003B
:102F5000CD22A8000010270021002000A9010700B1
:102F6000CD22A9000030250071002000A501070036
:102F70001E4FE8001E407800FE4F500015003A003A
:102F8000C542A900D422A9000040EB0010479800D8
:102F900001003700000000000060FE000050230028
:102FA000C1002000970107001E4090000040E8008B
:102FB000104798001E409000FD4F5000F5FF36006E
:102FC0004007A8004027A80040E7A8000000FE0036
:102FD000F1FF3700511680000040200000806000A3
:102FE0000000E000DAFF3200CD22A8000080FA00E5
:102FF000000006000200FA00000F780090688000D0
:103000009E0F500002003E0020C4B30003003700B2
:1030100020C120001E004000104078000080FA000F
:10302000000006000600FA0010079800210798002B
:1030300030000700000F78002E0090009E0F500017
:1030400002003100AE009000010F78001E017800F0
:1030500021C120001E00900091F507000010200003
:103060009E00500020C120001E0040000101780099
:103070008000780020C1200090F507009068800053
:103080001E005000906888001E0078000080FA0042
:10309000000006000400FA00000F780011079800F5
:1030A0000A003700650007000004E0000700320056
:1030B0001E007800104078001E0FE800470007004F
:1030C0001E0090000000E900100798001E0090000C
:1030D0000000E000F3FF3A00000000006800070075
:1030E0000004A2000004E000FCFF3A000080FA00A7
:1030F000000006000000FA00881F78000EC8BF001C
:103100000004A2000004E0000F00320022102000A2
:103110008000EB0020C12000A8F5070010C0B3001C
:103120000EE8B70009003700986880001C0007000F
:1031300021C1200081004400804878000800E80098
:103140009068880001003700000000002F00070091
:103150000004E0000400320091688000F00F2000BD
:10316000808F5000F0FF3600906880004F04780098
:103170000080FA00000006000000FA008000200035
:10318000001188002222EF00200220004011880058
:1031900021E2A8002342A8000080FA0000000600F7
:1031A0000000FA00000000001011800061006000C3
:1031B0000000E000FCFF320010118000620060009F
:1031C0000000E000010032002222A900301180003E
:1031D000004078000080FA00000006000200FA00BB
:1031E000004F780000000000111180000020200036
:1031F000008060000000E000FBFF3A001E80FB0042
:10320000201188000080FA00000006000000FA008B
:103210001011800000407800614060000080FB00D9
:1032200000F0A7000000EA000000EA004F00DE0006
:10323000004078000080FA00000006000000FA005C
:103240001111800000202000008060000000E000DC
:1032500007003A001111800000402000008060004B
:103260000000E000020032001000200001003700E2
:103270000000EB00004078000080FA00000006002B
:103280000000FA00101180004800DE00614060007C
:103290000080FB0000F0A7000000EA000000EA0048
:1032A0004F00DE00004078000080FA0000000600B9
:1032B0000000FA00101180000080FA0000000600F3
:1032C0000000FA0021E2A8002342A8000080FA00D2
:1032D000000006000000FA0021E2A9002342A90034
:1032E0000080FA00000006000000FA00C422EF008F
:1032F000CC22EF0000012000A01688007079200089
:1033000000168800F0EF2C0040168800F03E2000E8
:1033100080168800C542A800C142A900511680004D
:10332000000820000080600000F0A7000000EA0014
:103330000000EA004F00DE00004078000080FB0043
:103340006100600000004000A11680000110A10093
:1033500001007000A0168800D022A9006820EF00AC
:103360000040200050038800C622EF00CE22EF006C
:10337000D622EF00C080210060198800113A800039
:10338000F00B200000816000600420007105200027
:1033900023742000804978008149780082497800B0
:1033A000A136800000FE2F00008060003000B300D6
:1033B000A03688002135800000FE2F0000806000CC
:1033C0005001B30020358800103A800000017800D9
:1033D0000260A0006004200071052000237420001A
:1033E0008049780081497800824978000080FA009D
:1033F000000006000000FA000080FA00000006004D
:103400000000FA0008C8BF000004A2000004E000A9
:1034100022003200240007000004E0000300320014
:1034200010C0B30008E8B700170037000AC8BF0093
:103430000004E000030032000000EB0088FC0700FD
:1034400009E8B70009C8BF000004A2000004E000BA
:103450000200320010C0B30008E8B70008C8BF007F
:103460000004A2000004E00007003200CD82A800A2
:10347000CDA2A900E0AF2C0071002B000040880015
:10348000114088000000FE0008C8BF000004E000F2
:1034900002003200CDA2A800CD82A9004AF50700A3
:1034A0000080FA00000006000000FA0050168000BC
:1034B0004700DE00614060000080FB0000F0A700D4
:1034C0000000EA000000EA004F00DE000040780043
:1034D0000080FA000000060008080000020000005A
:1034E000000000000A0800000200000002000000C6
:1034F00001000000140D00000001000000000000A9
:103500000C0800000200000000000000120C000087
:1035100002010000000000000E0800000200000090
:10352000000000001208000000040000000000007D
:10353000340E00000400000002000000FFFFFF0046
:10354000FF000000140E000020000000000000003A
:10355000100800000200000002000000FFFF000051
:10356000040800000400000000000000000000004B
:103570000000FA0000102300203A88004827EF00DE
:103580007027EF007227EF007427EF002200200061
:1035900080072000A10920003374200080497800B2
:1035A00081497800824978000001EB006004200026
:1035B000710520002374200080497800814978003B
:1035C000824978000080FA00000006000200FA003C
:1035D000000F78009E007800814088000000FE0007
:1035E0000080FA00000006000000FA0040E1200020
:1035F00080077800C0E22000000188000080FA0007
:1036000000000600F03FB1000180B1000600350067
:10361000EE03090000000000403FB1000180B1004E
:10362000FBFF3D001000B000203FB000020035005D
:10363000008009000000000000000600809FBE001E
:10364000EC8057003100780020408800110078009D
:1036500006E8B7004F00BE00000006000000FA00B8
:10366000D4F4070020FF070004000700C0FF070094
:10367000C1FE07000080FA00000006000000FA000A
:103680000080FA00000006004A0304000000000069
:083690004A03040000000000E1
:10480000D7CD00006A5B000000240000000000001B
:10481000FE9F000000000000B02604000000000021
:104820000000000002000000000000000200000084
:104830000200000004000000000000000000000072
:10484000000000000000FA009068EF009168EF009F
:104850000080FA00000006000400FA0020479800DB
:1048600090C8BF000040E800674F600091C8BF00DB
:104870009E40780080CF500002003A000040EB00DC
:104880000A00370090C8BF000080FB0061C1200013
:104890002E419000827078001E417800018920002E
:1048A000824878007628A80010C0B3000080FA0083
:1048B000000006000200FA001189200091407800F3
:1048C00090C8BF0080CF500003003A007628A900AE
:1048D0000040EB001500370091C8BF000080FB00CE
:1048E00061C12000614F780091C8BF000040E8001E
:1048F0006740600091E8B70011892000914078007E
:1049000090C8BF0080CF500001003A007628A9006F
:104910001E80FB008000400060C02000008040003E
:10492000100078000000010010C0B3000080FA0001
:10493000000006000000FA00118920009140780074
:1049400090C8BF0000C068000080FB000000E900C4
:104950004F00DE00004078000080FA0000000600F2
:104960000200FA0020B22000104F78001E80FB00E9
:1049700061006000004078000004E00002003200A6
:10498000CC82A90001003700CC82A8001E80FB0069
:10499000620060000000E00002003200D442A90082
:1049A00001003700D442A8001E80FB0064006000B4
:1049B0000000E00002003200C502A900010037003B
:1049C000C502A80080B120001E4878000080FA00CF
:1049D000000006000200FA0030B22000104F7800FC
:1049E00070B120001E4878000080FA000000060028
:1049F0000000FA000080FA00000006000000FA0043
:104A00000080FA00000006000000FA00B0B42000A8
:104A10009040780060C5B30080CF500007003A0096
:104A2000B0B420008040EB0001487800CD82A9009E
:104A3000CDA2A800A0C0B3007AE8B7000080FA00B9
:104A4000000006000000FA007AC8BF000004E00081
:104A500007003200C0B4200090407800F0C2B300DC
:104A600080CF500002003A000000FE00FFFF370038
:104A7000B0B420008040EB0001487800C0B42000B2
:104A80008040EB0001487800CD82A900CDA2A800AB
:104A90000080FA00000006000000FA00CD82A800A5
:104AA000CDA2A900B0B420008040EB0001487800FE
:104AB000C0B420008040EB00014878007A68EF0025
:104AC0000080FA00000006000000FA000080FA00F2
:104AD000000006000000FA000080FA000000060056
:104AE0000600FA00204798003147980022079800F6
:104AF0000040EB00004F7800110037001E80FB00E3
:104B000061862C00E14078002E40900080CF50005C
:104B10000A003A001E80FB00E1862C00E14078008C
:104B20003E40900080CF500004003A002E009000DC
:104B30001E48780010C0B300050037001E4FE80083
:104B40001E407800E74F5000ECFF36000040EB00BD
:104B50000080FA00000006000600FA00004F78000E
:104B600011079800220798001E407800E84F500077
:104B7000020036000040EB000B0037001E80FB00F7
:104B800061862C00E14078001E009000014878000A
:104B90001E80FB00E1862C00E14078002E00900092
:104BA0000148780010C0B3000080FA000000060041
:104BB0000000FA0057280700C142A900C542A8001A
:104BC000003A8000610060000000E00002003A004E
:104BD000D022A900D422A8004D2907002B290700C4
:104BE0004F260700D7250700372307002624070094
:104BF000902707000080FA0000000600FFFF370042
:104C0000C22C040000000000002604000000000088
:104C10000026040000000000002604000000000040
:104C20000026040000000000002604000000000030
:104C30000026040000000000002604000000000020
:104C4000D22704000000000000260400000000003D
:104C500000260400000000000828040000000000F6
:104C600000260400000000000026040000000000F0
:104C70000026040000000000122C040000000000C8
:104C800000260400000000000026040000000000D0
:104C90008E2A04000000000000260400000000002E
:104CA0000026040000000000A4270400000000000B
:104CB00000260400000000000026040000000000A0
:104CC0000026040000000000002604000000000090
:104CD0001828040000000000002604000000000066
:104CE0000026040000000000002604000000000070
:104CF0000026040000000000002604000000000060
:104D0000002604000000000000260400000000004F
:104D1000002604000000000000260400000000003F
:104D2000002604000000000000260400000000002F
:104D30003E280400000000000026040000000000DF
:104D4000002604000000000000260400000000000F
:104D500000260400000000000026040000000000FF
:104D6000AFC220000E7F22000E018800000000006C
:104D7000000020000000E0000200320000012000DE
:104D80002002880014000700000307000000E00074
:104D900003003A00A037270001002000020037007E
:104DA0000000200001002000810F7000010032008F
:104DB00014000700000020000000E00002003200A4
:104DC0000000020000000000A85F020000000000D8
:104DD0000040DA000000FE004440A90080D220001C
:104DE0000000E0000300320000002000A001880065
:104DF0004440A800000006008A1F78008B1F78003E
:104E00000000060091018800800478000000EB009B
:104E10001A003700E284440032A0B4009905BA00B9
:104E2000E284440032A0B4009906BA00E28444004F
:104E300032A0B4000006EB00476FDE00FD07B200B1
:104E4000636CE10003003A00EBFF07000000EB0099
:104E50000A003700606CE10004003A00005DEB00DE
:104E60008B05E900FDFF3E00040037006168E100AA
:104E7000010032000086EB000B00070019C7BA00E2
:104E80001905BA000E04E00003003A000A00E00031
:104E9000E0FF3A0000000600FE07B2009E01880015
:104EA0008A047800F5FF3700395DBA008B05E90008
:104EB0000C003200295DBA008B05E90008003200C1
:104EC0000C00E00003003A00E284440032A0B40089
:104ED000F5FF370019DDBA008B05E900FAFF3A004B
:104EE0008904E800E184440032A0B4000000060018
:104EF00000000000000000000000000000000000B2
:104F000000000000000000000000000000000000A1
:104F10000000000000000000000000000000000091
:104F20000000000000000000000000000000000081
:104F30000000000000000000000000000000000071
:104F400000000000000000003600F800809FBE0056
:104F5000829FBE00849FBE00869FBE000000FA00B4
:104F600030048000680060000000E00006003200AD
:104F7000A04480000000E00002003200A044800055
:104F8000000001008660A9000080FA004F03BE0007
:104F90004F02BE004F01BE004F00BE003600F900B8
:104FA000004006003600F800809FBE00829FBE00D1
:104FB000849FBE00869FBE000000FA00C0448000AF
:104FC0000000E00002003200C04480000000010048
:104FD00030C22000104078008040E80030C220003D
:104FE0000148780020C2200011C0B30001487800B9
:104FF0008460A9000080FA004F03BE004F02BE008B
:105000004F01BE004F00BE003600F9000040060010
:10501000801F78000000FA0010C0B30073E8B700EA
:1050200084E0A9000080FA004F00780000400600EC
:105030003600F800809FBE00829FBE00849FBE00A5
:10504000869FBE000000FA0010C0B30072E8B700EF
:105050008B2507006000B8005A2507008780A9004B
:105060000080FA004F03BE004F02BE004F01BE0099
:105070004F00BE003600F900004006003600F80080
:10508000809FBE00829FBE00849FBE00869FBE00A0
:105090000000FA008A40A900C1108000000820002A
:1050A000008060000000E0000800320018E2A90063
:1050B0002E28EF00A0418000200090008000EB002F
:1050C000010878003428EF000D013700704180009E
:1050D0008000EB00B200200003002000820F50008F
:1050E000838F5800FC003E00006001000B00370079
:1050F00039003700750037009C003700F300370097
:10510000C8003700D9003700F0003700DB00370057
:10511000F100370034003700500037006082200073
:1051200020009000620060000000E000F3003A0000
:105130006082200010009000A04188006082200062
:10514000100090001040780030E8B7006082200026
:1051500010009000100090009041880060822000B4
:1051600010009000E60040006082200011009800CE
:105170006082200090009000A0BB2000808F500033
:1051800003003A006082200021BA2000110098003C
:1051900060822000A00090000100A1002100980082
:1051A0006082200090009000608220001000780053
:1051B000808F500004003A0060822000A000900020
:1051C0000110A000210098001602A8002000200075
:1051D00070418800CA0037001622A8002000200075
:1051E00070418800C6003700C11080000000280010
:1051F000008060000000E0000800320060822000B3
:10520000604090008040E80060822000614098008B
:1052100040002000E1210700B9003700B0418000C4
:105220008000D100F00F2000008060009010880006
:10523000B041800061006000004078000004E000A0
:1052400003003200B000200070418800AC0037003D
:105250003000200070418800A9003700C110800094
:1052600000002800008060000000E000080032001C
:1052700060822000604090008040E8006082200052
:105280006140980040002000C42107009C003700C6
:105290001622A800B04180004800DE00E600600051
:1052A000000F200001007000B0418800B041800074
:1052B0000000A000B041880010C0B30038E8B7007B
:1052C00020002000704188008D00370038C8BF00E2
:1052D000E14F50000A003200904180001000780039
:1052E000B04188009041800020009000D0418800AB
:1052F00090418000204090003CE8B700010037005A
:105300003868EF00B1418000F00F2000808F50001E
:1053100009003600B04180004800DE00E600600071
:10532000000F20000100700090108800A0002000F5
:105330007041880072003700B041800090108800F2
:10534000B041800061006000004078000004E0008F
:1053500003003200500020007041880068003700D0
:10536000300020007041880065003700C1108000C7
:1053700000002800008060000000E000090032000A
:1053800060822000604090008040E8006082200041
:105390006140980019E2A900500020007F21070019
:1053A000570037003CC8BF008080FB008100E90047
:1053B000CF08DE00814078000040E9003CE8B700FB
:1053C0000104E000100032009041800066004000BF
:1053D0009041880030C8BF000040E90030E8B700C5
:1053E00030C8BF000004E00003003A0020002000A5
:1053F0006A210700420037001622A8002000200082
:10540000704188003E003700D04180009040780015
:105410008180FB00911088000000E800D0418800E6
:1054200037003700C11080000000280000806000B5
:105430000000E0000900320060822000604090001F
:105440008040E80060822000614098004000200019
:105450005221070019E2A900290037001662A800AE
:105460008000200070418800250037008000200067
:10547000704188001662A80021003700D0418000EA
:105480008110800081407800014878000000E80029
:10549000D04188003CC8BF000040E9003CE8B700AC
:1054A0003CC8BF000004E0000400320016A2A900BE
:1054B00060002000704188000200370016A2A8009A
:1054C000252107001682A8000D00370020002000CB
:1054D000322107000A0037006082200060409000FF
:1054E0008040E80060822000614098006000200059
:1054F0002A21070000000000010037000000000022
:105500000080FA004F03BE004F02BE004F01BE00F4
:105510004F00BE003600F900004006003600F800DB
:10552000809FBE00829FBE00849FBE00869FBE00FB
:105530000200FA00F0418000E20F500088003200C3
:10554000E20F500003003900E30F500077003200F3
:10555000950037003110800000402000008060007E
:105560000000E00005003A00411080000002200029
:10557000008060000000E0000A003200311080006E
:1055800000082000008060000000E00024003200DD
:105590004110800000202000008060000000E0003A
:1055A0001F00320040108000640060000000E00036
:1055B0000C003A0010002000EC210700004280009F
:1055C0000000E00004003200004280000110800072
:1055D000814078000148780010002000F0418800E8
:1055E0003600370000108000004F78000000EB000C
:1055F000DE210700104280000000E00005003200BC
:1056000010428000104078000080FB0010108800DD
:105610000782A80020002000F04188002700370002
:105620003110800000402000008060000000E00099
:105630002200320041108000000220000080600043
:105640000000E0001D003A0040108000640060008F
:105650000000E00004003A005468EF003000200031
:10566000F04188001300370054C8BF000004E00078
:105670000D0032000000EB00BC210700104280004A
:105680000000E00005003200104280001040780069
:105690000080FB00101088000782A8002000200076
:1056A000F0418800030037005468EF00300020000C
:1056B000F041880000108000004F7800F041800029
:1056C000E10F500039003A00411080000002200034
:1056D000008060000000E0003600320041108000D1
:1056E00000042000008060000000E0000B003A0091
:1056F000004280000000E000040032000042800010
:1057000001108000814078000148780020002000CE
:10571000962107008EE8B7002900370000108000AE
:10572000004F780008C2A900250037003000200093
:105730008E2107008EE8B70010C0B30054E8B70010
:105740008EC8BF000004E00002003200001080009C
:10575000004F780010002000F0418800180037004A
:105760004110800000002800008060000000E00080
:105770000B003A000000EB007C2107001042800083
:105780000000E0000D003200104280001040780060
:105790000080FB00101088000782A8000800370076
:1057A0003E28EF0006003700FFFF37000000000032
:1057B0000300370000000000010037000000000077
:1057C0008600A90040108000700060000000E0002A
:1057D00004003A0040108000680060000000E00013
:1057E000090032004EC8BF000004E000060032008D
:1057F000E184200091407800504280000040780011
:105800002C2407004E68EF000080FA004F03BE0012
:105810004F02BE004F01BE004F00BE003600F9002F
:10582000004006003600F800809FBE00829FBE0048
:10583000849FBE00869FBE000600FA008560A90016
:1058400040003700301180004047980067C8BF0013
:105850000004E0000D003A004E409000E94F500077
:105860000A00320068C8BF000004A2000004E00083
:10587000310032004E41900091862000824878002D
:1058800010C0B30068E8B7002E00370067C8BF003B
:105890000040E80067E8B70067C8BF00EA4F500063
:1058A000270036006768EF0090C0B3002C17070090
:1058B0000040EB00004F7800030037000040EB0091
:1058C000271707001E4FE8001E407800E94F5000E0
:1058D000FAFF360010C0B300211707000000EB00EC
:1058E0001007980007003700000A20000100200080
:1058F0001E2607000060FE001E0090000000E80069
:1059000010079800E92407000004A2000004E0004A
:10591000040032009E009000F0702200808F500042
:10592000F1FF360000D02700010020000F260700FD
:105930000000FE00030037000000000001003700F7
:105940000000000010118000610060000000E00015
:10595000BCFF3A0010118000620060000000E0000F
:10596000010032002222A9000080FA004F03BE008D
:105970004F02BE004F01BE004F00BE003600F900CE
:10598000004006000040DA000000FE0000000500B4
:10599000839F68000100E00002003D0060001000ED
:1059A000E08018000300E00002003D0060011100EB
:1059B000E0811900170007004F00E00002003B00E3
:1059C00060001000E0801800000006004F89DE0033
:1059D0008201780012023700811F78000100E00088
:1059E00002003D0060001000E08018000300E000AD
:1059F00002003D0060011100E08119001500070060
:105A00004F00E00002003B0060001000E080180042
:105A1000000006006022B800060220000000D0004E
:105A20008180D2000482D2008582D2000000A000D2
:105A30000202520083825A00030031000202420037
:105A400083824A000000A1000603E900F3FF3A0048
:105A500000000600EFFF07000400BE000000060083
:105A600007F82700078361000638E10004003A00C8
:105A7000F7072000878361008703710001003A0067
:105A800003F0A200889FBE008A9FBE008C9FBE00CC
:105A9000470ADE000480A100C71ADE000580A100CD
:105AA000070028000785600087856100F70F200048
:105AB0000720E1009E0032000728E1009C00320030
:105AC000010678000400E000B4003200F70720006F
:105AD000878060000170A0000500E000C000320077
:105AE000F7072000878161000370A00005065200BF
:105AF0000F003A000B50E1000B0032000308E100F8
:105B000002003A000200E1007E0032000204500070
:105B100083845800040031000001FD008101FD0074
:105B20008402FD008A05FD006044B80021003700B2
:105B30000520E10005003D000001FD008101FD00A0
:105B40008402FD008A05FD00050652007A60E1002E
:105B5000050035000170A1004722DD00848070003F
:105B60008A807000630037006044B800EF0266006E
:105B700007FF2F00070666000500E000060034005E
:105B8000F08312008714DD000511DE00071BDD0025
:105B9000060171008519DE007060E1000500350026
:105BA0000904780082047800030178008001EB008A
:105BB000700656000B50E10003003A00020040005E
:105BC000838048000400370060041400E0841C0057
:105BD00002005800838058000188A30006003200AC
:105BE0008100D1000080D3008984D3000884D300D1
:105BF0000402E800270037000178A30025003A00DE
:105C00000100E000030032008186CF006986560063
:105C10000A0037008C0020000000E00004003A0079
:105C200009007800880478000004EB00700252003C
:105C30008086CF000D0646000C06E9007060E1008A
:105C4000060035008000780009007800880478009C
:105C50000004EB0070065600700252000C00E000D9
:105C60000C0034008C08DD00F00316000703DE0092
:105C7000868070000C00DD00074BDE00060070001F
:105C80008C4CDD000743DE00868474000C44DD008C
:105C90000C0252006120E10020003500610160002B
:105CA0000700280087816400F7FF270087836400CE
:105CB000070374000300E000060032008203730053
:105CC000040032000000E800E08048000188A300E2
:105CD0000E003A00F70F20000720E1004A003D00C7
:105CE0000170A1004722DD00810072008A807000EF
:105CF0000000BE004F06BE004F05BE004F04BE00B0
:105D0000000006006000B800FAFF37008100D100F3
:105D10000080D3000402E800EEFF370004017800A1
:105D200089017400C20007008A807000F1FF37000B
:105D300018010700070278000001FD008101FD0045
:105D40001401070087027800850372000778A3001A
:105D5000040032000001FD008101FD002701070061
:105D6000E4FF3700850362000768A30008003200E3
:105D70000B50E10003003200F0FF2F00F1FF27007D
:105D8000DCFF37000001FD008101FD00D9FF370075
:105D90000468A300D7FF3200FAFF3700F8FF27009E
:105DA000888360000B003A000000E00009003A0020
:105DB0008303640082837300020032000200BE008D
:105DC000CCFF37000B50E100CEFF3A000200BE00CE
:105DD000C8FF370014002000810064003EFF370038
:105DE000F8FF27008883610004003A000200E00009
:105DF00002003A008C007800BEFF3700150020003A
:105E00008301640039FF370001F8270000002000FB
:105E100081007500B7FF3700038368000700280082
:105E200007036300470ADE000480A100C71ADE00F2
:105E30000580A100F70F20000720E100420032009A
:105E40000728E10040003200889FBE008A9FBE0004
:105E50008C1F7800F107B200F307B2000400E000E5
:105E6000640032000170A0000500E000680032000C
:105E70000370A00085054200EB07B1000204B800E2
:105E80000302B8008484440060854A00020AB80016
:105E9000848444000A854A00030AB80004054500CA
:105EA000040033000804D0008984D2000A85D2009F
:105EB0008B05E9006158E1003D003500021020002B
:105EC000090161000308200089816100F7072000B3
:105ED0008783640008867300C84CDE00C853DD0069
:105EE000878474004855DE000300E000060032009D
:105EF00082037600040032008904E80060054D004A
:105F00000A88A3000C003A00F70F20000758E100B0
:105F100044003D000A70A100C75DDD000A857500E0
:105F20008A007300090078004F0678004F05BE0014
:105F30004F04BE00000006000A05D1008984D3008A
:105F40008B05E800F0FF3700881F78000604780012
:105F500090000700070278000001FD008101FD00AC
:105F60008C00070087027800850372000778A30081
:105F7000050032000001FD008101FD009F000700C7
:105F80004F04780000000600850372000748A30054
:105F900003003200F0FF2F00F1FF2700F8FF370069
:105FA0000000200001F8270088807000F4FF37000F
:105FB000880178004848DD00808171004848DE0093
:105FC000C850DD0001007000C850DE0006047800F3
:105FD0000B0178001600070088807000D2FF3700A0
:105FE0000500E00005003200170020003A0007001D
:105FF0009DFF370081037000F9FF3A0086007800AA
:106000004F0678004F05BE004F04BE00000005009B
:1060100083037100F9FF3200270020002E000700E3
:1060200094FF370001F8270086807000F4FF3700E6
:106030000100E00026003200610111007810E1004B
:1060400023003C006022B8007010E100040035001D
:1060500080027800010078008000EB0070015100A0
:106060000200E0000900340070031100062ADD0080
:10607000822ADE008603DD00878272000200DE00D5
:10608000860BDD00070070008208DE00848171004D
:10609000F4FF27000482620084817100040028005C
:1060A000848262006102600005F0A6000000060024
:1060B00004827100070032000000E800E080480020
:1060C000000006000002BE006000B800EFFF3700CD
:1060D0006000B80000000600889FBE000004EB00CE
:1060E0006138E10016003A000100E00008003A00C3
:1060F000C800DE004800DD00880020000100E0004C
:1061000003003A00C800DE004800DD0068044400D7
:106110008184CF00E9845400060034008908DD0042
:10612000F08314008703DE00878070000900DD0023
:1061300009044400610214004F04BE000000060080
:106140000300E00008003A00C811DE004811DD003D
:10615000880020000300E00003003A00C811DE00C0
:106160004811DD00680444008384CF00E9845400B2
:10617000060034008919DD00F08314008713DE0067
:10618000878171000911DD0009044400E102140057
:10619000E9FF37002700200001F0A70017002000CA
:1061A000470BDE00F60FB200040032000643E800A1
:1061B0000A0032004702B300000006000103780025
:1061C000F607B2000603700002003A000703B300AE
:1061D000000006008702B3000000060001037800FB
:1061E000F607B20006037000020032000770A0003C
:1061F000000006000760A000000006000478A3006D
:10620000040032000578A300030032000168A300F7
:1062100001003A000200BE000160A000000006007C
:10622000881F7800030478000300E00007003D00A9
:1062300060001000E080180060011900E081190082
:1062400002003B0001F02D000300370004000700AE
:1062500008F0A70001F0A0004F047800000006003D
:10626000889FBE008A9FBE000082700004027100F9
:1062700004827100260032000004BE000200BE004D
:106280006011B8006B092000950220000182CF0048
:106290000A0039000541B1000082CF000700390033
:1062A0000541B1000982CF00040039000541B10069
:1062B0000882CF00010039000541B10005425200BB
:1062C000120032000A003B0082817100610164000B
:1062D0008100D1000080D3008984D3000884D300DA
:1062E0008B05E8000442E800F7FF3A00070037009A
:1062F0000804440089844C00000048008180480064
:106300008B05E9000442E900F9FF3A0003000700A9
:106310004F05BE004F04BE000000060081002000B3
:10632000618055000B003D000B00200061FE2F0036
:106330000100E1001D0034008281710061016400F0
:106340008904D1000884D3000000E800FAFF3A0075
:106350007100200061006400030070000200600012
:106360000900320061044400E0844C000988A50063
:10637000050032008B05E8006808E10002003A00E1
:106380008904D1000884D300F20F20000258E100F4
:1063900005003D00C75DDD00F907B200898075008A
:1063A00008007800000006000BF827008B0078003A
:1063B00000000500000006000800FA00889FBE00EB
:1063C0008A9FBE008C9FBE000004BE000200BE007B
:1063D000E2B79F00F3B79F00F6FF07008102780045
:1063E00005F0A100000278000C0020000DF8270045
:1063F0006FB19700FFB197008C0F52008D8F5A003C
:106400000A003E000800BE00EAFF07008102780093
:1064100005F0A100000278006FB19700FFB197006E
:106420008C0F52008D8F5A00030036000800BE000A
:1064300094FD0700980037000203BE000000200012
:1064400001F82300800F5300818F5B0003003A00A6
:106450000800BE00980007008F0037000802BE0049
:106460004E3DDE000B0020006000B80062006500B9
:106470004F4DDE000B0020000A0570008B85700078
:106480008500780001F0A10008007800E00F5000BE
:10649000E08F580007003A00E20F5500E08F5D00E2
:1064A00033003200E30F5500E08F5D007B003A00BF
:1064B000320037008702780005F0A100060278005C
:1064C000E00F5200E08F5A003B0032008C0F520068
:1064D0008D8F5A002C003A00840F5000858F580091
:1064E00018003A00E20F5500E08F5D00090032000D
:1064F000E30F5500E08F5D0009003200E10F550009
:10650000E08F5D005B003200B8FD200099F42300AD
:10651000620037000200200003042400020037005C
:106520000200200003042C00B0FD20009104240090
:1065300039FE07000200200003E8230036FE0700B2
:1065400055003700E20F5500E08F5D000800320073
:10655000E30F5500E08F5D00080032006044B80092
:10656000E10F5500E08F5D004C003A004400370019
:10657000B8FD20009904240048003700B8FD200031
:1065800099042C00450037000600200007D02000A9
:106590000403430085834B0086BF9F0097BF9F0085
:1065A000800F5300818F5B00030039008C0F500077
:1065B0008D8F580005003A000A08A300330032000E
:1065C000B8FD200099FC2B00340037006033B80080
:1065D00062036500E00F5300E08F5B0008003200AB
:1065E0000C0020000DD020000003460081834E00E7
:1065F0006000B800840F5300858F5B0004003900F1
:106600000800BE009D020700010107002A000700E4
:10661000E10F5500E08F5D00050032001E003900DB
:10662000E20F5500E08F5D000B003A0003003700D9
:106630000004BE0009F0A20018003700E2D22B00CF
:10664000B33B23000FFD07000001BE00B0FD20009A
:106650009104240005003700E2D22B00B33B230055
:1066600008FD0700B2FD200093042400FCFC070095
:1066700009003700B8FD200099F42B00070037000F
:10668000080020000900280004003700B8FD2000A1
:1066900099FC2300010037000004BE000800BE0082
:1066A0004F06BE004F05BE004F04BE000080FA003A
:1066B00000000600000006000C00FA00889FBE00E3
:1066C0008A9FBE008C9FBE000004BE004F09DE0002
:1066D00003002000E2B79F00F3B79F008106780017
:1066E0000DF0A10000067800F0FF2F00F1C7240094
:1066F000800F5600818F5E00100036000800BE003B
:10670000ECFF07008101780003F0A1000001780090
:106710000000200001F82700800F5100818F5900F0
:10672000B5003E000200200003382000A0FD20003C
:1067300091FC2300D3FC0700A6003700F0FF2F00D8
:10674000F1ED2300800F5600818F5E0011003E00A6
:106750000085EB00F0FF2F00F1972300800F56001B
:10676000818F5E0055003E00F0FF2F00F1072000F2
:10677000800F5600818F5E009F003E000801BE0022
:106780000800BE00A4FD0700C0B79F00D1B79F005E
:10679000990037000800BE009D0007000004BE00FD
:1067A000F0FF2F0071F92300800F5600818F5E00EB
:1067B00025003E00F0FF2F00F1F22300800F56006D
:1067C000818F5E0011003E000801BE000800BE007F
:1067D000ACFC07000200200003F82300A0FC070027
:1067E0000005BE0002002000030024000800BE00D7
:1067F000A4FC07000001BE000A00BE001F02070043
:106800000004BE000005EB002C0037000200200051
:1068100003F823000800BE0091FC07000005BE003D
:106820000200200003F823000800BE0095FC0700CA
:106830000001BE000A00BE00100207000004BE00F6
:106840001A0020001D003700F0FF2F00B1012400C6
:10685000800F5600818F5E0012003E000200200073
:1068600003FC23000800BE007DFC07000005BE00FD
:106870000200200003FC23000800BE0066FD0700A4
:106880000200200003F823007EFC07000001BE0088
:106890000A00BE00F90107000004BE002A00200023
:1068A000060037000801BE000000200001F82B00A0
:1068B000F20107000004BE003A0020000801BE00FB
:1068C0000800BE0054FD07000002BE000001BE002B
:1068D00084BF9F0095BF9F004FFD07000006BE00CC
:1068E00052C22A00C3D723004BFD0700D2502F000D
:1068F00013E1230063FC07000001BE000C00BE0092
:1069000045FD070092AA2A00A3EA23005DFC0700C8
:106910000001BE000FBA97009FBA97000400BE00A6
:106920003DFD07000002BE0072242100A3DD2B0004
:106930000C00BE0084BF9F0095BF9F0036FD07007E
:1069400082A92C00C3E4230045FC07000001BE001F
:106950000C00BE0030FD07000001BE000FBA97001A
:106960009FBA9700E10F450009003A000400BE00FD
:1069700044FC07000001BE000800BE0026FD070021
:106980000001BE000800BE0035FC070019003700FA
:106990004255DD006CBE20000A0646000400BE0021
:1069A00038FC07000001BE000800BE001AFD070009
:1069B00062BF20000A0541001A01BE0028FC070042
:1069C0000801BE0026FC07000001BE001C00BE003E
:1069D00023FC07006FB19700FFB19700E00F510053
:1069E000E08F5900030032000004BE0009F0A2004D
:1069F000010037000004BE000800BE004F06BE00C4
:106A00004F05BE004F04BE000080FA0000000600E3
:106A10000001BE008300780001F0A10002007800B0
:106A20000000060001000700580137000400FA00CA
:106A3000889FBE008A9FBE008C9FBE000004BE00DF
:106A40004708DE00F00FB20051092000810F50000E
:106A500041003C000806BE00E00F5400E08F5C00DF
:106A600003003D000805BE000BF0A2000100370046
:106A70000805BE00D1072000810F50000A003C002D
:106A80000200200003B024000A00BE00FDFB070046
:106A900080BF9F0091BF9F006011B8000800BE003A
:106AA000DDFC07002B0037000200200003B02400AB
:106AB0000A00BE00F3FB07000200200003B0240020
:106AC000E7FB07000A01BE00E5FB07000004BE006B
:106AD0000200200003F023002A0107000000E0006C
:106AE000070034000A01BE000800BE00E5FB0700F5
:106AF0000200200003F82300D9FB07000F00370035
:106B00000200200003F02B000800BE001B0107005C
:106B10000000E00006003C000A01BE000800BE00C4
:106B2000D8FB07000200200003F823000200370012
:106B30000A01BE000800BE00D2FB0700E00F5600AD
:106B4000E08F5E0003003D000004BE0009F0A200DB
:106B5000010037000004BE000800BE004F06BE0062
:106B60004F05BE004F04BE000080FA000000060082
:106B7000889FBE008A9FBE008C9FBE000004BE009E
:106B80000400200005F827008583600004037800D6
:106B9000840F5300858F5B0007003A000801BE0098
:106BA0000800BE009CFC07000001BE000800BE00FB
:106BB000B4FB070010003700E00F5000E08F5800D2
:106BC0000F003C008101780003F0A1000001780073
:106BD000E00F5100E08F59006A00320010022000DF
:106BE000406188000801BE000800BE009CFB070051
:106BF0000001BE00210107000004BE006100370053
:106C0000478CDE00CF8CDE00E00F5400E08F5C008C
:106C10000F003A006044B800040037000000400054
:106C20008180480061044400E0844C00040020009E
:106C3000050820008181620004017800E00F510006
