:020000040000fa
:080000000002040000000000f2
:020000040000fa
:0400080012080000da
:020000040000fa
:04000c0012080000d6
:020000040000fa
:0400100012080000d2
:020000040000fa
:0400140012080000ce
:020000040000fa
:0400180012080000ca
:020000040000fa
:04001c0012080000c6
:020000040000fa
:0400200012080000c2
:020000040000fa
:0400240012080000be
:020000040000fa
:0400280012080000ba
:020000040000fa
:04002c0012080000b6
:020000040000fa
:0400300012080000b2
:020000040000fa
:0400340022030000a3
:020000040000fa
:0400380012080000aa
:020000040000fa
:04003c0012080000a6
:020000040000fa
:0400400012080000a2
:020000040000fa
:04004400580300005d
:020000040000fa
:04004800120800009a
:020000040000fa
:04004c001208000096
:020000040000fa
:040050001208000092
:020000040000fa
:04005400620700003f
:020000040000fa
:04005800120800008a
:020000040000fa
:04005c001208000086
:020000040000fa
:040060001208000082
:020000040000fa
:04006400120800007e
:020000040000fa
:04006800de050000b1
:020000040000fa
:04006c001208000076
:020000040000fa
:040070001208000072
:020000040000fa
:04007400f402000092
:020000040000fa
:04007800120800006a
:020000040000fa
:04007c001208000066
:020000040000fa
:040080001208000062
:020000040000fa
:04008400120800005e
:020000040000fa
:04008800120800005a
:020000040000fa
:04008c001208000056
:020000040000fa
:040090001208000052
:020000040000fa
:04009400120800004e
:020000040000fa
:0400980068030000f9
:020000040000fa
:04009c001208000046
:020000040000fa
:0400a0001208000042
:020000040000fa
:0400a400120800003e
:020000040000fa
:0400a800120800003a
:020000040000fa
:0400ac001208000036
:020000040000fa
:0400b0001208000032
:020000040000fa
:0400b400120800002e
:020000040000fa
:0400b800120800002a
:020000040000fa
:0400bc001208000026
:020000040000fa
:0400c0001208000022
:020000040000fa
:0400c400120800001e
:020000040000fa
:0400c800120800001a
:020000040000fa
:0400cc001208000016
:020000040000fa
:0400d0001208000012
:020000040000fa
:0400d400120800000e
:020000040000fa
:0400d800120800000a
:020000040000fa
:0400dc001208000006
:020000040000fa
:0400e0001208000002
:020000040000fa
:0400e40012080000fe
:020000040000fa
:0400e80012080000fa
:020000040000fa
:0400ec0012080000f6
:020000040000fa
:0400f0008e0300007b
:020000040000fa
:0400f40012080000ee
:020000040000fa
:0400f80012080000ea
:020000040000fa
:0400fc0012080000e6
:020000040000fa
:0401000012080000e1
:020000040000fa
:0401040012080000dd
:020000040000fa
:0401080012080000d9
:020000040000fa
:04010c0012080000d5
:020000040000fa
:0401100012080000d1
:020000040000fa
:0401140012080000cd
:020000040000fa
:0401180012080000c9
:020000040000fa
:04011c0012080000c5
:020000040000fa
:0401200012080000c1
:020000040000fa
:0401240012080000bd
:020000040000fa
:0401280012080000b9
:020000040000fa
:04012c0012080000b5
:020000040000fa
:0401300012080000b1
:020000040000fa
:0401340012080000ad
:020000040000fa
:0401380012080000a9
:020000040000fa
:04013c0012080000a5
:020000040000fa
:0401400012080000a1
:020000040000fa
:04014400120800009d
:020000040000fa
:040148001208000099
:020000040000fa
:0402080012080000d8
:020000040000fa
:04020c0012080000d4
:020000040000fa
:0402100012080000d0
:020000040000fa
:0402140012080000cc
:020000040000fa
:0402180012080000c8
:020000040000fa
:04021c0012080000c4
:020000040000fa
:0402200012080000c0
:020000040000fa
:0402240012080000bc
:020000040000fa
:0402280012080000b8
:020000040000fa
:04022c0012080000b4
:020000040000fa
:0402300012080000b0
:020000040000fa
:0402340022030000a1
:020000040000fa
:0402380012080000a8
:020000040000fa
:04023c0012080000a4
:020000040000fa
:0402400012080000a0
:020000040000fa
:04024400580300005b
:020000040000fa
:040248001208000098
:020000040000fa
:04024c001208000094
:020000040000fa
:040250001208000090
:020000040000fa
:04025400620700003d
:020000040000fa
:040258001208000088
:020000040000fa
:04025c001208000084
:020000040000fa
:040260001208000080
:020000040000fa
:04026400120800007c
:020000040000fa
:04026800de050000af
:020000040000fa
:04026c001208000074
:020000040000fa
:040270001208000070
:020000040000fa
:04027400f402000090
:020000040000fa
:040278001208000068
:020000040000fa
:04027c001208000064
:020000040000fa
:040280001208000060
:020000040000fa
:04028400120800005c
:020000040000fa
:040288001208000058
:020000040000fa
:04028c001208000054
:020000040000fa
:040290001208000050
:020000040000fa
:04029400120800004c
:020000040000fa
:0402980068030000f7
:020000040000fa
:04029c001208000044
:020000040000fa
:0402a0001208000040
:020000040000fa
:0402a400120800003c
:020000040000fa
:0402a8001208000038
:020000040000fa
:0402ac001208000034
:020000040000fa
:0402b0001208000030
:020000040000fa
:0402b400120800002c
:020000040000fa
:0402b8001208000028
:020000040000fa
:0402bc001208000024
:020000040000fa
:0402c0001208000020
:020000040000fa
:0402c400120800001c
:020000040000fa
:0402c8001208000018
:020000040000fa
:0402cc001208000014
:020000040000fa
:0402d0001208000010
:020000040000fa
:0402d400120800000c
:020000040000fa
:0402d8001208000008
:020000040000fa
:0402dc001208000004
:020000040000fa
:0402e0001208000000
:020000040000fa
:0402e40012080000fc
:020000040000fa
:0402e80012080000f8
:020000040000fa
:0402ec0012080000f4
:020000040000fa
:0402f0008e03000079
:020000040000fa
:0402f40012080000ec
:020000040000fa
:0402f80012080000e8
:020000040000fa
:0402fc0012080000e4
:020000040000fa
:0403000012080000df
:020000040000fa
:0403040012080000db
:020000040000fa
:0403080012080000d7
:020000040000fa
:04030c0012080000d3
:020000040000fa
:0403100012080000cf
:020000040000fa
:0403140012080000cb
:020000040000fa
:0403180012080000c7
:020000040000fa
:04031c0012080000c3
:020000040000fa
:0403200012080000bf
:020000040000fa
:0403240012080000bb
:020000040000fa
:0403280012080000b7
:020000040000fa
:04032c0012080000b3
:020000040000fa
:0403300012080000af
:020000040000fa
:0403340012080000ab
:020000040000fa
:0403380012080000a7
:020000040000fa
:04033c0012080000a3
:020000040000fa
:04034000120800009f
:020000040000fa
:04034400120800009b
:020000040000fa
:040348001208000097
:020000040000fa
:100400002fc320000e7f22000e0188000000000094
:10041000000020000000e000020032000001200087
:100420002002880014000700000307000000e0001d
:1004300003003a008012250001002000020037006e
:100440000000200001002000810f70000100320038
:1004500014000700000020000000e000020032004d
:1004600000000200000000002a3c02000000000022
:100470000040da000000fe004440a90040e62000f1
:100480000000e0000300320000002000a00188000e
:100490004440a800000006008a1f78008b1f7800e7
:1004a0000000060091018800800478000000eb0045
:1004b0001a003700e284440032a0b4009905ba0063
:1004c000e284440032a0b4009906ba00e2844400f9
:1004d00032a0b4000006eb00476fde00fd07b2005b
:1004e000636ce10003003a00ebff07000000eb0043
:1004f0000a003700606ce10004003a00005deb0088
:100500008b05e900fdff3e00040037006168e10053
:10051000010032000086eb000b00070019c7ba008b
:100520001905ba000e04e00003003a000a00e000da
:10053000e0ff3a0000000600fe07b2009e018800be
:100540008a047800f5ff3700395dba008b05e900b1
:100550000c003200295dba008b05e900080032006a
:100560000c00e00003003a00e284440032a0b40032
:10057000f5ff370019ddba008b05e900faff3a00f4
:100580008904e800e184440032a0b40000000600c1
:10059000000000000000000000000000000000005b
:1005a000000000000000000000000000000000004b
:1005b000000000000000000000000000000000003b
:1005c000000000000000000000000000000000002b
:1005d000000000000000000000000000000000001b
:1005e00000000000000000003600f800809fbe0000
:1005f000829fbe00849fbe00869fbe000000fa005e
:1006000030048000680060000000e0000600320056
:10061000e04480000000e00002003200e04480007e
:10062000000001008660a9000080fa004f03be00b0
:100630004f02be004f01be004f00be003600f90061
:10064000004006003600f800809fbe00829fbe007a
:10065000849fbe00869fbe000000fa000045800017
:100660000000e000020032000045800000000100b0
:10067000b0c22000104078008040e800b0c22000e6
:1006800001487800a0c2200011c0b30001487800e2
:100690008460a9000080fa004f03be004f02be0034
:1006a0004f01be004f00be003600f90000400600ba
:1006b000801f78000000fa0010c0b3007be8b7008c
:1006c00084e0a9000080fa004f0078000040060096
:1006d0003600f800809fbe00829fbe00849fbe004f
:1006e000869fbe000000fa0010c0b3007ae8b70091
:1006f000ba2607006000b800892607008780a90095
:100700000080fa004f03be004f02be004f01be0042
:100710004f00be003600f900004006003600f80029
:10072000809fbe00829fbe00849fbe00869fbe0049
:100730000000fa008a40a900c110800000082000d3
:10074000008060000000e0000800320018e2a9000c
:100750004a28ef0080428000200090008000eb00db
:10076000010878005028ef000d013700504280004a
:100770008000eb00b200200003002000820f500038
:10078000838f5800fc003e00006001000b00370022
:1007900039003700750037009c003700f300370040
:1007a000c8003700d9003700f0003700db00370001
:1007b000f10037003400370050003700208420005b
:1007c00020009000620060000000e000f3003a00aa
:1007d00020842000100090008042880020842000a7
:1007e00010009000104078004ce8b70020842000f2
:1007f00010009000100090007042880020842000bb
:1008000010009000e60040002084200011009800b5
:10081000208420009000900020bc2000808f500099
:1008200003003a0020842000a1ba200011009800a3
:1008300020842000a00090000100a1002100980069
:100840002084200090009000208420001000780078
:10085000808f500004003a0020842000a000900007
:100860000110a000210098001602a800200020001e
:1008700050428800ca0037001622a800200020003d
:1008800050428800c6003700c110800000002800d8
:10089000008060000000e00008003200208420009a
:1008a000604090008040e800208420006140980073
:1008b0004000200063220700b9003700904280000a
:1008c0008000d100f00f20000080600090108800b0
:1008d0009042800061006000004078000004e00069
:1008e00003003200b000200050428800ac00370006
:1008f0003000200050428800a9003700c11080005d
:1009000000002800008060000000e00008003200c5
:1009100020842000604090008040e8002084200077
:100920006140980040002000462207009c003700ec
:100930001622a800904280004800de00e600600019
:10094000000f20000100700090428800904280005b
:100950000000a0009042880010c0b30054e8b70027
:1009600020002000504288008d00370054c8bf008e
:10097000e14f50000a003200704280001000780001
:10098000904288007042800020009000b0428800b1
:10099000704280002040900058e8b7000100370006
:1009a0005468ef0091428000f00f2000808f5000cb
:1009b00009003600904280004800de00e60060003a
:1009c000000f20000100700090108800a00020009f
:1009d00050428800720037009042800090108800da
:1009e0009042800061006000004078000004e00058
:1009f0000300320050002000504288006800370099
:100a0000300020005042880065003700c11080008f
:100a100000002800008060000000e00009003200b3
:100a200020842000604090008040e8002084200066
:100a30006140980019e2a90050002000012207003f
:100a40005700370058c8bf008080fb008100e900d4
:100a5000cf08de00814078000040e90058e8b70088
:100a60000104e00010003200704280006600400087
:100a7000704288004cc8bf000040e9004ce8b70055
:100a80004cc8bf000004e00003003a002000200032
:100a9000ec210700420037001622a80020002000a9
:100aa000504288003e003700b042800090407800fd
:100ab0008180fb00911088000000e800b0428800af
:100ac00037003700c110800000002800008060005f
:100ad0000000e00009003200208420006040900007
:100ae0008040e80020842000614098004000200001
:100af000d421070019e2a900290037001662a800d6
:100b0000800020005042880025003700800020002f
:100b1000504288001662a80021003700b0428000d1
:100b20008110800081407800014878000000e800d2
:100b3000b042880058c8bf000040e90058e8b7003c
:100b400058c8bf000004e0000400320016a2a9004b
:100b500060002000504288000200370016a2a80062
:100b6000a72107001682a8000d00370020002000f2
:100b7000b42107000a003700208420006040900064
:100b80008040e80020842000614098006000200040
:100b9000ac21070000000000010037000000000049
:100ba0000080fa004f03be004f02be004f01be009e
:100bb0004f00be003600f900004006003600f80085
:100bc000809fbe00829fbe00849fbe00869fbe00a5
:100bd0000200fa00d0428000e20f5000880032008c
:100be000e20f500003003900e30f5000770032009d
:100bf0009500370031108000004020000080600028
:100c00000000e00005003a004110800000022000d2
:100c1000008060000000e0000a0032003110800017
:100c200000082000008060000000e0002400320086
:100c30004110800000202000008060000000e000e3
:100c40001f00320040108000640060000000e000df
:100c50000c003a001000200015230700e04280003d
:100c60000000e00004003200e0428000011080003b
:100c7000814078000148780010002000d0428800b0
:100c80003600370000108000004f78000000eb00b5
:100c900007230700f04280000000e000050032005a
:100ca000f0428000104078000080fb0010108800a7
:100cb0000782a80020002000d042880027003700cb
:100cc0003110800000402000008060000000e00043
:100cd00022003200411080000002200000806000ed
:100ce0000000e0001d003a00401080006400600039
:100cf0000000e00004003a007068ef0030002000bf
:100d0000d04288001300370070c8bf000004e00024
:100d10000d0032000000eb00e5220700f0428000e9
:100d20000000e00005003200f04280001040780032
:100d30000080fb00101088000782a800200020001f
:100d4000d0428800030037007068ef0030002000b8
:100d5000d042880000108000004f7800d042800010
:100d6000e10f500039003a004110800000022000dd
:100d7000008060000000e00036003200411080007a
:100d800000042000008060000000e0000b003a003a
:100d9000e04280000000e00004003200e0428000f9
:100da0000110800081407800014878002000200078
:100db000bf22070096e8b700290037000010800026
:100dc000004f780008c2a90025003700300020003d
:100dd000b722070096e8b70010c0b30070e8b7006c
:100de00096c8bf000004e00002003200001080003e
:100df000004f780010002000d04288001800370013
:100e00004110800000002800008060000000e00029
:100e10000b003a000000eb00a5220700f042800022
:100e20000000e0000d003200f04280001040780029
:100e30000080fb00101088000782a800080037001f
:100e40005a28ef0006003700ffff370000000000bf
:100e50000300370000000000010037000000000020
:100e60008600a90040108000700060000000e000d3
:100e700004003a0040108000680060000000e000bc
:100e8000090032006ac8bf000004e000060032001a
:100e9000a186200091407800304380000040780017
:100ea0005b2507006a68ef000080fa004f03be0070
:100eb0004f02be004f01be004f00be003600f900d9
:100ec000004006003600f800809fbe00829fbe00f2
:100ed000849fbe00869fbe000600fa008560a900c0
:100ee0004000370030118000404798003ec8bf00e6
:100ef0000004e0000d003a004e409000e94f500021
:100f00000a0032003fc8bf000004a2000004e00055
:100f1000310032004e419000018420008248780068
:100f200010c0b3003fe8b7002e0037003ec8bf0036
:100f30000040e8003ee8b7003ec8bf00ea4f50005e
:100f4000270036003e68ef0090c0b300ca170700c4
:100f50000040eb00004f7800030037000040eb003a
:100f6000c51707001e4fe8001e407800e94f5000eb
:100f7000faff360010c0b300bf1707000000eb00f7
:100f80001007980007003700000a20000100200029
:100f9000ef2707000060fe001e0090000000e80040
:100fa00010079800182607000004a2000004e000c3
:100fb000040032009e009000f0702200808f5000ec
:100fc000f1ff360000d0270001002000e0270700d5
:100fd0000000fe00030037000000000001003700a1
:100fe0000000000010118000610060000000e000bf
:100ff000bcff3a0010118000620060000000e000b9
:10100000010032002222a9000080fa004f03be0036
:101010004f02be004f01be004f00be003600f90077
:10102000004006000040da000000fe00000005005d
:10103000839f68000100e00002003d006000100096
:10104000e08018000300e00002003d006001110094
:10105000e0811900170007004f00e00002003b008c
:1010600060001000e0801800000006004f89de00dc
:101070008201780012023700811f78000100e00031
:1010800002003d0060001000e08018000300e00056
:1010900002003d0060011100e08119001500070009
:1010a0004f00e00002003b0060001000e0801800ec
:1010b000000006006022b800060220000000d000f8
:1010c0008180d2000482d2008582d2000000a0007c
:1010d0000202520083825a000300310002024200e1
:1010e00083824a000000a1000603e900f3ff3a00f2
:1010f00000000600efff07000400be00000006002d
:1011000007f82700078361000638e10004003a0071
:10111000f7072000878361008703710001003a0010
:1011200003f0a200889fbe008a9fbe008c9fbe0075
:10113000470ade000480a100c71ade000580a10076
:10114000070028000785600087856100f70f2000f1
:101150000720e1009e0032000728e1009c003200d9
:10116000010678000400e000b4003200f707200018
:10117000878060000170a0000500e000c000320020
:10118000f7072000878161000370a0000506520068
:101190000f003a000b50e1000b0032000308e100a1
:1011a00002003a000200e1007e003200020450001a
:1011b00083845800040031000001fd008101fd001e
:1011c0008402fd008a05fd006044b800210037005c
:1011d0000520e10005003d000001fd008101fd004a
:1011e0008402fd008a05fd00050652007a60e100d8
:1011f000050035000170a1004722dd0084807000e9
:101200008a807000630037006044b800ef02660017
:1012100007ff2f00070666000500e0000600340007
:10122000f08312008714dd000511de00071bdd00ce
:10123000060171008519de007060e10005003500cf
:101240000904780082047800030178008001eb0033
:10125000700656000b50e10003003a000200400007
:10126000838048000400370060041400e0841c0000
:1012700002005800838058000188a3000600320055
:101280008100d1000080d3008984d3000884d3007a
:101290000402e800270037000178a30025003a0087
:1012a0000100e000030032008186cf00698656000d
:1012b0000a0037008c0020000000e00004003a0023
:1012c00009007800880478000004eb0070025200e6
:1012d0008086cf000d0646000c06e9007060e10034
:1012e0000600350080007800090078008804780046
:1012f0000004eb0070065600700252000c00e00083
:101300000c0034008c08dd00f00316000703de003b
:10131000868070000c00dd00074bde0006007000c8
:101320008c4cdd000743de00868474000c44dd0035
:101330000c0252006120e1002000350061016000d4
:101340000700280087816400f7ff27008783640077
:10135000070374000300e0000600320082037300fc
:10136000040032000000e800e08048000188a3008b
:101370000e003a00f70f20000720e1004a003d0070
:101380000170a1004722dd00810072008a80700098
:101390000000be004f06be004f05be004f04be0059
:1013a000000006006000b800faff37008100d1009d
:1013b0000080d3000402e800eeff3700040178004b
:1013c00089017400c20007008a807000f1ff3700b5
:1013d00018010700070278000001fd008101fd00ef
:1013e0001401070087027800850372000778a300c4
:1013f000040032000001fd008101fd00270107000b
:10140000e4ff3700850362000768a300080032008c
:101410000b50e10003003200f0ff2f00f1ff270026
:10142000dcff37000001fd008101fd00d9ff37001e
:101430000468a300d7ff3200faff3700f8ff270047
:10144000888360000b003a000000e00009003a00c9
:101450008303640082837300020032000200be0036
:10146000ccff37000b50e100ceff3a000200be0077
:10147000c8ff370014002000810064003eff3700e1
:10148000f8ff27008883610004003a000200e000b2
:1014900002003a008c007800beff370015002000e3
:1014a0008301640039ff370001f8270000002000a5
:1014b00081007500b7ff370003836800070028002c
:1014c00007036300470ade000480a100c71ade009c
:1014d0000580a100f70f20000720e1004200320044
:1014e0000728e10040003200889fbe008a9fbe00ae
:1014f0008c1f7800f107b200f307b2000400e0008f
:10150000640032000170a0000500e00068003200b5
:101510000370a00085054200eb07b1000204b8008b
:101520000302b8008484440060854a00020ab800bf
:10153000848444000a854a00030ab8000405450073
:10154000040033000804d0008984d2000a85d20048
:101550008b05e9006158e1003d00350002102000d4
:10156000090161000308200089816100f70720005c
:101570008783640008867300c84cde00c853dd0012
:10158000878474004855de000300e0000600320046
:1015900082037600040032008904e80060054d00f3
:1015a0000a88a3000c003a00f70f20000758e1005a
:1015b00044003d000a70a100c75ddd000a8575008a
:1015c0008a007300090078004f0678004f05be00be
:1015d0004f04be00000006000a05d1008984d30034
:1015e0008b05e800f0ff3700881f780006047800bc
:1015f00090000700070278000001fd008101fd0056
:101600008c00070087027800850372000778a3002a
:10161000050032000001fd008101fd009f00070070
:101620004f04780000000600850372000748a300fd
:1016300003003200f0ff2f00f1ff2700f8ff370012
:101640000000200001f8270088807000f4ff3700b8
:10165000880178004848dd00808171004848de003c
:10166000c850dd0001007000c850de00060478009c
:101670000b0178001600070088807000d2ff370049
:101680000500e00005003200170020003a000700c6
:101690009dff370081037000f9ff3a008600780053
:1016a0004f0678004f05be004f04be000000050045
:1016b00083037100f9ff3200270020002e0007008d
:1016c00094ff370001f8270086807000f4ff370090
:1016d0000100e00026003200610111007810e100f5
:1016e00023003c006022b8007010e10004003500c7
:1016f00080027800010078008000eb00700151004a
:101700000200e0000900340070031100062add0029
:10171000822ade008603dd00878272000200de007e
:10172000860bdd00070070008208de0084817100f6
:10173000f4ff270004826200848171000400280005
:10174000848262006102600005f0a60000000600cd
:1017500004827100070032000000e800e0804800c9
:10176000000006000002be006000b800efff370076
:101770006000b80000000600889fbe000004eb0077
:101780006138e10016003a000100e00008003a006c
:10179000c800de004800dd00880020000100e000f5
:1017a00003003a00c800de004800dd006804440081
:1017b0008184cf00e9845400060034008908dd00ec
:1017c000f08314008703de00878070000900dd00cd
:1017d00009044400610214004f04be00000006002a
:1017e0000300e00008003a00c811de004811dd00e7
:1017f000880020000300e00003003a00c811de006a
:101800004811dd00680444008384cf00e98454005b
:10181000060034008919dd00f08314008713de0010
:10182000878171000911dd0009044400e102140000
:10183000e9ff37002700200001f0a7001700200073
:10184000470bde00f60fb200040032000643e8004a
:101850000a0032004702b3000000060001037800ce
:10186000f607b2000603700002003a000703b30057
:10187000000006008702b3000000060001037800a4
:10188000f607b20006037000020032000770a000e5
:10189000000006000760a000000006000478a30016
:1018a000040032000578a300030032000168a300a1
:1018b00001003a000200be000160a0000000060026
:1018c000881f7800030478000300e00007003d0053
:1018d00060001000e080180060011900e08119002c
:1018e00002003b0001f02d00030037000400070058
:1018f00008f0a70001f0a0004f04780000000600e7
:10190000889fbe008a9fbe000082700004027100a2
:1019100004827100260032000004be000200be00f6
:101920006011b8006b092000950220000182cf00f1
:101930000a0039000541b1000082cf0007003900dc
:101940000541b1000982cf00040039000541b10012
:101950000882cf00010039000541b1000542520064
:10196000120032000a003b008281710061016400b4
:101970008100d1000080d3008984d3000884d30083
:101980008b05e8000442e800f7ff3a000700370043
:101990000804440089844c0000004800818048000d
:1019a0008b05e9000442e900f9ff3a000300070053
:1019b0004f05be004f04be0000000600810020005d
:1019c000618055000b003d000b00200061fe2f00e0
:1019d0000100e1001d00340082817100610164009a
:1019e0008904d1000884d3000000e800faff3a001f
:1019f00071002000610064000300700002006000bc
:101a00000900320061044400e0844c000988a5000c
:101a1000050032008b05e8006808e10002003a008a
:101a20008904d1000884d300f20f20000258e1009d
:101a300005003d00c75ddd00f907b2008980750033
:101a400008007800000006000bf827008b007800e3
:101a500000000500000006000800fa00889fbe0094
:101a60008a9fbe008c9fbe000004be000200be0024
:101a7000e2b79f00f3b79f00f6ff070081027800ee
:101a800005f0a100000278000c0020000df82700ee
:101a90006fb19700ffb197008c0f52008d8f5a00e5
:101aa0000a003e000800be00eaff0700810278003d
:101ab00005f0a100000278006fb19700ffb1970018
:101ac0008c0f52008d8f5a00030036000800be00b4
:101ad00094fd0700980037000203be0000002000bc
:101ae00001f82300800f5300818f5b0003003a0050
:101af0000800be00980007008f0037000802be00f3
:101b00004e3dde000b0020006000b8006200650062
:101b10004f4dde000b0020000a0570008b85700021
:101b20008500780001f0a10008007800e00f500067
:101b3000e08f580007003a00e20f5500e08f5d008b
:101b400033003200e30f5500e08f5d007b003a0068
:101b5000320037008702780005f0a1000602780005
:101b6000e00f5200e08f5a003b0032008c0f520011
:101b70008d8f5a002c003a00840f5000858f58003a
:101b800018003a00e20f5500e08f5d0009003200b6
:101b9000e30f5500e08f5d0009003200e10f5500b2
:101ba000e08f5d005b003200b8fd200099f4230057
:101bb0006200370002002000030424000200370006
:101bc0000200200003042c00b0fd2000910424003a
:101bd00039fe07000200200003e8230036fe07005c
:101be00055003700e20f5500e08f5d00080032001d
:101bf000e30f5500e08f5d00080032006044b8003c
:101c0000e10f5500e08f5d004c003a0044003700c2
:101c1000b8fd20009904240048003700b8fd2000da
:101c200099042c00450037000600200007d0200052
:101c30000403430085834b0086bf9f0097bf9f002e
:101c4000800f5300818f5b00030039008c0f500020
:101c50008d8f580005003a000a08a30033003200b7
:101c6000b8fd200099fc2b00340037006033b80029
:101c700062036500e00f5300e08f5b000800320054
:101c80000c0020000dd020000003460081834e0090
:101c90006000b800840f5300858f5b00040039009a
:101ca0000800be009d020700010107002a0007008e
:101cb000e10f5500e08f5d00050032001e00390085
:101cc000e20f5500e08f5d000b003a000300370083
:101cd0000004be0009f0a20018003700e2d22b0079
:101ce000b33b23000ffd07000001be00b0fd200044
:101cf0009104240005003700e2d22b00b33b2300ff
:101d000008fd0700b2fd200093042400fcfc07003e
:101d100009003700b8fd200099f42b0007003700b8
:101d2000080020000900280004003700b8fd20004a
:101d300099fc2300010037000004be000800be002b
:101d40004f06be004f05be004f04be000080fa00e3
:101d500000000600000006000c00fa00889fbe008c
:101d60008a9fbe008c9fbe000004be004f09de00ab
:101d700003002000e2b79f00f3b79f0081067800c0
:101d80000df0a10000067800f0ff2f00f1c724003d
:101d9000800f5600818f5e00100036000800be00e4
:101da000ecff07008101780003f0a100000178003a
:101db0000000200001f82700800f5100818f59009a
:101dc000b5003e000200200003382000a0fd2000e6
:101dd00091fc2300d3fc0700a6003700f0ff2f0082
:101de000f1ed2300800f5600818f5e0011003e0050
:101df0000085eb00f0ff2f00f1972300800f5600c5
:101e0000818f5e0055003e00f0ff2f00f10720009b
:101e1000800f5600818f5e009f003e000801be00cb
:101e20000800be00a4fd0700c0b79f00d1b79f0007
:101e3000990037000800be009d0007000004be00a6
:101e4000f0ff2f0071f92300800f5600818f5e0094
:101e500025003e00f0ff2f00f1f22300800f560016
:101e6000818f5e0011003e000801be000800be0028
:101e7000acfc07000200200003f82300a0fc0700d0
:101e80000005be0002002000030024000800be0080
:101e9000a4fc07000001be000a00be001f020700ec
:101ea0000004be000005eb002c00370002002000fb
:101eb00003f823000800be0091fc07000005be00e7
:101ec0000200200003f823000800be0095fc070074
:101ed0000001be000a00be00100207000004be00a0
:101ee0001a0020001d003700f0ff2f00b101240070
:101ef000800f5600818f5e0012003e00020020001d
:101f000003fc23000800be007dfc07000005be00a6
:101f10000200200003fc23000800be0066fd07004d
:101f20000200200003f823007efc07000001be0031
:101f30000a00be00f90107000004be002a002000cc
:101f4000060037000801be000000200001f82b0049
:101f5000f20107000004be003a0020000801be00a4
:101f60000800be0054fd07000002be000001be00d4
:101f700084bf9f0095bf9f004ffd07000006be0075
:101f800052c22a00c3d723004bfd0700d2502f00b6
:101f900013e1230063fc07000001be000c00be003b
:101fa00045fd070092aa2a00a3ea23005dfc070072
:101fb0000001be000fba97009fba97000400be0050
:101fc0003dfd07000002be0072242100a3dd2b00ae
:101fd0000c00be0084bf9f0095bf9f0036fd070028
:101fe00082a92c00c3e4230045fc07000001be00c9
:101ff0000c00be0030fd07000001be000fba9700c4
:102000009fba9700e10f450009003a000400be00a6
:1020100044fc07000001be000800be0026fd0700ca
:102020000001be000800be0035fc070019003700a3
:102030004255dd00ecbe20000a0646000400be004a
:1020400038fc07000001be000800be001afd0700b2
:10205000e2bf20000a0541001a01be0028fc07006b
:102060000801be0026fc07000001be001c00be00e7
:1020700023fc07006fb19700ffb19700e00f5100fc
:10208000e08f5900030032000004be0009f0a200f6
:10209000010037000004be000800be004f06be006d
:1020a0004f05be004f04be000080fa00000006008d
:1020b0000001be008300780001f0a100020078005a
:1020c0000000060001000700580137000400fa0074
:1020d000889fbe008a9fbe008c9fbe000004be0089
:1020e0004708de00f00fb20051092000810f5000b8
:1020f00041003c000806be00e00f5400e08f5c0089
:1021000003003d000805be000bf0a20001003700ef
:102110000805be00d1072000810f50000a003c00d6
:102120000200200003b024000a00be00fdfb0700ef
:1021300080bf9f0091bf9f006011b8000800be00e3
:10214000ddfc07002b0037000200200003b0240054
:102150000a00be00f3fb07000200200003b02400c9
:10216000e7fb07000a01be00e5fb07000004be0014
:102170000200200003f023002a0107000000e00015
:10218000070034000a01be000800be00e5fb07009e
:102190000200200003f82300d9fb07000f003700de
:1021a0000200200003f02b000800be001b01070006
:1021b0000000e00006003c000a01be000800be006e
:1021c000d8fb07000200200003f8230002003700bc
:1021d0000a01be000800be00d2fb0700e00f560057
:1021e000e08f5e0003003d000004be0009f0a20085
:1021f000010037000004be000800be004f06be000c
:102200004f05be004f04be000080fa00000006002b
:10221000889fbe008a9fbe008c9fbe000004be0047
:102220000400200005f8270085836000040378007f
:10223000840f5300858f5b0007003a000801be0041
:102240000800be009cfc07000001be000800be00a4
:10225000b4fb070010003700e00f5000e08f58007b
:102260000f003c008101780003f0a100000178001c
:10227000e00f5100e08f59006a0032001002200088
:10228000806188000801be000800be009cfb0700ba
:102290000001be00210107000004be0061003700fc
:1022a000478cde00cf8cde00e00f5400e08f5c0036
:1022b0000f003a006044b8000400370000004000fe
:1022c0008180480061044400e0844c000400200048
:1022d000050820008181620004017800e00f5100b0
:1022e000e08f5900f5ff320061041400e0841c0007
:1022f000f807b1000980b10081017800f307b2004e
:10230000000178000200be000170a0000808a300d0
:102310000200320000004000818048008984d10022
:102320000884d30000004000818048009401200010
:1023300002002000031020006055b8006066b8005d
:102340000c0341008d834900800f5300818f5b0097
:1023500006003c0006064100878649000600500042
:10236000878058000a0541008b8549000000400025
:10237000818048008301d1000281d3000402e9007a
:10238000efff3a00e00f5000e08f58001b003200d2
:102390000226240023da20000000200001f8230098
:1023a00057fb07000200200003f823009d000700f0
:1023b0000000e000110035000226240023da20008e
:1023c0000000200001f8230056fb07000200200057
:1023d00003f82300930007000000e000030034002e
:1023e00062054500e0854d00040037006000b8003c
:1023f000610065000005450081854d00c744dd0092
:10240000080020000000200001f023000804400024
:10241000898448008b85d1000a85d30008044500d3
:1024200089844d000800be004f06be004f05be0067
:102430004f04be0000000600010037000201e90061
:102440000200e0000500320030427800b14178001f
:10245000834f5200f9ff32000100370000000500f1
:102460000480fb008381fb00030050000000060095
:102470008001780002003700b15978000201e900bc
:102480000200e000fcff3a0000000600889fbe004a
:102490008a9fbe00800478000200e0005b003200ea
:1024a00001407800814c780082814400f1f99f005e
:1024b000e20f51005500360091449800a144980065
:1024c000e1f99f00d1f99f00e60f51004f0036005f
:1024d000b1449800c1f99f00e80f51004b0036004d
:1024e0000905ea00630565000a8444000a055100f5
:1024f000c1ff2f00010565000080fb008000eb009c
:1025000012102000131020007e000700008cbe0077
:102510000a01440060b99f0071b99f00e80f55009f
:102520003a003600200498003104980040049800d6
:102530005104980020b99f0031b99f0040b99f0015
:1025400051b99f00f80f5500300036006004980024
:1025500071049800000c9800110c9800200c980051
:10256000310c9800400c9800510c980020b19f004d
:1025700031b19f0040b19f0051b19f0060b19f00f9
:1025800071b19f0000b99f0011b99f006401640000
:102590007801410002044400020555006011b800b2
:1025a0000203be000002be000403be006022b800a9
:1025b0000000720081807200020173008381730049
:1025c00010003700009cbe000294be00400498003a
:1025d000510498006204980073049800000c98005d
:1025e000110c9800220c9800330c9800400c9800b5
:1025f000510c9800620c9800730c98000a02b1000c
:102600000802b000ff0f5500eeff3e000900780001
:102610004f05be004f04be0000000600140020005d
:10262000a3013700f4ff2f00a10137000001be0015
:102630001f0007000470a70003f0a1006509b100a6
:10264000160032000d0035006828e1000600350054
:10265000f0ff2f00f1ff27000300e00013003b0014
:1026600001002800000005000000400081804800b3
:102670008502e900fcff3a0008003700f88f4200ad
:1026800002003c008000eb00000005008100d1004a
:102690000080d3008502e800fcff3a000300e00060
:1026a00002003b0060001000e080180000000600ff
:1026b000c70ade00f107b200f50fb20008003200d1
:1026c000e1cf4200020032000170a00024000500aa
:1026d000810f70000100320004080500440005006d
:1026e000810f700002003a00140005008502e90025
:1026f0000000400081c04800fcff3b000170a000ca
:1027000024000500020ab900001bb9000200b8004d
:10271000810042008100430000000600889fbe0047
:102720008a9fbe008c9fbe001b0020000202be00dc
:102730000586680006002800060666004709de00d8
:10274000f20fb200820032000243e8008000320043
:10275000c729de00f30fb2007d0032000343e8001a
:102760007b003200f107b2000170a000f507b20053
:102770000570a000c708dd004903de0086807000f8
:102780004700dd00c72add004923de008682720093
:102790004722dd00030551000403500085835800e3
:1027a0000300310000004000818048000a05e90074
:1027b0008c1f78008a9fbe0004005000858058005e
:1027c0000402420085824a000000400081804800e7
:1027d0000005eb000004be006033b8000406be0034
:1027e0000d48e10056003100110009004dccd80021
:1027f0000c01b8000d02b8008481410060824a00db
:102800008283530003045c0084845c0060055d00e7
:102810000a00e00025003a00800578000d40e10044
:102820004900310088007800070078001100090095
:102830004d88d8000c01b8000d02b8008481410019
:1028400060824a006003110083835b0004045c0023
:10285000e0845c000900e00021003a004f01be0066
:102860000300e0002b003200e30160000706730064
:102870008c81710001003200640070004200de00b3
:102880004e5edd000c007000c258de0001e0a000ca
:1028900081000700cf017800818071004f06be00e3
:1028a0004f05be004f04be00000006008c834300ad
:1028b0000d044c00e0844c0060054d000000e90070
:1028c0000a00e000d4ff32008c8343000d044c006a
:1028d000e0844c0060054d000000e900ceff3700a9
:1028e0000c0343008d834b0060044c00e0844c00db
:1028f0000000e9000900e000d8ff32000c034300ab
:102900008d834b0060044c00e0844c000000e90023
:10291000d2ff37004200de004e5edd000c0070008a
:10292000c258de0001e0a000cf0178000300e00003
:10293000daff320060001000e0801800d7ff370097
:10294000f0ff2f00aaff3700f0ff2f00b9ff37007c
:102950000404be00b7fb0700870678000004fd00f2
:102960008104fd00b3fb0700078366000678a3001f
:10297000030032000960a7000800be002c003700e9
:102980000d78a300020032000800be0028003700c6
:102990000778a30026003a0001f0a10009f0a10089
:1029a0000668a30003003200f1ff2700f0ff2f00ac
:1029b000baff37000d68a300030032000800be0014
:1029c0008c807000b5ff37000768a30007003a004d
:1029d0000648a30003003200f1ff2700f0ff2f009c
:1029e000aeff37000d48a300030032006000b800be
:1029f0008c807000a9ff37000748a3000400320054
:102a000001f82700000020008c807000a3ff370031
:102a1000740007000004fd008104fd000205780039
:102a2000700007000802be008a01780059ff3700d5
:102a30000160a000120220004245880097ff370085
:102a40000100e000120032000500e000100032003a
:102a5000889fbe008a9fbe008c9fbe000006eb00d0
:102a600001f8a3000300320060001000e0801800ad
:102a70000cf0a00005f8a300030032006002120071
:102a8000e0821a000cf0a2008005eb0041ff370045
:102a90006000b800020005008101700027003200cc
:102aa0008002eb0001f8a300030032006000100078
:102ab000e080180015002000f40720000202420008
:102ac00020003400f7032000870360000604200084
:102ad0000003630002082000000161004700de00df
:102ae000c909dd0000807100c708de000600e000b3
:102af0000800320087037100060032001000b000a9
:102b00000180b0000188a30002003200c108de008d
:102b10000402e800f107b200f30f20000320e100f7
:102b200003003d004722dd008100720029003700cc
:102b300001f827000000eb00260037006000b80015
:102b400000000600680212007f20e100020034004d
:102b50006000b8001f0037006011b8007020e1006d
:102b60000400350080017800010078008000eb004f
:102b7000700252000400e00009003400f00312006b
:102b80000719dd008419de000703dd00868171006e
:102b90000400de00070bdd00060070008408de0084
:102ba000f7ff270083836300870371000600280076
:102bb00003036300070032000700e00003003a004f
:102bc0006101600002817300020032001000b00059
:102bd0000180b0000500a6000000060001f0a00082
:102be000000006004f0ade004709de00f107b200d0
:102bf000f20fb2000b003200f207b1000170a0002a
:102c0000c708dd00c901de00838070004700dd00d9
:102c10000400a6000000060060001000e08018001c
:102c200000000600810f700001003a00000006005d
:102c30008182cf000500e00010003e008082cf00be
:102c4000ee8242007028e1000400390007003e00d7
:102c5000800078000000eb000e0037007083120047
:102c60008600de000500dd000a0037007083520098
:102c70008600dd000000eb0006003700e282520013
:102c80008508dd00708312000603de008680700078
:102c90000500dd007507b0000501ea000400a6008c
:102ca0000000060060001000e08018000000060030
:102cb000889fbe008a9fbe00841f7800170007000f
:102cc0004f00780011003300f0ff2f00838f6c005d
:102cd00006003b00040565000a00a7000800370055
:102ce00009f0a6001000200008003700820f5400f1
:102cf000838f5c00030039001000200001003e00bb
:102d00000000200009f0a7000000ea004f05be0007
:102d10004f04be000000e000000006000004be00fa
:102d200063fe07000003be000405be000200be00f3
:0c2d30005ffe0700844f750000000600e5
:020000040000fa
:102d3c000d0a0000000d00000a2a00002a2a0000db
:102d4c00204c000065760000656c000020740000cb
:102d5c0065730000742000002a2a00002a0d000070
:102d6c000a000000202000002a2a00002061000038
:102d7c0063630000656c0000657200006f6d0000fd
:102d8c006574000065720000206400006964000036
:102d9c00206e00006f740000206900006e69000056
:102dac0074690000616c000069730000652000000c
:102dbc002d20000063680000656300006b2000009c
:102dcc004932000043320000206100006e640000b4
:102ddc0020740000686500000d0a0000202000002f
:102dec00202000002064000065760000696300006c
:102dfc0065200000616400006472000065730000cf
:102e0c007320000028740000686900007320000023
:102e1c0062750000696c000064200000757300008e
:102e2c0065730000204c0000495300005f41000016
:102e3c0044440000525f0000312c000020300000a0
:102e4c007831000039290000202a00002a0d0000ea
:102e5c000a000000202000004869000074200000d7
:102e6c00456e00007465000072200000746f000055
:102e7c002072000065740000757200006e20000066
:102e8c00746f00002074000068650000206d000065
:102e9c00656e0000752e00000d0a00000020000079
:102eac002052000061770000206300006f75000065
:102ebc006e74000073200000616e0000642000003e
:102ecc0064650000726900007665000064200000f3
:102edc00616e0000676c0000657300002c20000020
:102eec006f6e00006365000020610000207300001d
:102efc00656300006f6e0000642e00000d0a000078
:102f0c002020000043200000746f0000207a000095
:102f1c00657200006f2c0000204500006e740000ec
:102f2c0065720000207400006f20000072650000c4
:102f3c0074750000726e0000207400006f20000099
:102f4c0074680000652000006d6500006e7500005f
:102f5c002e0d00000a0d00000a00000020200000c9
:102f6c00583d000000200000205900003d000000ea
:102f7c00202000005a3d000000200000202000000e
:102f8c007069000074630000683d000000200000c0
:102f9c00207200006f6c00006c3d000000200000ef
:102fac0064650000670d00000a0000000d0a0000b7
:102fbc00202000007a650000726f0000656400003c
:102fcc000d0a00000d0a0000000d00000a2a000086
:102fdc002a2a0000206c000065760000656c000059
:102fec002074000065730000742000006669000006
:102ffc006e6900007368000065640000202a000000
:10300c002a2a00000d0a0000000d00000a2a000008
:10301c002a2a0000204d0000616e0000756100003e
:10302c006c20000062650000616d000020620000f1
:10303c0072650000616b0000207400006573000075
:10304c00742000002a2a00002a0d00000a2000002b
:10305c002042000072650000616b000020650000da
:10306c00616300006820000062650000616d000073
:10307c00206900006e20000074750000726e000064
:10308c00202d00002074000068650000206d0000f9
:10309c006174000063680000696e00006720000026
:1030ac006c61000073650000722000007368000002
:1030bc006f7500006c640000206c000069670000f4
:1030cc00687400002e0d00000a200000204800004b
:1030dc0069740000204500006e74000065720000e9
:1030ec00207400006f2000007265000074750000f1
:1030fc00726e0000207400006f20000074680000e5
:10310c00652000006d6500006e7500002e0d00003e
:10311c000a0d00000a0000002020000046520000aa
:10312c004f4e00005420000062650000616d0000ed
:10313c0020620000726f00006b6500006e0d0000d5
:10314c000a00000020200000465200004f4e0000f4
:10315c005420000062650000616d000020630000d7
:10316c006c650000617200000d0a00000020000078
:10317c002052000045410000522000002062000057
:10318c00656100006d200000627200006f6b000032
:10319c00656e00000d0a00000020000020520000a7
:1031ac0045410000522000002062000065610000d3
:1031bc006d200000636c000065610000720d000062
:1031cc000a0000000d0a00002a2a00002a20000034
:1031dc0062650000616d00002062000072650000f5
:1031ec00616b000020740000657300007420000007
:1031fc00666900006e690000736800006564000079
:10320c00202a00002a2a00000d0a0000000d0000f0
:10321c000a3d00003d3d00003d3d00003d3d0000ed
:10322c003d3d00003d3d0000205200004753000092
:10323c0020420000726900006e67000055700000ab
:10324c00203d00003d3d00003d3d00003d3d0000a7
:10325c003d3d00003d3d00000d0a0000002d00002a
:10326c002d2d00002d2d00002d2d00002d2d0000ea
:10327c002d2d000020200000202000002020000028
:10328c00202000002020000020200000202d000025
:10329c002d2d00002d2d00002d2d00002d2d0000ba
:1032ac002d2d00000d0a0000002d00002d2d00001a
:1032bc002d2d00002d2d00002d2d00002d2d00009a
:1032cc002d2000005665000072730000696f00002d
:1032dc006e200000002e0000002000002d2d0000ac
:1032ec002d2d00002d2d00002d2d00002d2d00006a
:1032fc000d0a0000002d00002d2d000020550000af
:10330c0073650000207700006974000068200000dd
:10331c004170000070200000563300002e30000079
:10332c00206100006e640000207500007020000019
:10333c002d2d00002d2d00000d0a00002d2d00005c
:10334c002d2d00002d2d00002d2d00002d2d000009
:10335c002d2d00002d2d00002d2d00002d2d0000f9
:10336c002d2d00002d2d00002d2d00002d2d0000e9
:10337c002d2d00002d2d00002d2d00002d2d0000d9
:10338c002d0d00000a20000020300000202000003d
:10339c00536800006f770000206100006c6c000027
:1033ac00207300007461000074750000730d000040
:1033bc000a200000203100002020000042610000a3
:1033cc007474000065720000792000002f2000004a
:1033dc0067610000756700006520000062720000e4
:1033ec00696e0000672d0000757000000d0a00006a
:1033fc002020000032200000205400006f670000e5
:10340c00676c000065200000467200006f6e0000c3
:10341c00742000006c61000073650000720d0000e8
:10342c000a2000002033000020200000546f000010
:10343c00676700006c6500002052000065610000a9
:10344c00722000006c61000073650000720d0000ba
:10345c000a2000002034000020200000546f0000df
:10346c00676700006c65000020420000616c000082
:10347c006c2000006465000074650000637400003b
:10348c0020620000656100006d0d00000a20000044
:10349c002035000020200000546f000067670000fa
:1034ac006c65000020490000522000006c6900008f
:1034bc0067680000747300000d0a000020200000f3
:1034cc0036200000204d0000616e00007561000088
:1034dc006c20000062650000616d00002d62000030
:1034ec0072650000616b00002074000065730000c1
:1034fc00740d00000a20000020370000202000007e
:10350c005465000073740000204c000065760000c8
:10351c00656c000020200000310d00000a20000026
:10352c002038000020200000436100006c6900007e
:10353c006272000061740000652000004c650000a0
:10354c00766500006c0d00000a2000002039000098
:10355c0020200000205400004244000020330000d2
:10356c000d0a000020200000202000002020000078
:10357c00202000002020000020200000202000003f
:10358c00202000002020000020200000202000002f
:10359c0020200000200d00000a2000002020000048
:1035ac00202000002020000020200000202000000f
:1035bc0020200000202000002020000020200000ff
:1035cc002020000020200000202000000d0a000018
:1035dc00202000002d2d00002d2d00002d2d000091
:1035ec002d2d00002d2d00002d2d00002d2d000067
:1035fc002d2d00002d2d00002d2d00002d2d000057
:10360c00200d00000a2000002053000020200000a4
:10361c0053610000766500002053000065740000c3
:10362c00746900006e670000730d00000a20000032
:10363c00204c0000202000004c6f00006164000052
:10364c0020500000726f000064750000637400006d
:10365c00696f00006e200000696d0000616700005a
:10366c00650d00000a2000002058000020200000fa
:10367c004578000069740000206100006e64000051
:10368c00207000006f77000065720000206400005d
:10369c006f7700006e2000000d0a00003d3d000019
:1036ac003d3d00003d3d00003d3d00003d3d000026
:1036bc003d3d00003d3d00003d3d00003d3d000016
:1036cc003d3d00003d3d00003d3d00003d3d000006
:1036dc003d3d00003d3d00003d3d00003d3d0000f6
:1036ec003d0d00000a530000656c0000656300008e
:1036fc0074200000284500006e7400006572000004
:10370c00207400006f2000007265000064720000dd
:10371c0061770000293a0000200000000d0a00002b
:10372c005b5400004f4400004f5d0000206200001d
:10373c00617400007465000072790000202f000095
:10374c0020670000617500006765000020620000c2
:10375c00726900006e6700002d750000700d00008e
:10376c000a0000000d0a00004368000065630000b9
:10377c006b200000467200006f6e00007420000089
:10378c006c6100007365000072200000746f000013
:10379c00676700006c650000732e00002054000069
:1037ac00757200006e2000006f660000662000003d
:1037bc0077680000656e000020660000696e0000ee
:1037cc00697300006865000064200000706c0000e4
:1037dc00656100007365000021210000210d0000cf
:1037ec000a0000000d0a0000436800006563000039
:1037fc006b2000007265000061720000206c0000fc
:10380c006173000065720000207400006f67000097
:10381c00676c0000657300002e20000054750000da
:10382c00726e0000206f00006666000020770000ba
:10383c00686500006e200000666900006e6900007b
:10384c007368000065640000207000006c65000067
:10385c006173000065210000212100000d0a0000a9
:10386c00000d00000a43000068650000636b000057
:10387c00206400006574000065630000746900003a
:10388c006f6e000020620000656100006d2000007a
:10389c00746f0000676700006c650000732e0000f9
:1038ac00205300007769000074630000682000005a
:1038bc0069740000206f000066660000207700002d
:1038cc00686500006e200000646f00006e650000eb
:1038dc000d0a0000000d00000a430000686500009e
:1038ec00636b000020490000522000006c6900004e
:1038fc006768000074730000206f00006e2c0000dd
:10390c00206d000061790000206e000065650000ec
:10391c006420000061200000706800006f6e0000e1
:10392c0065200000636100006d650000726100009d
:10393c00207400006f200000646f000020740000f1
:10394c0068690000732100002054000075720000ab
:10395c006e2000006f660000662000007768000093
:10396c00656e0000206400006f6e00006520000092
:10397c0021210000212100000d0a0000000d000093
:10398c000a2000002061000074740000656d0000c6
:10399c0070740000696e000067200000746f0000f6
:1039ac002073000061760000652000007365000044
:1039bc0074740000696e000067730000202e000014
:1039cc002e2e00002e2e00000d0a0000000d00000f
:1039dc000a20000020730000657400007469000068
:1039ec006e670000732000007361000076650000b4
:1039fc00640d00000a0000000d0a000020200000e9
:103a0c002a2a0000205300004156000045200000e7
:103a1c0046410000494c000045440000202a0000ab
:103a2c002a0d00000a0000000d0a00004869000081
:103a3c0074200000456e00007465000072200000c8
:103a4c00746f0000206c00006f61000064200000a7
:103a5c006e65000077200000696d00006167000052
:103a6c00650d00000a0000000d0a0000524700001e
:103a7c005320000042720000696e00006755000080
:103a8c00702000006a690000673a0000206800009e
:103a9c00656c00006c6f00000d0a00000050000007
:103aac00657200007369000073740000656e00009d
:103abc0074200000636f00006e66000069670000f0
:103acc003a20000072650000737400006f720000f1
:103adc006564000020660000726f00006d2000001d
:103aec00666c000061730000680d00000a000000a5
:103afc00506500007273000069730000746500006b
:103b0c006e740000206300006f6e00006669000098
:103b1c00673a0000206e00006f6e00006520000008
:103b2c00737400006f72000065640000202d0000ab
:103b3c0020610000707000006c790000696e00005c
:103b4c00672000006465000066610000756c000071
:103b5c00747300000d0a0000005000006572000034
:103b6c007369000073740000656e0000742000001f
:103b7c00636f00006e660000696700003a20000069
:103b8c005752000049540000544500004e0d0000ef
:103b9c000a00000050650000727300006973000099
:103bac00746500006e740000206300006f6e0000ee
:103bbc0066690000673a0000202a00002a200000f5
:103bcc0057520000495400004520000046410000b7
:103bdc00494c000045440000202a00002a0d00003a
:103bec000a00000050650000727300006973000049
:103bfc00746500006e740000206300006f6e00009e
:103c0c0066690000673a0000206100006c720000d9
:103c1c0065610000647900002075000070200000d0
:103c2c00746f00002064000061740000650d0000da
:103c3c000a000000493200004332000020620000fc
:103c4c0075730000207500006e770000656400003d
:103c5c00676500003a2000006f6b00000d0a000041
:103c6c000049000032430000322000006275000061
:103c7c0073200000756e000077650000646700001b
:103c8c00653a00002042000055530000205300000c
:103c9c00544900004c4c00002053000054550000c7
:103cac00434b00000d0a0000000d00000a2a000022
:103cbc002a2a00002a2a00002a2a00002a2a0000a8
:103ccc002a2a00002a2a00002a2a00002a2a000098
:103cdc002a2a00002a2a00002a2a00002a2a000088
:103cec002a2a00002a2a00002a2a00002a2a000078
:103cfc002a2a00000d0a0000000d00000a2a00000c
:103d0c002a2a00002a2a00002a2a00002a41000040
:103d1c00757400006f2000006d6100007465000078
:103d2c0064200000746500007374000073200000b0
:103d3c00636f00006d7000006c650000746500001e
:103d4c002a2a00002a2a00000d0a0000000d00009b
:103d5c000a2a00002a2a00002a2a00002a2a000027
:103d6c004d6100006e750000616c00002062000067
:103d7c00656100006d20000062720000656100004a
:103d8c006b2000007465000073740000732a00003f
:103d9c002a2a00002a0d00000a0000000d0a00006b
:103dac002a2a00002a200000202000004272000075
:103dbc00656100006b200000656100006368000015
:103dcc0020620000656100006d200000696e00003b
:103ddc0020740000757200006e2c00002020000082
:103dec00202a00002a2a00002a0d00000a000000e8
:103dfc000d0a00002a2a00002a20000020200000c2
:103e0c0056650000726900006679000020630000ae
:103e1c006f72000072650000737000006f6e00001e
:103e2c00646900006e670000206c00006173000084
:103e3c0065720000206300006f6d00006573000068
:103e4c00206f00006e200000202000002a2a0000b5
:103e5c002a2a00000d0a0000000d00000a2a0000aa
:103e6c002a2a0000536900006d7500006c74000074
:103e7c00616e0000656f0000757300006c790000c6
:103e8c002062000072650000616b0000206200007f
:103e9c006f7400006820000062650000616d000016
:103eac0073200000746f000020650000786900002a
:103ebc0074200000202a00002a2a00002a0d00008d
:103ecc000a0000000d0a00002a2a00002a20000027
:103edc0020200000467200006f6e0000742000006d
:103eec0042650000616d000020620000726f0000ee
:103efc006b6500006e3f0000202a00002a2a00009b
:103f0c002a0d00000a0000000d0a00002a2a0000f9
:103f1c002a20000020200000526500006172000081
:103f2c0020420000656100006d20000062720000fc
:103f3c006f6b0000656e00003f2000002a2a000015
:103f4c002a2a00000d0a0000000d00000a2a0000b9
:103f5c002a2a00002a2a00002a2a000054650000a0
:103f6c007374000073200000436f00006d7000003c
:103f7c006c650000746500002a2a00002a2a0000e3
:103f8c000d0a0000000000000d0a000000300000c7
:103f9c007800000053450000414c000045440000ef
:103fac00005500004e530000454100004c450000f8
:103fbc0044000000465500004c4c0000204100001d
:103fcc00434300004553000053000000554e0000d1
:103fdc004b4e00004f5700004e0000000042000006
:103fec0051340000305a00003530000020620000cf
:103ffc00726900006e6700002d750000703a0000b9
:10400c000020000020530000425300002056000006
:10401c006f6c000074610000676500003a200000be
:10402c00002000006d56000000200000202a000037
:10403c002a2000005342000053200000574f00007c
:10404c005244000020520000454100004420000072
:10405c0046410000494c0000454400002028000067
:10406c0074720000616e0000737000006f720000cb
:10407c0074290000202a00002a00000020200000e3
:10408c00507200006f620000652000007265000035
:10409c006a6500006374000065640000202d000058
:1040ac002061000073730000756d0000696e0000e4
:1040bc006720000053450000414c000045440000bf
:1040cc002c200000736500006e640000696e000017
:1040dc0067200000756e000073650000616c0000c5
:1040ec00206b0000657900007300000020200000a8
:1040fc0044650000766900006365000020740000d0
:10410c0079700000653a00002000000020200000bb
:10411c002a2a000020500000524f000042450000a7
:10412c0020460000414900004c450000442000009e
:10413c002a2a0000002000002044000065760000c0
:10414c006963000065200000726500007365000063
:10415c0074200000286300006c6500006172000090
:10416c00696e0000672000006c6100007463000041
:10417c0068650000642000004655000053450000af
:10418c002f700000726f00007465000063740000f3
:10419c00696f00006e730000292e00002e2e0000a7
:1041ac0000200000205300006563000075720000c1
:1041bc0069740000792000006d6f000064650000d8
:1041cc003a20000000200000202a00002a200000d5
:1041dc00554e000053450000414c000020460000a5
:1041ec00414900004c450000442000002a2a0000f0
:1041fc00002000002044000041200000436f00001c
:10420c006e66000069670000757200006174000042
:10421c00696f00006e3a00002000000020280000aa
:10422c0034200000636500006c6c00002c20000042
:10423c004e52000029000000202000002a2a000015
:10424c002044000046200000575200004954000052
:10425c004520000046410000494c00004544000048
:10426c00202a00002a0000002020000054650000d5
:10427c006d700000207300006f7500007263000009
:10428c00653a0000206900006e7400006572000041
:10429c006e6100006c20000028620000656e00005a
:1042ac00636800002c2000006e6f0000207400007a
:1042bc0068650000726d000069730000746f000087
:1042cc007273000029000000202000002a2a000040
:1042dc0020540000454d000050200000434f0000ca
:1042ec004e460000494700002046000041490000ae
:1042fc004c450000442000002a2a00000020000049
:10430c00202a00002a20000046450000542000000e
:10431c00454e0000414200004c4500002046000084
:10432c00414900004c450000442000002a2a0000ae
:10433c00002000002046000045540000733a0000a5
:10434c0020430000484700003d0000006f6e000055
:10435c00006f00006666000000200000445300005f
:10436c00473d00000020000050430000484700007b
:10437c003d000000202000004e6f0000746500001e
:10438c003a200000464500005420000068650000fb
:10439c006c640000206f0000666600002c2000009a
:1043ac004f7000006572000061740000696f0000be
:1043bc006e5300007461000074750000733d0000c2
:1043cc000020000053610000666500007479000055
:1043dc005374000061740000757300003d00000010
:1043ec0020500000465300007461000074750000fa
:1043fc00733d000000200000204d000066670000a7
:10440c0020530000746100007475000073200000dc
:10441c00496e0000697400003a2000000020000082
:10442c0028460000455400005f4500004e20000067
:10443c007065000072730000697300007465000001
:10444c006e74000029000000202000002a2a0000c1
:10445c00204600004554000020500000455200004a
:10446c00534900005354000020460000414900000d
:10447c004c450000442000002a2a000000200000c7
:10448c00202a00002a200000434500004c4c00006c
:10449c00205600004f4c00005441000047450000de
:1044ac00205200004541000044200000464100001d
:1044bc00494c000045440000202a00002a0000005e
:1044cc0020200000436500006c6c00002000000000
:1044dc003a2000000020000020530000756d000001
:1044ec003a2000000042000051340000305a000015
:1044fc003530000020620000726900006e67000019
:10450c002d75000070200000636f00006d700000be
:10451c006c650000746500002e0000004251000024
:10452c00343000005a350000302000006272000068
:10453c00696e0000672d0000757000002066000099
:10454c00696e00006973000068650000642000005b
:10455c00574900005448000020450000525200000a
:10456c004f520000532e0000004400004120000078
:10457c00436f00006e660000696700000054000085
:10458c00656d000070200000456e00006162000047
:10459c006c65000000540000656d00007020000088
:1045ac004d6f000064650000004d00006667000060
:1045bc00205300007461000074750000732000002b
:1045cc00496e00006974000000440000657300002f
:1045dc00696700006e20000043610000702000003d
:1045ec006d41000068000000446500007369000024
:1045fc00676e000020430000617000002063000023
:10460c0057680000004400006573000069670000f3
:10461c006e200000566f00006c7400006167000093
:10462c00650000007d4a000001000000070000004a
:10463c00bba200007b4a000001000000010000004a
:10464c00c5a200007c4a0000010000000000000030
:10465c00d1a200000046000002000000180000007b
:10466c00dba20000e548000002010000c4090000c4
:10467c00eba20000e7480000020100006801000006
:10468c00faa20000e94800000201000040380000d6
:10469c0009a30000004700006f6c00006465000077
:1046ac006e200000696d000061670000653a000033
:1046bc00002000002000000020400000002000002e
:1046cc003a200000004e00004f5400002053000020
:1046dc0045540000202d0000207000006163000094
:1046ec006b200000766100006c75000065200000f6
:1046fc00726500007175000069720000656400004d
:10470c0000200000206f00006b0000002020000043
:10471c004d490000534d0000415400004348000037
:10472c002c200000776100006e7400002000000057
:10473c00202000004279000074650000206f00000a
:10474c007264000065720000202000003a20000016
:10475c004446000020000000206d0000416800006d
:10476c00207600007320000053420000532000000c
:10477c00002000006d41000068200000206f000048
:10478c006b000000206d000041680000202000003c
:10479c004d490000534d00004154000043480000b7
:1047ac00007200006561000064200000666100007a
:1047bc00696c00006564000020280000693200006c
:1047cc00633d00000029000000420000513400004d
:1047dc00305a000035300000207300007461000076
:1047ec0074750000733a0000002000002056000091
:1047fc006f6c0000746100006765000020200000f1
:10480c00203a000020000000206d0000560000003f
:10481c002020000044410000204300006f6e000087
:10482c0066690000672000003a20000000200000ac
:10483c002034000020630000656c00006c00000058
:10484c00202000004e4f00005420000034200000b7
:10485c00636500006c6c0000002c0000206e0000f2
:10486c006f6e00002d720000656d00006f76000009
:10487c00616200006c650000002c000020520000fa
:10488c00454d00004f560000414200004c450000d1
:10489c00002000002046000045540000732000005a
:1048ac002020000020200000203a00002000000002
:1048bc0043480000473d0000006f00006e00000000
:1048cc006f660000660000002044000053470000a3
:1048dc003d0000002050000043480000473d000010
:1048ec0000200000202000004f70000065720000c6
:1048fc0061740000696f00006e5300007461000069
:10490c0074750000733d000000200000205400006e
:10491c00656d0000702000002020000020200000a9
:10492c00203a0000200000002d0000002e000000a6
:10493c00204300000020000020430000656c0000b4
:10494c006c2000000020000020200000203a000015
:10495c00200000002020000050610000636b00006c
:10496c0020730000756d0000202000003a2000002c
:10497c000020000020430000656c00006c730000f8
:10498c002020000020200000203a00002000000021
:10499c0020200000427500007320000072650000aa
:1049ac0073650000747300003a200000003f0000a3
:1049bc003e3d00003c30000031320000333400003a
:1049cc003536000037380000394100004243000002
:1049dc0044450000460000008081000082860000f3
:1049ec0087990000a9aa0000010100000401000041
:0849fc0012100000010100008f
:020000040000fa
:104a04000200fa00000f78000400370000e82300d9
:104a1400010020004d1907000060fe001e00780010
:104a240000f0a7000000ea000000ea004f00de00ea
:104a3400004078001e0fe9000004e000f3ff3a0094
:104a44000080fa00000006000400fa001007980035
:104a54000000eb00000f780009003700703e2000d2
:104a64009e007800808f50000a003e000064200001
:104a740001002000351907000060fe001e0fe80049
:104a84001e00900010007800e10f5000f3ff320088
:104a940001003700000000001e00900010007800a4
:104aa4000040780000e8b7001e0090001000780075
:104ab4000010a20000f0a7000000ea000000e900d6
:104ac4004f00de00004078000080fa00000006007d
:104ad4000000fa0000c8bf000080fb00e60f500091
:104ae40008003e00110020008008dd00b004200012
:104af400008060000000e0000200320010c0b3003b
:104b0400010037000040eb000080fa0000000600be
:104b14000000fa0004c8bf000004a2000004e00082
:104b240003003200104080000000e80010408800bc
:104b34008e11070020032000b1ff07000080fa0057
:104b4400000006000600fa001007980021079800ec
:104b54000000eb00000f78000b003700f07c200011
:104b64009e007800808f5000020036000040eb0069
:104b74000c003700000a200001002000f318070091
:104b84000060fe001e0fe8001e00900090007800f8
:104b94002e009000008060000000e000efff3a006b
:104ba40010c0b3000080fa00000006000400fa0000
:104bb4000000eb001007980010c0b30004e8b70031
:104bc4006a110700500020008dff07001602a8009c
:104bd4001100200060212000daff07000040eb00f4
:104be400004f7800110037001662a80081002000f1
:104bf40060212000d3ff07000004a2000004e000ad
:104c04000e003a008010800016a2a8001682a800a8
:104c14000101200060212000caff07000004a20057
:104c24000004e00007003a001e4fe8001e40780030
:104c3400e84f5000ecff360003003700000000008e
:104c440001003700000000001642a80041002000c7
:104c540060212000bbff0700441107005000200022
:104c640067ff07000e80e8008000780090c0b30062
:104c740037000700104798001e4090000004e00031
:104c84000200320020c0b3000100370030c0b3007e
:104c940005e8b7000468ef001e4090000080fa00a9
:104ca400000006000000fa0089ff07000004e0008d
:104cb4000700320096ff070004c8bf000004a200ea
:104cc4000004e00004003200b8ff070002003700cf
:104cd400a00020004aff07000080fa000000060040
:104ce4000800fa0020079800614798000040eb0094
:104cf400004f7800100037001000200010079800c3
:104d04000e80e80080017800b2002000ee409000a0
:104d14002e009000571107000e80e8004aff07009c
:104d24000004e0000200320010c0b30006003700a7
:104d3400dcff07001e4fe8001e407800e44f5000df
:104d4400edff36000040eb000080fa000000060092
:104d54001600fa0020579800210f98000040eb003d
:104d6400004f7800230037001000200070079800df
:104d7400f20047000e80e800b300200012c0b30028
:104d8400c2110700f00047000e80e80066004000f2
:104d9400b300200022c0b300a4110700ee004700b6
:104da4000e80e800010178008000780020c0b30084
:104db400621107006e00470023ff07000004e000b3
:104dc4000a0032000e5090008080fb001e509000bc
:104dd4000080fb004800dd00810070002e08900078
:104de4000108780010c0b30006003700adff0700cb
:104df4001e4fe8001e407800e44f5000daff3600f2
:104e04000040eb000080fa00000006000800fa00f1
:104e14004047980031079800ce409000014f780039
:104e24003e00900000407800104798003e0090003b
:104e34004800de00004078002047980031c0b300ed
:104e44000e007800a6ff07000080fa0000000600ac
:104e54000200fa00000f78009e0078000040eb008a
:104e6400eaff07000004a2000004e0000200320090
:104e74000040eb0003003700a0002000e0fe070024
:104e840010c0b3000080fa00000006002600fa00fb
:104e94001017980041679800ce60900000c2b300dc
:104ea40080cf5000020036000040eb000f003700b6
:104eb40040c4b300004f7800ce60900011479800c2
:104ec4004e6090008080fb000e80e80001017800b5
:104ed4009e10900065f507004e60900000c0e80049
:104ee400804078000e0078007dff07000080fa0003
:104ef400000006004200fa00501f9800611f98004d
:104f0400627f98000327980040c4b300404798008c
:104f14000040eb00204798005e18900000407800a5
:104f2400206f98005e1890004800de000040780072
:104f3400306f9800a00220000e00400021c0b30092
:104f4400d2ff07000004a2000004e00002003200c7
:104f5400100020005f003700a0002000a8fe07001a
:104f64000040eb0010479800230037001000200099
:104f7400401f9800e4004700c00220000e004000db
:104f8400b300200012c0b30040110700e500470041
:104f9400c00220000e00400066004000b300200064
:104fa40052c2b30021110700810320008e8040000b
:104fb400c00220000e00400001017800800078004b
:104fc40020c0b300dd100700800320000e00400065
:104fd4009dfe0700204798002e4090000004a20088
:104fe4000004e000010032002eff07001e40900084
:104ff4000040e800104798001e409000e44f500025
:1050040004003e002e4090000004a2000004e000d2
:10501400d6ff3a002e4090000004a2000004e000f5
:1050240002003200100020002a003700de40900009
:10503400314798003e409000e14f50000400360094
:10504400be40900040c2b30080cf50000200360042
:10505400200020001f003700ee4090002e689000d2
:1050640080cf500004003a00fe4090003e6890005b
:1050740080cf5000020032002000200015003700cd
:105084003e40900000cfe9006e7890009e4078008a
:1050940080cf500002003600ee789000014f780077
:1050a4009e80fb006500470063004000010178001a
:1050b400800078006e189000ecf407000e20900039
:1050c4000000e000020032000e2090001e4878002c
:1050d4000000eb000080fa00000006002800fa003f
:1050e40020179800311798000040eb0020679800c3
:1050f400210220008e8040000e80e80081017800ab
:1051040002c2b300800078002e10900079ff0700df
:10511400000f78001e0078000000e000020032005a
:105124001e007800090037002e6090000004e000a3
:1051340002003a001000200004003700ae40900046
:105144003e109000014878000000eb000080fa0057
:10515400000006000800fa00200798006147980044
:105164002e00900000407800004f78002e00900040
:105174004800de000040780010479800ee409000a0
:105184002147980031c0b3000e0078003fff0700ac
:105194000004a2000004e00002003200100020001d
:1051a40003003700800c200015fe07000000eb0010
:1051b4000080fa00000006002800fa00201798007a
:1051c400311798000040eb0020679800210220006e
:1051d4008e8040000e80e8008101780002c2b30096
:1051e400800078002e10900042ff0700000f780026
:1051f4001e0078000000e000020032001e0078006b
:105204000e0037002e609000e14f500002003e0077
:1052140010002000090037002e4090008080fb0021
:105224003e4090000080fb004800dd0081007000db
:105234003e109000010878000000eb000080fa00a6
:10524400000006000800fa002007980031079800c3
:105254002e00900000407800004f78002e0090004f
:105264004800de0000407800104798003e0090009f
:1052740000407800204798003e0090004800de007f
:10528400004078003047980041c0b3000e00780019
:10529400fefe07000004a2000004e0000200320049
:1052a4001000200003003700800c2000d4fd07000c
:1052b4000000eb000080fa00000006000400fa0081
:1052c40010079800160037000000eb00000f78006c
:1052d400090037001e0fe800f07022009e007800dd
:1052e400808f500013003e00000a200001002000bf
:1052f400161707000060fe00311507000004a20025
:105304000004e000f3ff3a001e0090001040780013
:105314009e0090008100e800110798001015070016
:105324001e009000104078000004e000e6ff3a0000
:1053340001003700000000000080fa0000000600b1
:105344000200fa00000f78001e007800dbff07005f
:10535400a0fc2900d9ff07000080fa000000060025
:105364000800fa00889fbe001007980021079800e3
:1053740062479800d0fc2900d0ff07006e409000df
:105384000040e900004f7800180037001e00fb00c1
:105394004202dd001e019000ae019000f0021200f6
:1053a40004003b008502ea000518de008000eb00e3
:1053b40004003700851add000410de00008072004e
:1053c4008418de00000078006f0060008004eb00a9
:1053d400000478000800be00124e2a0000004100bc
:1053e40010407800de1407001e4fe9001e407800cc
:1053f4000004e000e5ff3d004f04be000080fa0019
:10540400000006000a00fa004007980050c0b300ec
:10541400004f78000040eb00604798001e4fe90001
:105424009e81fb004e019000d0cc2c000010b800ef
:105434004308de006a00b900000078000000510053
:10544400004078000043b00080407800030047002b
:1054540011409800ce009000d0cc2c000008b80079
:105464004308de00400798004e0090000000e00072
:10547400030032001e4078000004e000e7ff3a0019
:105484001e80fb008e00e800008040008bff0700b8
:105494000080fa00000006000a00fa0040079800a5
:1054a4000040eb0060479800e60047000e80e800eb
:1054b4008101780042c0b300800078001000200011
:1054c4008cfe0700000f78001e0078000000e0004a
:1054d400020032001e007800150037006e40900074
:1054e400e14f500002003e00100020001000370081
:1054f4002e4090008080fb003e4090000080fb0026
:105504004800dd00810070004e0090000108780022
:105514004e0090009000780000502400808f5000ce
:105524000200320030002000010037000000eb00d0
:105534000080fa00000006000c00fa004007980002
:10554400510798000040eb0060479800e6004700d0
:105554000e80e8008101780042c0b300800078002a
:105564004e00900063fe0700000f78001e007800d4
:105574000000e000020032001e0078002200370024
:105584006e409000e34f500002003e0010002000e7
:105594001d0037002e4090000081fb008001eb00cd
:1055a4003e4090000082fb008002eb004828dd00b2
:1055b400c820de00810070004820dd000001710079
:1055c400818171004e4090000080fb008000eb0060
:1055d400c000dd0000002000000171008181710025
:1055e4005e4090000080fb008000eb00c800dd00fe
:1055f4000000200000007100818071005e019000b5
:105604000089be000000eb000080fa0000000600e4
:105614000400fa00889fbe008e0078004005200038
:10562400c5ff07000000e000020032000000eb00ac
:10563400210037001e00be004809dd004800de00de
:1056440000007100c808de000000780063006000fc
:105654008004eb00000478000800be002200200053
:1056640003002000820f5000838f58000d00320089
