:020000040000fa
:080000000002040000000000f2
:020000040000fa
:0400080012080000da
:020000040000fa
:04000c0012080000d6
:020000040000fa
:0400100012080000d2
:020000040000fa
:0400140012080000ce
:020000040000fa
:0400180012080000ca
:020000040000fa
:04001c0012080000c6
:020000040000fa
:0400200012080000c2
:020000040000fa
:0400240012080000be
:020000040000fa
:0400280012080000ba
:020000040000fa
:04002c0012080000b6
:020000040000fa
:0400300012080000b2
:020000040000fa
:0400340022030000a3
:020000040000fa
:0400380012080000aa
:020000040000fa
:04003c0012080000a6
:020000040000fa
:0400400012080000a2
:020000040000fa
:04004400580300005d
:020000040000fa
:04004800120800009a
:020000040000fa
:04004c001208000096
:020000040000fa
:040050001208000092
:020000040000fa
:04005400620700003f
:020000040000fa
:04005800120800008a
:020000040000fa
:04005c001208000086
:020000040000fa
:040060001208000082
:020000040000fa
:04006400120800007e
:020000040000fa
:04006800de050000b1
:020000040000fa
:04006c001208000076
:020000040000fa
:040070001208000072
:020000040000fa
:04007400f402000092
:020000040000fa
:04007800120800006a
:020000040000fa
:04007c001208000066
:020000040000fa
:040080001208000062
:020000040000fa
:04008400120800005e
:020000040000fa
:04008800120800005a
:020000040000fa
:04008c001208000056
:020000040000fa
:040090001208000052
:020000040000fa
:04009400120800004e
:020000040000fa
:0400980068030000f9
:020000040000fa
:04009c001208000046
:020000040000fa
:0400a0001208000042
:020000040000fa
:0400a400120800003e
:020000040000fa
:0400a800120800003a
:020000040000fa
:0400ac001208000036
:020000040000fa
:0400b0001208000032
:020000040000fa
:0400b400120800002e
:020000040000fa
:0400b800120800002a
:020000040000fa
:0400bc001208000026
:020000040000fa
:0400c0001208000022
:020000040000fa
:0400c400120800001e
:020000040000fa
:0400c800120800001a
:020000040000fa
:0400cc001208000016
:020000040000fa
:0400d0001208000012
:020000040000fa
:0400d400120800000e
:020000040000fa
:0400d800120800000a
:020000040000fa
:0400dc001208000006
:020000040000fa
:0400e0001208000002
:020000040000fa
:0400e40012080000fe
:020000040000fa
:0400e80012080000fa
:020000040000fa
:0400ec0012080000f6
:020000040000fa
:0400f0008e0300007b
:020000040000fa
:0400f40012080000ee
:020000040000fa
:0400f80012080000ea
:020000040000fa
:0400fc0012080000e6
:020000040000fa
:0401000012080000e1
:020000040000fa
:0401040012080000dd
:020000040000fa
:0401080012080000d9
:020000040000fa
:04010c0012080000d5
:020000040000fa
:0401100012080000d1
:020000040000fa
:0401140012080000cd
:020000040000fa
:0401180012080000c9
:020000040000fa
:04011c0012080000c5
:020000040000fa
:0401200012080000c1
:020000040000fa
:0401240012080000bd
:020000040000fa
:0401280012080000b9
:020000040000fa
:04012c0012080000b5
:020000040000fa
:0401300012080000b1
:020000040000fa
:0401340012080000ad
:020000040000fa
:0401380012080000a9
:020000040000fa
:04013c0012080000a5
:020000040000fa
:0401400012080000a1
:020000040000fa
:04014400120800009d
:020000040000fa
:040148001208000099
:020000040000fa
:0402080012080000d8
:020000040000fa
:04020c0012080000d4
:020000040000fa
:0402100012080000d0
:020000040000fa
:0402140012080000cc
:020000040000fa
:0402180012080000c8
:020000040000fa
:04021c0012080000c4
:020000040000fa
:0402200012080000c0
:020000040000fa
:0402240012080000bc
:020000040000fa
:0402280012080000b8
:020000040000fa
:04022c0012080000b4
:020000040000fa
:0402300012080000b0
:020000040000fa
:0402340022030000a1
:020000040000fa
:0402380012080000a8
:020000040000fa
:04023c0012080000a4
:020000040000fa
:0402400012080000a0
:020000040000fa
:04024400580300005b
:020000040000fa
:040248001208000098
:020000040000fa
:04024c001208000094
:020000040000fa
:040250001208000090
:020000040000fa
:04025400620700003d
:020000040000fa
:040258001208000088
:020000040000fa
:04025c001208000084
:020000040000fa
:040260001208000080
:020000040000fa
:04026400120800007c
:020000040000fa
:04026800de050000af
:020000040000fa
:04026c001208000074
:020000040000fa
:040270001208000070
:020000040000fa
:04027400f402000090
:020000040000fa
:040278001208000068
:020000040000fa
:04027c001208000064
:020000040000fa
:040280001208000060
:020000040000fa
:04028400120800005c
:020000040000fa
:040288001208000058
:020000040000fa
:04028c001208000054
:020000040000fa
:040290001208000050
:020000040000fa
:04029400120800004c
:020000040000fa
:0402980068030000f7
:020000040000fa
:04029c001208000044
:020000040000fa
:0402a0001208000040
:020000040000fa
:0402a400120800003c
:020000040000fa
:0402a8001208000038
:020000040000fa
:0402ac001208000034
:020000040000fa
:0402b0001208000030
:020000040000fa
:0402b400120800002c
:020000040000fa
:0402b8001208000028
:020000040000fa
:0402bc001208000024
:020000040000fa
:0402c0001208000020
:020000040000fa
:0402c400120800001c
:020000040000fa
:0402c8001208000018
:020000040000fa
:0402cc001208000014
:020000040000fa
:0402d0001208000010
:020000040000fa
:0402d400120800000c
:020000040000fa
:0402d8001208000008
:020000040000fa
:0402dc001208000004
:020000040000fa
:0402e0001208000000
:020000040000fa
:0402e40012080000fc
:020000040000fa
:0402e80012080000f8
:020000040000fa
:0402ec0012080000f4
:020000040000fa
:0402f0008e03000079
:020000040000fa
:0402f40012080000ec
:020000040000fa
:0402f80012080000e8
:020000040000fa
:0402fc0012080000e4
:020000040000fa
:0403000012080000df
:020000040000fa
:0403040012080000db
:020000040000fa
:0403080012080000d7
:020000040000fa
:04030c0012080000d3
:020000040000fa
:0403100012080000cf
:020000040000fa
:0403140012080000cb
:020000040000fa
:0403180012080000c7
:020000040000fa
:04031c0012080000c3
:020000040000fa
:0403200012080000bf
:020000040000fa
:0403240012080000bb
:020000040000fa
:0403280012080000b7
:020000040000fa
:04032c0012080000b3
:020000040000fa
:0403300012080000af
:020000040000fa
:0403340012080000ab
:020000040000fa
:0403380012080000a7
:020000040000fa
:04033c0012080000a3
:020000040000fa
:04034000120800009f
:020000040000fa
:04034400120800009b
:020000040000fa
:040348001208000097
:020000040000fa
:100400000fc320000e7f22000e01880000000000b4
:10041000000020000000e000020032000001200087
:100420002002880014000700000307000000e0001d
:1004300003003a00003126000100200002003700ce
:100440000000200001002000810f70000100320038
:1004500014000700000020000000e000020032004d
:100460000000020000000000124e02000000000028
:100470000040da000000fe004440a9000095210081
:100480000000e0000300320000002000a00188000e
:100490004440a800000006008a1f78008b1f7800e7
:1004a0000000060091018800800478000000eb0045
:1004b0001a003700e284440032a0b4009905ba0063
:1004c000e284440032a0b4009906ba00e2844400f9
:1004d00032a0b4000006eb00476fde00fd07b2005b
:1004e000636ce10003003a00ebff07000000eb0043
:1004f0000a003700606ce10004003a00005deb0088
:100500008b05e900fdff3e00040037006168e10053
:10051000010032000086eb000b00070019c7ba008b
:100520001905ba000e04e00003003a000a00e000da
:10053000e0ff3a0000000600fe07b2009e018800be
:100540008a047800f5ff3700395dba008b05e900b1
:100550000c003200295dba008b05e900080032006a
:100560000c00e00003003a00e284440032a0b40032
:10057000f5ff370019ddba008b05e900faff3a00f4
:100580008904e800e184440032a0b40000000600c1
:10059000000000000000000000000000000000005b
:1005a000000000000000000000000000000000004b
:1005b000000000000000000000000000000000003b
:1005c000000000000000000000000000000000002b
:1005d000000000000000000000000000000000001b
:1005e00000000000000000003600f800809fbe0000
:1005f000829fbe00849fbe00869fbe000000fa005e
:1006000030048000680060000000e0000600320056
:10061000d04480000000e00002003200d04480009e
:10062000000001008660a9000080fa004f03be00b0
:100630004f02be004f01be004f00be003600f90061
:10064000004006003600f800809fbe00829fbe007a
:10065000849fbe00869fbe000000fa00f044800028
:100660000000e00002003200f044800000000100c1
:1006700090c22000104078008040e80090c2200026
:100680000148780080c2200011c0b3000148780002
:100690008460a9000080fa004f03be004f02be0034
:1006a0004f01be004f00be003600f90000400600ba
:1006b000801f78000000fa0010c0b30079e8b7008e
:1006c00084e0a9000080fa004f0078000040060096
:1006d0003600f800809fbe00829fbe00849fbe004f
:1006e000869fbe000000fa0010c0b30078e8b70093
:1006f000ae2f07006000b8007d2f07008780a9009b
:100700000080fa004f03be004f02be004f01be0042
:100710004f00be003600f900004006003600f80029
:10072000809fbe00829fbe00849fbe00869fbe0049
:100730000000fa008a40a900c110800000082000d3
:10074000008060000000e0000800320018e2a9000c
:100750004828ef0070428000200090008000eb00ed
:10076000010878004e28ef000d013700404280005c
:100770008000eb00b200200003002000820f500038
:10078000838f5800fc003e00006001000b00370022
:1007900039003700750037009c003700f300370040
:1007a000c8003700d9003700f0003700db00370001
:1007b000f10037003400370050003700008420007b
:1007c00020009000620060000000e000f3003a00aa
:1007d00000842000100090007042880000842000f7
:1007e00010009000104078004ae8b7000084200014
:1007f00010009000100090006042880000842000eb
:1008000010009000e60040000084200011009800d5
:10081000008420009000900000bc2000808f5000d9
:1008200003003a000084200081ba200011009800e3
:1008300000842000a00090000100a1002100980089
:1008400000842000900090000084200010007800b8
:10085000808f500004003a0000842000a000900027
:100860000110a000210098001602a800200020001e
:1008700040428800ca0037001622a800200020004d
:1008800040428800c6003700c110800000002800e8
:10089000008060000000e0000800320000842000ba
:1008a000604090008040e800008420006140980093
:1008b00040002000572b0700b9003700804280001d
:1008c0008000d100f00f20000080600090108800b0
:1008d0008042800061006000004078000004e00079
:1008e00003003200b000200040428800ac00370016
:1008f0003000200040428800a9003700c11080006d
:1009000000002800008060000000e00008003200c5
:1009100000842000604090008040e80000842000b7
:1009200061409800400020003a2b07009c003700ef
:100930001622a800804280004800de00e600600029
:10094000000f20000100700080428800804280007b
:100950000000a0008042880010c0b30052e8b70039
:1009600020002000404288008d00370052c8bf00a0
:10097000e14f50000a003200604280001000780011
:10098000804288006042800020009000a0428800e1
:10099000604280002040900056e8b7000100370018
:1009a0005268ef0081428000f00f2000808f5000dd
:1009b00009003600804280004800de00e60060004a
:1009c000000f20000100700090108800a00020009f
:1009d00040428800720037008042800090108800fa
:1009e0008042800061006000004078000004e00068
:1009f00003003200500020004042880068003700a9
:100a0000300020004042880065003700c11080009f
:100a100000002800008060000000e00009003200b3
:100a200000842000604090008040e80000842000a6
:100a30006140980019e2a90050002000f52a070043
:100a40005700370056c8bf008080fb008100e900d6
:100a5000cf08de00814078000040e90056e8b7008a
:100a60000104e00010003200604280006600400097
:100a7000604288004ac8bf000040e9004ae8b70069
:100a80004ac8bf000004e00003003a002000200034
:100a9000e02a0700420037001622a80020002000ac
:100aa000404288003e003700a0428000904078001d
:100ab0008180fb00911088000000e800a0428800bf
:100ac00037003700c110800000002800008060005f
:100ad0000000e00009003200008420006040900027
:100ae0008040e80000842000614098004000200021
:100af000c82a070019e2a900290037001662a800d9
:100b0000800020004042880025003700800020003f
:100b1000404288001662a80021003700a0428000f1
:100b20008110800081407800014878000000e800d2
:100b3000a042880056c8bf000040e90056e8b70050
:100b400056c8bf000004e0000400320016a2a9004d
:100b500060002000404288000200370016a2a80072
:100b60009b2a07001682a8000d00370020002000f5
:100b7000a82a07000a003700008420006040900087
:100b80008040e80000842000614098006000200060
:100b9000a02a07000000000001003700000000004c
:100ba0000080fa004f03be004f02be004f01be009e
:100bb0004f00be003600f900004006003600f80085
:100bc000809fbe00829fbe00849fbe00869fbe00a5
:100bd0000200fa00c0428000e20f5000880032009c
:100be000e20f500003003900e30f5000770032009d
:100bf0009500370031108000004020000080600028
:100c00000000e00005003a004110800000022000d2
:100c1000008060000000e0000a0032003110800017
:100c200000082000008060000000e0002400320086
:100c30004110800000202000008060000000e000e3
:100c40001f00320040108000640060000000e000df
:100c50000c003a0010002000092c0700d042800050
:100c60000000e00004003200d0428000011080004b
:100c7000814078000148780010002000c0428800c0
:100c80003600370000108000004f78000000eb00b5
:100c9000fb2b0700e04280000000e000050032006e
:100ca000e0428000104078000080fb0010108800b7
:100cb0000782a80020002000c042880027003700db
:100cc0003110800000402000008060000000e00043
:100cd00022003200411080000002200000806000ed
:100ce0000000e0001d003a00401080006400600039
:100cf0000000e00004003a006e68ef0030002000c1
:100d0000c0428800130037006ec8bf000004e00036
:100d10000d0032000000eb00d92b0700e0428000fc
:100d20000000e00005003200e04280001040780042
:100d30000080fb00101088000782a800200020001f
:100d4000c0428800030037006e68ef0030002000ca
:100d5000c042880000108000004f7800c042800030
:100d6000e10f500039003a004110800000022000dd
:100d7000008060000000e00036003200411080007a
:100d800000042000008060000000e0000b003a003a
:100d9000d04280000000e00004003200d042800019
:100da0000110800081407800014878002000200078
:100db000b32b070094e8b70029003700001080002b
:100dc000004f780008c2a90025003700300020003d
:100dd000ab2b070094e8b70010c0b3006ee8b70073
:100de00094c8bf000004e000020032000010800040
:100df000004f780010002000c04288001800370023
:100e00004110800000002800008060000000e00029
:100e10000b003a000000eb00992b0700e042800035
:100e20000000e0000d003200e04280001040780039
:100e30000080fb00101088000782a800080037001f
:100e40005828ef0006003700ffff370000000000c1
:100e50000300370000000000010037000000000020
:100e60008600a90040108000700060000000e000d3
:100e700004003a0040108000680060000000e000bc
:100e80000900320068c8bf000004e000060032001c
:100e90008186200091407800204380000040780047
:100ea0004f2e07006868ef000080fa004f03be0075
:100eb0004f02be004f01be004f00be003600f900d9
:100ec000004006003600f800809fbe00829fbe00f2
:100ed000849fbe00869fbe000600fa008560a900c0
:100ee0004000370030118000404798003cc8bf00e8
:100ef0000004e0000d003a004e409000e94f500021
:100f00000a0032003dc8bf000004a2000004e00057
:100f1000310032004e419000e18320008248780089
:100f200010c0b3003de8b7002e0037003cc8bf003a
:100f30000040e8003ce8b7003cc8bf00ea4f500062
:100f4000270036003c68ef0090c0b300e21f0700a6
:100f50000040eb00004f7800030037000040eb003a
:100f6000dd1f07001e4fe8001e407800e94f5000cb
:100f7000faff360010c0b300d71f07000000eb00d7
:100f80001007980007003700000a20000100200029
:100f9000e33007000060fe001e0090000000e80043
:100fa000100798000c2f07000004a2000004e000c6
:100fb000040032009e009000f0702200808f5000ec
:100fc000f1ff360000d0270001002000d4300700d8
:100fd0000000fe00030037000000000001003700a1
:100fe0000000000010118000610060000000e000bf
:100ff000bcff3a0010118000620060000000e000b9
:10100000010032002222a9000080fa004f03be0036
:101010004f02be004f01be004f00be003600f90077
:10102000004006000040da000000fe00000005005d
:10103000839f68000100e00002003d006000100096
:10104000e08018000300e00002003d006001110094
:10105000e0811900170007004f00e00002003b008c
:1010600060001000e0801800000006004f89de00dc
:101070008201780012023700811f78000100e00031
:1010800002003d0060001000e08018000300e00056
:1010900002003d0060011100e08119001500070009
:1010a0004f00e00002003b0060001000e0801800ec
:1010b000000006006022b800060220000000d000f8
:1010c0008180d2000482d2008582d2000000a0007c
:1010d0000202520083825a000300310002024200e1
:1010e00083824a000000a1000603e900f3ff3a00f2
:1010f00000000600efff07000400be00000006002d
:1011000007f82700078361000638e10004003a0071
:10111000f7072000878361008703710001003a0010
:1011200003f0a200889fbe008a9fbe008c9fbe0075
:10113000470ade000480a100c71ade000580a10076
:10114000070028000785600087856100f70f2000f1
:101150000720e1009e0032000728e1009c003200d9
:10116000010678000400e000b4003200f707200018
:10117000878060000170a0000500e000c000320020
:10118000f7072000878161000370a0000506520068
:101190000f003a000b50e1000b0032000308e100a1
:1011a00002003a000200e1007e003200020450001a
:1011b00083845800040031000001fd008101fd001e
:1011c0008402fd008a05fd006044b800210037005c
:1011d0000520e10005003d000001fd008101fd004a
:1011e0008402fd008a05fd00050652007a60e100d8
:1011f000050035000170a1004722dd0084807000e9
:101200008a807000630037006044b800ef02660017
:1012100007ff2f00070666000500e0000600340007
:10122000f08312008714dd000511de00071bdd00ce
:10123000060171008519de007060e10005003500cf
:101240000904780082047800030178008001eb0033
:10125000700656000b50e10003003a000200400007
:10126000838048000400370060041400e0841c0000
:1012700002005800838058000188a3000600320055
:101280008100d1000080d3008984d3000884d3007a
:101290000402e800270037000178a30025003a0087
:1012a0000100e000030032008186cf00698656000d
:1012b0000a0037008c0020000000e00004003a0023
:1012c00009007800880478000004eb0070025200e6
:1012d0008086cf000d0646000c06e9007060e10034
:1012e0000600350080007800090078008804780046
:1012f0000004eb0070065600700252000c00e00083
:101300000c0034008c08dd00f00316000703de003b
:10131000868070000c00dd00074bde0006007000c8
:101320008c4cdd000743de00868474000c44dd0035
:101330000c0252006120e1002000350061016000d4
:101340000700280087816400f7ff27008783640077
:10135000070374000300e0000600320082037300fc
:10136000040032000000e800e08048000188a3008b
:101370000e003a00f70f20000720e1004a003d0070
:101380000170a1004722dd00810072008a80700098
:101390000000be004f06be004f05be004f04be0059
:1013a000000006006000b800faff37008100d1009d
:1013b0000080d3000402e800eeff3700040178004b
:1013c00089017400c20007008a807000f1ff3700b5
:1013d00018010700070278000001fd008101fd00ef
:1013e0001401070087027800850372000778a300c4
:1013f000040032000001fd008101fd00270107000b
:10140000e4ff3700850362000768a300080032008c
:101410000b50e10003003200f0ff2f00f1ff270026
:10142000dcff37000001fd008101fd00d9ff37001e
:101430000468a300d7ff3200faff3700f8ff270047
:10144000888360000b003a000000e00009003a00c9
:101450008303640082837300020032000200be0036
:10146000ccff37000b50e100ceff3a000200be0077
:10147000c8ff370014002000810064003eff3700e1
:10148000f8ff27008883610004003a000200e000b2
:1014900002003a008c007800beff370015002000e3
:1014a0008301640039ff370001f8270000002000a5
:1014b00081007500b7ff370003836800070028002c
:1014c00007036300470ade000480a100c71ade009c
:1014d0000580a100f70f20000720e1004200320044
:1014e0000728e10040003200889fbe008a9fbe00ae
:1014f0008c1f7800f107b200f307b2000400e0008f
:10150000640032000170a0000500e00068003200b5
:101510000370a00085054200eb07b1000204b8008b
:101520000302b8008484440060854a00020ab800bf
:10153000848444000a854a00030ab8000405450073
:10154000040033000804d0008984d2000a85d20048
:101550008b05e9006158e1003d00350002102000d4
:10156000090161000308200089816100f70720005c
:101570008783640008867300c84cde00c853dd0012
:10158000878474004855de000300e0000600320046
:1015900082037600040032008904e80060054d00f3
:1015a0000a88a3000c003a00f70f20000758e1005a
:1015b00044003d000a70a100c75ddd000a8575008a
:1015c0008a007300090078004f0678004f05be00be
:1015d0004f04be00000006000a05d1008984d30034
:1015e0008b05e800f0ff3700881f780006047800bc
:1015f00090000700070278000001fd008101fd0056
:101600008c00070087027800850372000778a3002a
:10161000050032000001fd008101fd009f00070070
:101620004f04780000000600850372000748a300fd
:1016300003003200f0ff2f00f1ff2700f8ff370012
:101640000000200001f8270088807000f4ff3700b8
:10165000880178004848dd00808171004848de003c
:10166000c850dd0001007000c850de00060478009c
:101670000b0178001600070088807000d2ff370049
:101680000500e00005003200170020003a000700c6
:101690009dff370081037000f9ff3a008600780053
:1016a0004f0678004f05be004f04be000000050045
:1016b00083037100f9ff3200270020002e0007008d
:1016c00094ff370001f8270086807000f4ff370090
:1016d0000100e00026003200610111007810e100f5
:1016e00023003c006022b8007010e10004003500c7
:1016f00080027800010078008000eb00700151004a
:101700000200e0000900340070031100062add0029
:10171000822ade008603dd00878272000200de007e
:10172000860bdd00070070008208de0084817100f6
:10173000f4ff270004826200848171000400280005
:10174000848262006102600005f0a60000000600cd
:1017500004827100070032000000e800e0804800c9
:10176000000006000002be006000b800efff370076
:101770006000b80000000600889fbe000004eb0077
:101780006138e10016003a000100e00008003a006c
:10179000c800de004800dd00880020000100e000f5
:1017a00003003a00c800de004800dd006804440081
:1017b0008184cf00e9845400060034008908dd00ec
:1017c000f08314008703de00878070000900dd00cd
:1017d00009044400610214004f04be00000006002a
:1017e0000300e00008003a00c811de004811dd00e7
:1017f000880020000300e00003003a00c811de006a
:101800004811dd00680444008384cf00e98454005b
:10181000060034008919dd00f08314008713de0010
:10182000878171000911dd0009044400e102140000
:10183000e9ff37002700200001f0a7001700200073
:10184000470bde00f60fb200040032000643e8004a
:101850000a0032004702b3000000060001037800ce
:10186000f607b2000603700002003a000703b30057
:10187000000006008702b3000000060001037800a4
:10188000f607b20006037000020032000770a000e5
:10189000000006000760a000000006000478a30016
:1018a000040032000578a300030032000168a300a1
:1018b00001003a000200be000160a0000000060026
:1018c000881f7800030478000300e00007003d0053
:1018d00060001000e080180060011900e08119002c
:1018e00002003b0001f02d00030037000400070058
:1018f00008f0a70001f0a0004f04780000000600e7
:10190000889fbe008a9fbe000082700004027100a2
:1019100004827100260032000004be000200be00f6
:101920006011b8006b092000950220000182cf00f1
:101930000a0039000541b1000082cf0007003900dc
:101940000541b1000982cf00040039000541b10012
:101950000882cf00010039000541b1000542520064
:10196000120032000a003b008281710061016400b4
:101970008100d1000080d3008984d3000884d30083
:101980008b05e8000442e800f7ff3a000700370043
:101990000804440089844c0000004800818048000d
:1019a0008b05e9000442e900f9ff3a000300070053
:1019b0004f05be004f04be0000000600810020005d
:1019c000618055000b003d000b00200061fe2f00e0
:1019d0000100e1001d00340082817100610164009a
:1019e0008904d1000884d3000000e800faff3a001f
:1019f00071002000610064000300700002006000bc
:101a00000900320061044400e0844c000988a5000c
:101a1000050032008b05e8006808e10002003a008a
:101a20008904d1000884d300f20f20000258e1009d
:101a300005003d00c75ddd00f907b2008980750033
:101a400008007800000006000bf827008b007800e3
:101a500000000500000006000800fa00889fbe0094
:101a60008a9fbe008c9fbe000004be000200be0024
:101a7000e2b79f00f3b79f00f6ff070081027800ee
:101a800005f0a100000278000c0020000df82700ee
:101a90006fb19700ffb197008c0f52008d8f5a00e5
:101aa0000a003e000800be00eaff0700810278003d
:101ab00005f0a100000278006fb19700ffb1970018
:101ac0008c0f52008d8f5a00030036000800be00b4
:101ad00094fd0700980037000203be0000002000bc
:101ae00001f82300800f5300818f5b0003003a0050
:101af0000800be00980007008f0037000802be00f3
:101b00004e3dde000b0020006000b8006200650062
:101b10004f4dde000b0020000a0570008b85700021
:101b20008500780001f0a10008007800e00f500067
:101b3000e08f580007003a00e20f5500e08f5d008b
:101b400033003200e30f5500e08f5d007b003a0068
:101b5000320037008702780005f0a1000602780005
:101b6000e00f5200e08f5a003b0032008c0f520011
:101b70008d8f5a002c003a00840f5000858f58003a
:101b800018003a00e20f5500e08f5d0009003200b6
:101b9000e30f5500e08f5d0009003200e10f5500b2
:101ba000e08f5d005b003200b8fd200099f4230057
:101bb0006200370002002000030424000200370006
:101bc0000200200003042c00b0fd2000910424003a
:101bd00039fe07000200200003e8230036fe07005c
:101be00055003700e20f5500e08f5d00080032001d
:101bf000e30f5500e08f5d00080032006044b8003c
:101c0000e10f5500e08f5d004c003a0044003700c2
:101c1000b8fd20009904240048003700b8fd2000da
:101c200099042c00450037000600200007d0200052
:101c30000403430085834b0086bf9f0097bf9f002e
:101c4000800f5300818f5b00030039008c0f500020
:101c50008d8f580005003a000a08a30033003200b7
:101c6000b8fd200099fc2b00340037006033b80029
:101c700062036500e00f5300e08f5b000800320054
:101c80000c0020000dd020000003460081834e0090
:101c90006000b800840f5300858f5b00040039009a
:101ca0000800be009d020700010107002a0007008e
:101cb000e10f5500e08f5d00050032001e00390085
:101cc000e20f5500e08f5d000b003a000300370083
:101cd0000004be0009f0a20018003700e2d22b0079
:101ce000b33b23000ffd07000001be00b0fd200044
:101cf0009104240005003700e2d22b00b33b2300ff
:101d000008fd0700b2fd200093042400fcfc07003e
:101d100009003700b8fd200099f42b0007003700b8
:101d2000080020000900280004003700b8fd20004a
:101d300099fc2300010037000004be000800be002b
:101d40004f06be004f05be004f04be000080fa00e3
:101d500000000600000006000c00fa00889fbe008c
:101d60008a9fbe008c9fbe000004be004f09de00ab
:101d700003002000e2b79f00f3b79f0081067800c0
:101d80000df0a10000067800f0ff2f00f1c724003d
:101d9000800f5600818f5e00100036000800be00e4
:101da000ecff07008101780003f0a100000178003a
:101db0000000200001f82700800f5100818f59009a
:101dc000b5003e000200200003382000a0fd2000e6
:101dd00091fc2300d3fc0700a6003700f0ff2f0082
:101de000f1ed2300800f5600818f5e0011003e0050
:101df0000085eb00f0ff2f00f1972300800f5600c5
:101e0000818f5e0055003e00f0ff2f00f10720009b
:101e1000800f5600818f5e009f003e000801be00cb
:101e20000800be00a4fd0700c0b79f00d1b79f0007
:101e3000990037000800be009d0007000004be00a6
:101e4000f0ff2f0071f92300800f5600818f5e0094
:101e500025003e00f0ff2f00f1f22300800f560016
:101e6000818f5e0011003e000801be000800be0028
:101e7000acfc07000200200003f82300a0fc0700d0
:101e80000005be0002002000030024000800be0080
:101e9000a4fc07000001be000a00be001f020700ec
:101ea0000004be000005eb002c00370002002000fb
:101eb00003f823000800be0091fc07000005be00e7
:101ec0000200200003f823000800be0095fc070074
:101ed0000001be000a00be00100207000004be00a0
:101ee0001a0020001d003700f0ff2f00b101240070
:101ef000800f5600818f5e0012003e00020020001d
:101f000003fc23000800be007dfc07000005be00a6
:101f10000200200003fc23000800be0066fd07004d
:101f20000200200003f823007efc07000001be0031
:101f30000a00be00f90107000004be002a002000cc
:101f4000060037000801be000000200001f82b0049
:101f5000f20107000004be003a0020000801be00a4
:101f60000800be0054fd07000002be000001be00d4
:101f700084bf9f0095bf9f004ffd07000006be0075
:101f800052c22a00c3d723004bfd0700d2502f00b6
:101f900013e1230063fc07000001be000c00be003b
:101fa00045fd070092aa2a00a3ea23005dfc070072
:101fb0000001be000fba97009fba97000400be0050
:101fc0003dfd07000002be0072242100a3dd2b00ae
:101fd0000c00be0084bf9f0095bf9f0036fd070028
:101fe00082a92c00c3e4230045fc07000001be00c9
:101ff0000c00be0030fd07000001be000fba9700c4
:102000009fba9700e10f450009003a000400be00a6
:1020100044fc07000001be000800be0026fd0700ca
:102020000001be000800be0035fc070019003700a3
:102030004255dd00ccbe20000a0646000400be006a
:1020400038fc07000001be000800be001afd0700b2
:10205000c2bf20000a0541001a01be0028fc07008b
:102060000801be0026fc07000001be001c00be00e7
:1020700023fc07006fb19700ffb19700e00f5100fc
:10208000e08f5900030032000004be0009f0a200f6
:10209000010037000004be000800be004f06be006d
:1020a0004f05be004f04be000080fa00000006008d
:1020b0000001be008300780001f0a100020078005a
:1020c0000000060001000700580137000400fa0074
:1020d000889fbe008a9fbe008c9fbe000004be0089
:1020e0004708de00f00fb20051092000810f5000b8
:1020f00041003c000806be00e00f5400e08f5c0089
:1021000003003d000805be000bf0a20001003700ef
:102110000805be00d1072000810f50000a003c00d6
:102120000200200003b024000a00be00fdfb0700ef
:1021300080bf9f0091bf9f006011b8000800be00e3
:10214000ddfc07002b0037000200200003b0240054
:102150000a00be00f3fb07000200200003b02400c9
:10216000e7fb07000a01be00e5fb07000004be0014
:102170000200200003f023002a0107000000e00015
:10218000070034000a01be000800be00e5fb07009e
:102190000200200003f82300d9fb07000f003700de
:1021a0000200200003f02b000800be001b01070006
:1021b0000000e00006003c000a01be000800be006e
:1021c000d8fb07000200200003f8230002003700bc
:1021d0000a01be000800be00d2fb0700e00f560057
:1021e000e08f5e0003003d000004be0009f0a20085
:1021f000010037000004be000800be004f06be000c
:102200004f05be004f04be000080fa00000006002b
:10221000889fbe008a9fbe008c9fbe000004be0047
:102220000400200005f8270085836000040378007f
:10223000840f5300858f5b0007003a000801be0041
:102240000800be009cfc07000001be000800be00a4
:10225000b4fb070010003700e00f5000e08f58007b
:102260000f003c008101780003f0a100000178001c
:10227000e00f5100e08f59006a0032001002200088
:10228000706188000801be000800be009cfb0700ca
:102290000001be00210107000004be0061003700fc
:1022a000478cde00cf8cde00e00f5400e08f5c0036
:1022b0000f003a006044b8000400370000004000fe
:1022c0008180480061044400e0844c000400200048
:1022d000050820008181620004017800e00f5100b0
:1022e000e08f5900f5ff320061041400e0841c0007
:1022f000f807b1000980b10081017800f307b2004e
:10230000000178000200be000170a0000808a300d0
:102310000200320000004000818048008984d10022
:102320000884d30000004000818048009401200010
:1023300002002000031020006055b8006066b8005d
:102340000c0341008d834900800f5300818f5b0097
:1023500006003c0006064100878649000600500042
:10236000878058000a0541008b8549000000400025
:10237000818048008301d1000281d3000402e9007a
:10238000efff3a00e00f5000e08f58001b003200d2
:102390000226240023da20000000200001f8230098
:1023a00057fb07000200200003f823009d000700f0
:1023b0000000e000110035000226240023da20008e
:1023c0000000200001f8230056fb07000200200057
:1023d00003f82300930007000000e000030034002e
:1023e00062054500e0854d00040037006000b8003c
:1023f000610065000005450081854d00c744dd0092
:10240000080020000000200001f023000804400024
:10241000898448008b85d1000a85d30008044500d3
:1024200089844d000800be004f06be004f05be0067
:102430004f04be0000000600010037000201e90061
:102440000200e0000500320030427800b14178001f
:10245000834f5200f9ff32000100370000000500f1
:102460000480fb008381fb00030050000000060095
:102470008001780002003700b15978000201e900bc
:102480000200e000fcff3a0000000600889fbe004a
:102490008a9fbe00800478000200e0005b003200ea
:1024a00001407800814c780082814400f1f99f005e
:1024b000e20f51005500360091449800a144980065
:1024c000e1f99f00d1f99f00e60f51004f0036005f
:1024d000b1449800c1f99f00e80f51004b0036004d
:1024e0000905ea00630565000a8444000a055100f5
:1024f000c1ff2f00010565000080fb008000eb009c
:1025000012102000131020007e000700008cbe0077
:102510000a01440060b99f0071b99f00e80f55009f
:102520003a003600200498003104980040049800d6
:102530005104980020b99f0031b99f0040b99f0015
:1025400051b99f00f80f5500300036006004980024
:1025500071049800000c9800110c9800200c980051
:10256000310c9800400c9800510c980020b19f004d
:1025700031b19f0040b19f0051b19f0060b19f00f9
:1025800071b19f0000b99f0011b99f006401640000
:102590007801410002044400020555006011b800b2
:1025a0000203be000002be000403be006022b800a9
:1025b0000000720081807200020173008381730049
:1025c00010003700009cbe000294be00400498003a
:1025d000510498006204980073049800000c98005d
:1025e000110c9800220c9800330c9800400c9800b5
:1025f000510c9800620c9800730c98000a02b1000c
:102600000802b000ff0f5500eeff3e000900780001
:102610004f05be004f04be0000000600140020005d
:10262000a3013700f4ff2f00a10137000001be0015
:102630001f0007000470a70003f0a1006509b100a6
:10264000160032000d0035006828e1000600350054
:10265000f0ff2f00f1ff27000300e00013003b0014
:1026600001002800000005000000400081804800b3
:102670008502e900fcff3a0008003700f88f4200ad
:1026800002003c008000eb00000005008100d1004a
:102690000080d3008502e800fcff3a000300e00060
:1026a00002003b0060001000e080180000000600ff
:1026b000c70ade00f107b200f50fb20008003200d1
:1026c000e1cf4200020032000170a00024000500aa
:1026d000810f70000100320004080500440005006d
:1026e000810f700002003a00140005008502e90025
:1026f0000000400081c04800fcff3b000170a000ca
:1027000024000500020ab900001bb9000200b8004d
:10271000810042008100430000000600889fbe0047
:102720008a9fbe008c9fbe001b0020000202be00dc
:102730000586680006002800060666004709de00d8
:10274000f20fb200820032000243e8008000320043
:10275000c729de00f30fb2007d0032000343e8001a
:102760007b003200f107b2000170a000f507b20053
:102770000570a000c708dd004903de0086807000f8
:102780004700dd00c72add004923de008682720093
:102790004722dd00030551000403500085835800e3
:1027a0000300310000004000818048000a05e90074
:1027b0008c1f78008a9fbe0004005000858058005e
:1027c0000402420085824a000000400081804800e7
:1027d0000005eb000004be006033b8000406be0034
:1027e0000d48e10056003100110009004dccd80021
:1027f0000c01b8000d02b8008481410060824a00db
:102800008283530003045c0084845c0060055d00e7
:102810000a00e00025003a00800578000d40e10044
:102820004900310088007800070078001100090095
:102830004d88d8000c01b8000d02b8008481410019
:1028400060824a006003110083835b0004045c0023
:10285000e0845c000900e00021003a004f01be0066
:102860000300e0002b003200e30160000706730064
:102870008c81710001003200640070004200de00b3
:102880004e5edd000c007000c258de0001e0a000ca
:1028900081000700cf017800818071004f06be00e3
:1028a0004f05be004f04be00000006008c834300ad
:1028b0000d044c00e0844c0060054d000000e90070
:1028c0000a00e000d4ff32008c8343000d044c006a
:1028d000e0844c0060054d000000e900ceff3700a9
:1028e0000c0343008d834b0060044c00e0844c00db
:1028f0000000e9000900e000d8ff32000c034300ab
:102900008d834b0060044c00e0844c000000e90023
:10291000d2ff37004200de004e5edd000c0070008a
:10292000c258de0001e0a000cf0178000300e00003
:10293000daff320060001000e0801800d7ff370097
:10294000f0ff2f00aaff3700f0ff2f00b9ff37007c
:102950000404be00b7fb0700870678000004fd00f2
:102960008104fd00b3fb0700078366000678a3001f
:10297000030032000960a7000800be002c003700e9
:102980000d78a300020032000800be0028003700c6
:102990000778a30026003a0001f0a10009f0a10089
:1029a0000668a30003003200f1ff2700f0ff2f00ac
:1029b000baff37000d68a300030032000800be0014
:1029c0008c807000b5ff37000768a30007003a004d
:1029d0000648a30003003200f1ff2700f0ff2f009c
:1029e000aeff37000d48a300030032006000b800be
:1029f0008c807000a9ff37000748a3000400320054
:102a000001f82700000020008c807000a3ff370031
:102a1000740007000004fd008104fd000205780039
:102a2000700007000802be008a01780059ff3700d5
:102a30000160a000120220003245880097ff370095
:102a40000100e000120032000500e000100032003a
:102a5000889fbe008a9fbe008c9fbe000006eb00d0
:102a600001f8a3000300320060001000e0801800ad
:102a70000cf0a00005f8a300030032006002120071
:102a8000e0821a000cf0a2008005eb0041ff370045
:102a90006000b800020005008101700027003200cc
:102aa0008002eb0001f8a300030032006000100078
:102ab000e080180015002000f40720000202420008
:102ac00020003400f7032000870360000604200084
:102ad0000003630002082000000161004700de00df
:102ae000c909dd0000807100c708de000600e000b3
:102af0000800320087037100060032001000b000a9
:102b00000180b0000188a30002003200c108de008d
:102b10000402e800f107b200f30f20000320e100f7
:102b200003003d004722dd008100720029003700cc
:102b300001f827000000eb00260037006000b80015
:102b400000000600680212007f20e100020034004d
:102b50006000b8001f0037006011b8007020e1006d
:102b60000400350080017800010078008000eb004f
:102b7000700252000400e00009003400f00312006b
:102b80000719dd008419de000703dd00868171006e
:102b90000400de00070bdd00060070008408de0084
:102ba000f7ff270083836300870371000600280076
:102bb00003036300070032000700e00003003a004f
:102bc0006101600002817300020032001000b00059
:102bd0000180b0000500a6000000060001f0a00082
:102be000000006004f0ade004709de00f107b200d0
:102bf000f20fb2000b003200f207b1000170a0002a
:102c0000c708dd00c901de00838070004700dd00d9
:102c10000400a6000000060060001000e08018001c
:102c200000000600810f700001003a00000006005d
:102c30008182cf000500e00010003e008082cf00be
:102c4000ee8242007028e1000400390007003e00d7
:102c5000800078000000eb000e0037007083120047
:102c60008600de000500dd000a0037007083520098
:102c70008600dd000000eb0006003700e282520013
:102c80008508dd00708312000603de008680700078
:102c90000500dd007507b0000501ea000400a6008c
:102ca0000000060060001000e08018000000060030
:102cb000889fbe008a9fbe00841f7800170007000f
:102cc0004f00780011003300f0ff2f00838f6c005d
:102cd00006003b00040565000a00a7000800370055
:102ce00009f0a6001000200008003700820f5400f1
:102cf000838f5c00030039001000200001003e00bb
:102d00000000200009f0a7000000ea004f05be0007
:102d10004f04be000000e000000006000004be00fa
:102d200063fe07000003be000405be000200be00f3
:0c2d30005ffe0700844f750000000600e5
:020000040000fa
:102d3c000d0a0000000d00000a2a00002a2a0000db
:102d4c00204c000065760000656c000020740000cb
:102d5c0065730000742000002a2a00002a0d000070
:102d6c000a000000202000002a2a00002061000038
:102d7c0063630000656c0000657200006f6d0000fd
:102d8c006574000065720000206400006964000036
:102d9c00206e00006f740000206900006e69000056
:102dac0074690000616c000069730000652000000c
:102dbc002d20000063680000656300006b2000009c
:102dcc004932000043320000206100006e640000b4
:102ddc0020740000686500000d0a0000202000002f
:102dec00202000002064000065760000696300006c
:102dfc0065200000616400006472000065730000cf
:102e0c007320000028740000686900007320000023
:102e1c0062750000696c000064200000757300008e
:102e2c0065730000204c0000495300005f41000016
:102e3c0044440000525f0000312c000020300000a0
:102e4c007831000039290000202a00002a0d0000ea
:102e5c000a000000202000004869000074200000d7
:102e6c00456e00007465000072200000746f000055
:102e7c002072000065740000757200006e20000066
:102e8c00746f00002074000068650000206d000065
:102e9c00656e0000752e00000d0a00000020000079
:102eac002052000061770000206300006f75000065
:102ebc006e74000073200000616e0000642000003e
:102ecc0064650000726900007665000064200000f3
:102edc00616e0000676c0000657300002c20000020
:102eec006f6e00006365000020610000207300001d
:102efc00656300006f6e0000642e00000d0a000078
:102f0c002020000043200000746f0000207a000095
:102f1c00657200006f2c0000204500006e740000ec
:102f2c0065720000207400006f20000072650000c4
:102f3c0074750000726e0000207400006f20000099
:102f4c0074680000652000006d6500006e7500005f
:102f5c002e0d00000a0d00000a00000020200000c9
:102f6c00583d000000200000205900003d000000ea
:102f7c00202000005a3d000000200000202000000e
:102f8c007069000074630000683d000000200000c0
:102f9c00207200006f6c00006c3d000000200000ef
:102fac0064650000670d00000a0000000d0a0000b7
:102fbc00202000007a650000726f0000656400003c
:102fcc000d0a00000d0a0000000d00000a2a000086
:102fdc002a2a0000206c000065760000656c000059
:102fec002074000065730000742000006669000006
:102ffc006e6900007368000065640000202a000000
:10300c002a2a00000d0a0000000d00000a2a000008
:10301c002a2a0000204d0000616e0000756100003e
:10302c006c20000062650000616d000020620000f1
:10303c0072650000616b0000207400006573000075
:10304c00742000002a2a00002a0d00000a2000002b
:10305c002042000072650000616b000020650000da
:10306c00616300006820000062650000616d000073
:10307c00206900006e20000074750000726e000064
:10308c00202d00002074000068650000206d0000f9
:10309c006174000063680000696e00006720000026
:1030ac006c61000073650000722000007368000002
:1030bc006f7500006c640000206c000069670000f4
:1030cc00687400002e0d00000a200000204800004b
:1030dc0069740000204500006e74000065720000e9
:1030ec00207400006f2000007265000074750000f1
:1030fc00726e0000207400006f20000074680000e5
:10310c00652000006d6500006e7500002e0d00003e
:10311c000a0d00000a0000002020000046520000aa
:10312c004f4e00005420000062650000616d0000ed
:10313c0020620000726f00006b6500006e0d0000d5
:10314c000a00000020200000465200004f4e0000f4
:10315c005420000062650000616d000020630000d7
:10316c006c650000617200000d0a00000020000078
:10317c002052000045410000522000002062000057
:10318c00656100006d200000627200006f6b000032
:10319c00656e00000d0a00000020000020520000a7
:1031ac0045410000522000002062000065610000d3
:1031bc006d200000636c000065610000720d000062
:1031cc000a0000000d0a00002a2a00002a20000034
:1031dc0062650000616d00002062000072650000f5
:1031ec00616b000020740000657300007420000007
:1031fc00666900006e690000736800006564000079
:10320c00202a00002a2a00000d0a0000000d0000f0
:10321c000a2a00002a2a000020450000563200002d
:10322c003430000030200000706100007373000027
:10323c0069760000652000006d6f00006465000079
:10324c00202a00002a2a00000d0a0000202000007d
:10325c00526500006c65000061730000696e00002f
:10326c006720000074680000652000006c6f00008f
:10327c00636100006c200000534d0000427500009b
:10328c0073200000746f000020740000686500005b
:10329c00204500005632000034300000302e000073
:1032ac000d0a000020200000576900007265000024
:1032bc0020530000434c00002c200000534400001d
:1032cc0041200000616e000064200000474e0000a9
:1032dc00442000006f6e00006c790000202d00006f
:1032ec00206c000065610000766500002045000040
:1032fc0056320000343000003020000056430000ed
:10330c004320000064690000736300006f6e0000ce
:10331c006e65000063740000656400002c0d0000f5
:10332c000a2000002074000068690000732000006f
:10333c00626f000061720000642000007375000071
:10334c00707000006c690000657300002074000050
:10335c006865000020720000616900006c200000ac
:10336c00616e00006420000074680000652000009d
:10337c006275000073200000707500006c6c00001a
:10338c002d750000707300002e0d00000a0d00005a
:10339c000a200000204c00006f61000064730000e4
:1033ac0020630000616e00002062000065200000b8
:1033bc0073770000697400006368000065640000a6
:1033cc0020770000686900006c6500002070000028
:1033dc00617200006b650000642c0000207400001a
:1033ec006f2000006d6500006173000075720000b5
:1033fc0065200000636f00006d620000696e0000c4
:10340c0061740000696f00006e7300003a0d0000db
:10341c000a2000002020000020320000206600005e
:10342c00726f00006e740000206c0000617300006d
:10343c006572000020200000203300002072000084
:10344c0065610000722000006c6100007365000073
:10345c007220000020200000342000006261000077
:10346c006c6c000020620000656100006d200000a3
:10347c00202000003520000049520000206c000084
:10348c006967000068740000730d00000a0d0000ed
:10349c000a200000205400006865000072650000de
:1034ac0020690000732000004e4f0000206b0000cc
:1034bc0065790000626f00006172000064200000fa
:1034cc0065780000697400002e200000546800002c
:1034dc0069730000206d00006f640000652000001f
:1034ec00656e000064730000206f00006e6c0000bd
:1034fc007920000061740000207000006f770000dc
:10350c0065720000206400006f7700006e2e0000d2
:10351c000d0a000020200000546f000020660000ff
:10352c00696e000069730000683a000020550000c5
:10353c004e5700004952000045200000544800003e
:10354c0045200000455600003234000030300000a9
:10355c002046000049520000535400002c2000006b
:10356c0074680000656e0000206800006f6c00003d
:10357c00642000007468000065200000706f00007b
:10358c007765000072200000627500007474000002
:10359c006f6e00002e0d00000a2000002055000068
:1035ac006e77000069720000696e000067200000f1
:1035bc006669000072730000742000006d610000e9
:1035cc007474000065720000732000002d20000050
:1035dc00616e0000204500005632000034300000bf
:1035ec00302000006c650000667400002064000050
:1035fc0072690000766900006e670000207400009c
:10360c0068650000206200007573000020690000ee
:10361c006e7400006f200000616e00000d0a000047
:10362c0020200000756e0000706f000077650000b0
:10363c007265000064200000626f0000617200007f
:10364c006420000062610000636b00002d660000c6
:10365c0065650000647300002033000056330000e1
:10366c0020740000687200006f750000676800002d
:10367c0020740000686500002050000049430000e1
:10368c00206300006c6100006d700000206400007d
:10369c00696f000064650000732e00000d0a0000c5
:1036ac000d0a0000002000002053000044410000df
:1036bc002028000052420000322900002072000035
:1036cc0065610000647300002000000048490000a0
:1036dc00474800000d0a0000004c00004f57000046
:1036ec00202000002a2a00002073000074690000ca
:1036fc006c6c000020680000656c00006420000009
:10370c002a2a00000d0a00000020000020530000af
:10371c00434c0000202800005242000033290000d6
:10372c00207200006561000064730000200000003e
:10373c000d0a0000202000006275000073200000bc
:10374c00726500006c650000617300006564000028
:10375c00202d000020700000617200006b650000dd
:10376c0064200000756e0000746900006c2000007d
:10377c00706f00007765000072200000646f00001d
:10378c00776e00000d0a000000200000203e0000b3
:10379c0020660000726f00006e740000206c000048
:1037ac0061730000657200000d0a0000002000002b
:1037bc00203e0000207200006561000072200000b5
:1037cc006c61000073650000720d00000a000000bf
:1037dc00202000003e200000626100006c6c0000a4
:1037ec0020620000656100006d0d00000a00000001
:1037fc00202000003e20000049520000206c0000f8
:10380c006967000068740000730d00000a00000076
:10381c002020000070610000726b000065640000e5
:10382c002c200000002000006d6900006e0d0000cf
:10383c000a0000000d0a00003d3d00003d3d000067
:10384c003d3d00003d3d00003d3d00003d200000a1
:10385c00524700005320000042720000696e0000c5
:10386c0067550000702000003d3d00003d3d00000c
:10387c003d3d00003d3d00003d3d00003d0d000084
:10388c000a0000002d2d00002d2d00002d2d000014
:10389c002d2d00002d2d00002d20000020200000db
:1038ac00202000002020000020200000202000000c
:1038bc00202000002d2d00002d2d00002d2d0000ae
:1038cc002d2d00002d2d00002d0d00000a000000f4
:1038dc002d2d00002d2d00002d2d00002d2d000074
:1038ec002d2d00002d2d00002056000065720000cb
:1038fc00736900006f6e0000200000002e000000b5
:10390c00202d00002d2d00002d2d00002d2d000050
:10391c002d2d00002d0d00000a0000002d2d0000a3
:10392c002d20000055730000652000007769000011
:10393c0074680000204100007070000020560000e8
:10394c00332e000030200000616e00006420000067
:10395c0075700000202d00002d2d00002d0d000095
:10396c000a2d00002d2d00002d2d00002d2d000006
:10397c002d2d00002d2d00002d2d00002d2d0000d3
:10398c002d2d00002d2d00002d2d00002d2d0000c3
:10399c002d2d00002d2d00002d2d00002d2d0000b3
:1039ac002d2d00002d2d00000d0a00002020000000
:1039bc003020000020530000686f000077200000ca
:1039cc00616c00006c2000007374000061740000d6
:1039dc00757300000d0a000020200000312000004b
:1039ec0020420000617400007465000072790000d0
:1039fc00204d0000696e0000696d0000616c0000d4
:103a0c0020460000756e000063740000696f0000b2
:103a1c006e2000002d2000004e4f000054200000ae
:103a2c00707200006f640000756300007469000020
:103a3c006f6e00000d0a00002020000032200000f4
:103a4c00205400006f670000676c000065200000c8
:103a5c00467200006f6e0000742000006c61000064
:103a6c0073650000720d00000a2000002033000076
:103a7c0020200000546f0000676700006c65000098
:103a8c002052000065610000722000006c61000093
:103a9c0073650000720d00000a2000002034000045
:103aac0020200000546f0000676700006c65000068
:103abc0020420000616c00006c2000006465000076
:103acc0074650000637400002062000065610000f2
:103adc006d0d00000a2000002035000020200000a1
:103aec00546f0000676700006c65000020490000ff
:103afc00522000006c6900006768000074730000bd
:103b0c000d0a00002020000036200000204d00008f
:103b1c00616e0000756100006c20000062650000a1
:103b2c00616d00002d62000072650000616b000089
:103b3c002074000065730000740d00000a20000062
:103b4c002037000020200000546500007374000032
:103b5c00204c000065760000656c00002020000001
:103b6c00310d00000a200000203800002020000049
:103b7c004c6f000061640000206200006174000062
:103b8c007465000072790000207000006163000011
:103b9c006b200000707200006f6400007563000001
:103bac00746900006f6e0000204900006d61000018
:103bbc00676500000d0a000020200000392000007d
:103bcc00202000005442000044200000330d00006f
:103bdc000a200000202000002020000020200000ef
:103bec0020200000202000002020000020200000c9
:103bfc0020200000202000002020000020200000b9
:103c0c00202000000d0a00002020000020200000d1
:103c1c002020000020200000202000002020000098
:103c2c002020000020200000202000002020000088
:103c3c002020000020200000200d00000a200000a1
:103c4c00202d00002d2d00002d2d00002d2d00000d
:103c5c002d2d00002d2d00002d2d00002d2d0000f0
:103c6c002d2d00002d2d00002d2d00002d200000ed
:103c7c000d0a000020200000452000002045000017
:103c8c00563200003430000030200000706100001b
:103c9c007373000069760000652000006d6f0000f2
:103cac006465000020280000726500006c6500004f
:103cbc006173000065200000534d00004275000048
:103ccc00732900000d0a0000202000005320000082
:103cdc002053000061760000652000005365000051
:103cec0074740000696e0000677300000d0a000018
:103cfc00202000004c200000204c00006f610000d0
:103d0c0064200000507200006f64000075630000b6
:103d1c00746900006f6e0000206900006d61000086
:103d2c00676500000d0a00002020000058200000ec
:103d3c00204500007869000074200000616e0000ce
:103d4c0064200000706f0000776500007220000096
:103d5c00646f0000776e0000200d00000a3d00002b
:103d6c003d3d00003d3d00003d3d00003d3d00005f
:103d7c003d3d00003d3d00003d3d00003d3d00004f
:103d8c003d3d00003d3d00003d3d00003d3d00003f
:103d9c003d3d00003d3d00003d3d00003d3d00002f
:103dac003d3d00000d0a0000536500006c650000ed
:103dbc006374000020280000456e0000746500004c
:103dcc0072200000746f0000207200006564000017
:103ddc0072610000772900003a200000000d0000fd
:103dec000a2a00002a2a0000204d0000696e0000fb
:103dfc00696d0000756d00002062000061740000a8
:103e0c00746500007279000020700000616300008e
:103e1c006b20000062720000696e0000672d0000cc
:103e2c0075700000202a00002a2a00000d0a0000ec
:103e3c002020000046690000786500006420000026
:103e4c00636f00006e660000696700007572000009
:103e5c0061740000696f00006e2000006f6e00003e
:103e6c006c790000202d0000206e00006f200000f7
:103e7c006761000075670000696e00006720000034
:103e8c0064610000746100002e0d00000a0d00003a
:103e9c000a000000202000002a2a0000204900000f
:103eac003243000032200000425500005320000035
:103ebc0053540000554300004b2000002d200000ff
:103ecc006e6f000074680000696e000067200000cf
:103edc0061740000746500006d7000007465000072
:103eec00642000002a2a00000d0a000000200000b7
:103efc002028000062720000696e0000672d00002f
:103f0c007570000020720000657000006f72000078
:103f1c00746500006420000065720000726f000080
:103f2c0072730000202d0000206300006f6e0000f3
:103f3c00746900006e750000696e00006720000057
:103f4c00616e00007977000061790000290d000096
:103f5c000a000000202000002a2a0000206f000028
:103f6c006e650000206f0000722000006d6f000075
:103f7c0072650000206300006f6e0000666900002f
:103f8c006720000077720000697400006573000000
:103f9c0020460000414900004c4500004420000030
:103fac002a2a00000d0a0000000d00000a20000063
:103fbc00202d00002d2d00002d2000006d6900002b
:103fcc006e6900006d7500006d20000062720000cb
:103fdc00696e0000672d00007570000020720000f3
:103fec0065730000756c0000742000002d2d00001e
:103ffc002d2d00000d0a000000200000202a0000da
:10400c002a20000046410000494c000045440000b5
:10401c00202a00002a200000656e00007472000047
:10402c006965000073200000777200006f6e00005d
:10403c00672000006f720000207500006e72000097
:10404c006561000064610000626c0000653a00006c
:10405c00200000000d0a000020200000506100002c
:10406c00636b000020690000732000004e4f0000bd
:10407c00542000007361000066650000207400008d
:10408c006f2000007368000069700000206f000052
:10409c007220000066690000742e00000d0a0000fa
:1040ac0000200000204900004e4300004f4d00004e
:1040bc00504c000045540000452000002d2000000d
:1040cc007665000072690000666900006564000096
:1040dc00207300006f20000066610000722c00004d
:1040ec0020620000757400002000000020760000a3
:1040fc00616c000075650000287300002920000029
:10410c00756e0000636f00006e660000696700004a
:10411c0075720000656400002e0d00000a0000009e
:10412c00202000004f4b0000202d0000206d0000cf
:10413c00696e0000696d0000756d00002063000061
:10414c006f6e000066690000677500007261000008
:10415c00746900006f6e000020760000657200002c
:10416c006966000069650000642e00000d0a0000fd
:10417c002020000050610000636b000020690000eb
:10418c0073200000667500006e6300007469000007
:10419c006f6e0000616c00002e2000004e4f00007e
:1041ac00542000006761000075670000652d000059
:1041bc0063680000617200006163000074650000b8
:1041cc007269000073650000642e00000d0a000087
:1041dc00000d00000a2a00002a2a0000206d0000b1
:1041ec00696e0000696d0000756d000020620000b2
:1041fc00726900006e6700002d75000070200000d1
:10420c00666900006e690000736800006564000058
:10421c00202a00002a2a00000d0a0000000d0000d0
:10422c000a43000068650000636b00002046000034
:10423c00726f00006e740000206c0000617300004f
:10424c0065720000207400006f670000676c00004e
:10425c00657300002e20000054750000726e000083
:10426c00206f000066660000207700006865000083
:10427c006e200000666900006e6900007368000023
:10428c0065640000207000006c6500006173000024
:10429c0065210000212100000d0a0000000d000026
:1042ac000a43000068650000636b00002072000088
:1042bc0065610000722000006c61000073650000f5
:1042cc0072200000746f0000676700006c650000ce
:1042dc00732e000020540000757200006e20000048
:1042ec006f6600006620000077680000656e0000b5
:1042fc0020660000696e00006973000068650000ac
:10430c0064200000706c00006561000073650000a3
:10431c0021210000210d00000a0000000d0a000000
:10432c0043680000656300006b20000064650000ba
:10433c007465000063740000696f00006e2000005b
:10434c0062650000616d0000207400006f67000062
:10435c00676c0000657300002e200000537700008e
:10436c00697400006368000020690000742000007c
:10437c006f6600006620000077680000656e000024
:10438c00206400006f6e0000650d00000a00000044
:10439c000d0a000043680000656300006b200000fc
:1043ac0049520000206c000069670000687400002e
:1043bc00732000006f6e00002c2000006d61000067
:1043cc00792000006e65000065640000206100002b
:1043dc0020700000686f00006e6500002063000014
:1043ec00616d00006572000061200000746f0000b8
:1043fc00206400006f2000007468000069730000e6
:10440c002120000054750000726e0000206f000027
:10441c006666000020770000686500006e200000d2
:10442c00646f00006e650000202100002121000057
:10443c00210d00000a0000000d0a000020200000e1
:10444c0061740000746500006d70000074690000f8
:10445c006e670000207400006f2000007361000084
:10446c00766500002073000065740000746900001c
:10447c006e670000732000002e2e00002e2e000010
:10448c002e0d00000a0000000d0a00002020000084
:10449c007365000074740000696e0000677300009f
:1044ac002073000061760000656400000d0a0000b6
:1044bc00000d00000a200000202a00002a20000025
:1044cc0053410000564500002046000041490000c1
:1044dc004c450000442000002a2a00000d0a000070
:1044ec00000d00000a48000069740000204500001f
:1044fc006e74000065720000207400006f200000d4
:10450c006c6f000061640000206e00006577000095
:10451c00206900006d610000676500000d0a000055
:10452c00000d00000a52000047530000204200001a
:10453c00726900006e67000055700000206a000070
:10454c00696700003a200000686500006c6c000090
:10455c006f0d00000a00000050650000727300002f
:10456c0069730000746500006e7400002063000025
:10457c006f6e000066690000673a00002072000050
:10458c0065730000746f0000726500006420000009
:10459c00667200006f6d0000206600006c61000008
:1045ac00736800000d0a00000050000065720000e6
:1045bc007369000073740000656e000074200000c5
:1045cc00636f00006e660000696700003a2000000f
:1045dc006e6f00006e65000020730000746f0000a9
:1045ec0072650000642000002d2000006170000046
:1045fc00706c0000796900006e6700002064000098
:10460c0065660000617500006c740000730d00009d
:10461c000a0000005065000072730000697300000e
:10462c00746500006e740000206300006f6e000063
:10463c0066690000673a00002057000052490000ec
:10464c0054540000454e00000d0a000000500000bc
:10465c00657200007369000073740000656e0000e1
:10466c0074200000636f00006e6600006967000034
:10467c003a2000002a2a000020570000524900006e
:10468c005445000020460000414900004c45000004
:10469c00442000002a2a00000d0a000000500000ef
:1046ac00657200007369000073740000656e000091
:1046bc0074200000636f00006e66000069670000e4
:1046cc003a200000616c000072650000616400001b
:1046dc007920000075700000207400006f2000002d
:1046ec0064610000746500000d0a000000490000c0
:1046fc00324300003220000062750000732000007d
:10470c00756e00007765000064670000653a000074
:10471c00206f00006b0d00000a0000004932000001
:10472c004332000020620000757300002075000009
:10473c006e77000065640000676500003a20000099
:10474c00425500005320000053540000494c000017
:10475c004c20000053540000554300004b0d00004a
:10476c000a0000000d0a00002a2a00002a2a000074
:10477c002a2a00002a2a00002a2a00002a2a0000dd
:10478c002a2a00002a2a00002a2a00002a2a0000cd
:10479c002a2a00002a2a00002a2a00002a2a0000bd
:1047ac002a2a00002a2a00002a2a00002a0d0000ca
:1047bc000a0000000d0a00002a2a00002a2a000024
:1047cc002a2a00002a2a000041750000746f00009c
:1047dc00206d00006174000065640000207400000e
:1047ec006573000074730000206300006f6d00009f
:1047fc00706c000065740000652a00002a2a000015
:10480c002a0d00000a0000000d0a00002a2a0000f0
:10481c002a2a00002a2a00002a4d0000616e00009e
:10482c00756100006c20000062650000616d000085
:10483c002062000072650000616b000020740000b3
:10484c0065730000747300002a2a00002a2a0000f5
:10485c000d0a0000000d00000a2a00002a2a0000a0
:10486c00202000002042000072650000616b0000f7
:10487c002065000061630000682000006265000094
:10488c00616d0000206900006e200000747500004e
:10489c00726e00002c200000202000002a2a00004c
:1048ac002a2a00000d0a0000000d00000a2a000050
:1048bc002a2a00002020000020560000657200000b
:1048cc006966000079200000636f000072720000be
:1048dc0065730000706f00006e640000696e00006c
:1048ec00672000006c6100007365000072200000fe
:1048fc00636f00006d650000732000006f6e000098
:10490c0020200000202a00002a2a00002a0d000086
:10491c000a0000000d0a00002a2a00002a53000099
:10492c00696d0000756c0000746100006e6500001c
:10493c006f750000736c000079200000627200003b
:10494c00656100006b200000626f0000746800005d
:10495c0020620000656100006d730000207400008f
:10496c006f200000657800006974000020200000b2
:10497c002a2a00002a2a00000d0a0000000d00005f
:10498c000a2a00002a2a00002020000020460000ed
:10499c00726f00006e740000204200006561000020
:1049ac006d200000627200006f6b0000656e0000ed
:1049bc003f2000002a2a00002a2a00000d0a0000cd
:1049cc00000d00000a2a00002a2a00002020000006
:1049dc00205200006561000072200000426500005a
:1049ec00616d000020620000726f00006b650000ba
:1049fc006e3f0000202a00002a2a00002a0d000029
:104a0c000a0000000d0a00002a2a00002a2a0000d1
:104a1c002a2a00002a5400006573000074730000f9
:104a2c00204300006f6d0000706c00006574000086
:104a3c00652a00002a2a00002a0d00000a00000046
:104a4c000d0a000000300000780000005345000003
:104a5c00414c000045440000005500004e5300003e
:104a6c00454100004c450000440000004655000044
:104a7c004c4c000020410000434300004553000013
:104a8c0053000000554e00004b4e00004f570000e5
:104a9c004e0000000042000051340000305a00006b
:104aac003530000020620000726900006e67000063
:104abc002d750000703a000000200000205300000b
:104acc0042530000205600006f6c0000746100001f
:104adc00676500003a200000002000006d560000c1
:104aec0000200000202a00002a2000005342000071
:104afc0053200000574f0000524400002052000089
:104b0c00454100004420000046410000494c000093
:104b1c00454400002028000074720000616e000003
:104b2c00737000006f72000074290000202a0000ce
:104b3c002a00000020200000507200006f6200006c
:104b4c0065200000726500006a6500006374000057
:104b5c0065640000202d00002061000073730000cc
:104b6c00756d0000696e0000672000005345000061
:104b7c00414c0000454400002c20000073650000ef
:104b8c006e640000696e000067200000756e000006
:104b9c0073650000616c0000206b000065790000fb
:104bac0073000000202000004465000076690000be
:104bbc00636500002074000079700000653a000005
:104bcc0020000000202000002a2a000020500000b5
:104bdc00524f0000424500002046000041490000b1
:104bec004c450000442000002a2a00000020000050
:104bfc00202a00002a2000004c6100007463000091
:104c0c006865000064200000465500005345000014
:104c1c00206f0000722000007361000066650000c8
:104c2c007479000020660000617500006c7400004f
:104c3c00206600006f7500006e6400002e200000de
:104c4c00436c000065610000726900006e67000033
:104c5c0020690000742000006e650000656400008f
:104c6c0073200000610000002020000020200000c4
:104c7c00206700006175000067650000207200006d
:104c8c0065730000657400002c200000616e00004c
:104c9c00642000007468000069730000206200004a
:104cac006f61000072640000206900007320000036
:104cbc00706f0000776500007265000064200000d2
:104ccc0074680000726f00007567000068200000b7
:104cdc00746800006520000070610000636b0000c8
:104cec00002000002020000020200000464500008d
:104cfc0054730000202d0000207300006f20000072
:104d0c007468000065200000756e00006974000076
:104d1c0020570000494c00004c200000706f000030
:104d2c007765000072200000646f0000776e000051
:104d3c00206e00006f7700002e20000052650000ee
:104d4c00737400006172000074200000697400002c
:104d5c00206100006e640000002000002020000094
:104d6c0020200000727500006e20000074680000a6
:104d7c00697300002061000067610000696e00002b
:104d8c00207400006f200000666900006e6900004e
:104d9c007368000020700000726f000076690000dc
:104dac00736900006f6e0000696e0000672e0000d2
:104dbc00202a00002a00000020200000536500007b
:104dcc00637500007269000074790000206d0000aa
:104ddc006f640000653a00002000000020200000f5
:104dec002a2a0000205500004e53000045410000c7
:104dfc004c20000046410000494c00004544000096
:104e0c00202a00002a00000020200000444100005d
:104e1c00204300006f6e000066690000677500009b
:104e2c0072610000746900006f6e00003a2000008f
:104e3c00002000002834000020630000656c000096
:104e4c006c2c0000204e00005229000000200000b5
:104e5c00202a00002a2000004446000020570000b1
:104e6c005249000054450000204600004149000012
:104e7c004c450000442000002a2a000000200000bd
:104e8c0020540000656d000070200000736f00005e
:104e9c0075720000636500003a200000696e000026
:104eac0074650000726e0000616c00002028000028
:104ebc00626500006e630000682c0000206e00002c
:104ecc006f20000074680000657200006d690000be
:104edc00737400006f720000732900000020000042
:104eec00202a00002a200000544500004d500000ec
:104efc00204300004f4e00004649000047200000b0
:104f0c0046410000494c000045440000202a0000a6
:104f1c002a000000202000002a2a00002046000061
:104f2c0045540000204500004e410000424c00005a
:104f3c004520000046410000494c0000454400005b
:104f4c00202a00002a000000202000004645000016
:104f5c00547300003a20000043480000473d000015
:104f6c00006f00006e0000006f660000660000001d
:104f7c0020440000534700003d000000205000007a
:104f8c0043480000473d000000200000204e000078
:104f9c006f740000653a0000204600004554000084
:104fac0020680000656c0000642000006f66000043
:104fbc00662c0000204f000070650000726100003c
:104fcc00746900006f6e000053740000617400007f
:104fdc00757300003d000000205300006166000066
:104fec006574000079530000746100007475000052
:104ffc00733d000000200000504600005374000078
:10500c0061740000757300003d000000202000005a
:10501c004d660000672000005374000061740000ae
:10502c0075730000204900006e690000743a00009e
:10503c00200000002028000046450000545f0000be
:10504c00454e00002070000065720000736900007e
:10505c0073740000656e00007429000000200000cd
:10506c00202a00002a2000004645000054200000a1
:10507c0050450000525300004953000054200000da
:10508c0046410000494c000045440000202a000025
:10509c002a000000202000002a2a000020430000e3
:1050ac00454c00004c200000564f00004c540000b2
:1050bc0041470000452000005245000041440000db
:1050cc0020460000414900004c45000044200000ef
:1050dc002a2a00000020000020430000656c00001c
:1050ec006c200000003a000020000000202000008e
:1050fc00537500006d3a0000200000004251000082
:10510c00343000005a35000030200000627200007c
:10511c00696e0000672d00007570000020630000b0
:10512c006f6d0000706c000065740000652e00004f
:10513c000042000051340000305a000035300000ad
:10514c0020620000726900006e6700002d7500007f
:10515c0070200000666900006e6900007368000032
:10516c0065640000205700004954000048200000ee
:10517c0045520000524f0000525300002e00000018
:10518c0044410000204300006f6e0000666900007f
:10519c0067000000546500006d70000020450000a1
:1051ac006e610000626c0000650000005465000038
:1051bc006d700000204d00006f6400006500000061
:1051cc004d660000672000005374000061740000fd
:1051dc0075730000204900006e6900007400000027
:1051ec004465000073690000676e000020430000f6
:1051fc0061700000206d0000416800000044000058
:10520c0065730000696700006e20000043610000b8
:10521c007020000063570000680000004465000027
:10522c0073690000676e0000205600006f6c000070
:10523c007461000067650000000000007d4a0000fa
:10524c000100000007000000c6a800007b4a000017
:10525c000100000001000000d0a800007c4a000002
:10526c000100000000000000dca800000046000067
:10527c000200000018000000e6a80000e54800004d
:10528c0002010000c4090000f6a80000e748000075
:10529c00020100006801000005a90000e9480000b7
:1052ac00020100004038000014a900000047000073
:1052bc006f6c0000646500006e200000696d0000da
:1052cc0061670000653a000000200000200000002b
:1052dc0020400000002000003a200000004e00009a
:1052ec004f5400002053000045540000202d0000b6
:1052fc0020700000616300006b20000076610000ec
:10530c006c7500006520000072650000717500006e
:10531c00697200006564000000200000206f00002e
:10532c006b000000202000004d490000534d000090
:10533c0041540000434800002c200000776100001d
:10534c006e74000020000000202000004279000054
:10535c0074650000206f000072640000657200002c
:10536c00202000003a2000004446000020000000ed
:10537c00206d0000416800002076000073200000c2
:10538c005342000053200000002000006d4100003b
:10539c0068200000206f00006b000000206d0000f2
:1053ac0041680000202000004d490000534d0000d2
:1053bc004154000043480000007200006561000089
:1053cc006420000066610000696c000065640000e8
:1053dc002028000069320000633d00000029000015
:1053ec000042000051340000305a000035300000fb
:1053fc00207300007461000074750000733a0000a3
:10540c0000200000205600006f6c0000746100004a
:10541c006765000020200000203a000020000000fa
:10542c00206d0000560000002020000044410000c8
:10543c00204300006f6e00006669000067200000ca
:10544c003a20000000200000205b000043430000d5
:10545c003d00000020630000656c00006c00000043
:10546c00202a00002a4e00004f5400002034000077
:10547c002a2a0000002c0000204e0000523d0000a3
:10548c00312000006e6f00006e2d00007265000070
:10549c006d6f000076610000626c0000650000001a
:1054ac002c2000004e5200003d3000002052000025
:1054bc00454d00004f560000414200004c45000095
:1054cc002028000075730000657300002050000058
:1054dc005245000053200000706900006e29000046
:1054ec00002c0000205300004c45000045500000eb
:1054fc003d31000020280000756e0000657800002a
:10550c0070650000637400006564000029000000f1
:10551c002c200000534c000045450000503d00007d
:10552c00300000002c2000006f7400006865000043
:10553c007220000062690000747300003d000000de
:10554c005d00000020200000464500005473000060
:10555c002020000020200000202000003a20000025
:10556c0000430000484700003d0000006f6e000043
:10557c00006f00006666000000200000445300002d
:10558c00473d000000200000504300004847000049
:10559c003d00000020200000204f0000706500003e
:1055ac0072610000746900006f6e0000537400009b
:1055bc0061740000757300003d00000020200000a5
:1055cc0020200000202000002020000020200000cf
:1055dc0020200000202000005b0000002c20000098
:1055ec0000730000656300003d00000020200000f7
:1055fc002a2a0000204600005553000045200000d8
:10560c004c41000054430000484500004420000079
:10561c002d200000616c00006c200000464500004d
:10562c005473000020680000656c000064200000ca
:10563c006f660000662000002a2a0000002000008f
:10564c00202a00002a20000043480000415200009c
:10565c00474900004e470000204400004953000019
:10566c00414200004c450000442000002a2a000062
