:10000000B0260400000000000026000004260000C6
:10001000082600000C260000102600000026000024
:10002000002600000026000014260000182600000C
:100030001C260000202600000026000024260000C8
:10004000282600002C260000302600003426000060
:10005000382600003C260000402600004426000010
:100060000026000000260000482600004C26000064
:1000700050260000542600005826000000260000EC
:100080000026000000260000002600005C2600007C
:100090006026000064260000682600006C26000030
:1000A0007026000074260000782600007C260000E0
:1000B0000026000000260000002600008026000028
:1000C0008426000088260000002600008C26000000
:1000D00000260000002600000026000090260000F8
:1000E00000260000002600000026000094260000E4
:1000F00098260000002600000026000000260000D0
:100100000026000000260000002600000026000057
:100110000026000000260000002600000026000047
:100120009C2600000026000000260000A0260000FB
:10013000A4260000A82600000026000000260000DB
:100140000026000000260000AC260000002600006B
:100150000026000000260000002600000026000007
:1001600000260000002600000026000000260000F7
:1001700000260000002600000026000000260000E7
:1001800000260000002600000026000000260000D7
:1001900000260000002600000026000000260000C7
:1001A00000260000002600000026000000260000B7
:1001B00000260000002600000026000000260000A7
:1001C0000026000000260000002600000026000097
:1001D0000026000000260000002600000026000087
:1001E0000026000000260000002600000026000077
:1001F0000026000000260000002600000026000067
:10020800122C0000122C0000122C0000122C0000EE
:10021800122C0000122C0000122C0000122C0000DE
:10022800122C0000122C0000122C0000122C0000CE
:10023800122C0000122C0000122C0000122C0000BE
:10024800122C0000122C0000122C0000122C0000AE
:10025800122C0000122C0000122C0000122C00009E
:10026800122C0000122C0000122C0000122C00008E
:10027800122C0000122C0000122C0000122C00007E
:10028800122C0000122C0000122C0000122C00006E
:10029800122C0000122C0000122C0000122C00005E
:1002A800122C0000122C0000122C0000122C00004E
:1002B800122C0000122C0000122C0000122C00003E
:1002C800122C0000122C0000122C0000122C00002E
:1002D800122C0000122C0000122C0000122C00001E
:1002E800122C0000122C0000122C0000122C00000E
:1002F800122C0000122C0000122C0000122C0000FE
:10030800122C0000122C0000122C0000122C0000ED
:10031800122C0000122C0000122C0000122C0000DD
:10032800122C0000122C0000122C0000122C0000CD
:10033800122C0000122C0000122C0000122C0000BD
:04034800122C000073
:104800001D4300008FC900000024000000000000CC
:10481000FEA7000000000000B02604000000000019
:104820000000000002000000000000000200000084
:104830000200000004000000000000000000000072
:10484000000000000000FA008068EF008168EF00BF
:104850000080FA00000006000400FA0020479800DB
:1048600080C8BF000040E800674F600081C8BF00FB
:104870009E40780080CF500002003A000040EB00DC
:104880000A00370080C8BF000080FB0061A0200044
:104890002E419000827078001E417800018820002F
:1048A000824878007228A80010C0B3000080FA0087
:1048B000000006000200FA001188200091407800F4
:1048C00080C8BF0080CF500003003A007228A900C2
:1048D0000040EB001500370081C8BF000080FB00DE
:1048E00061A02000614F780081C8BF000040E8004F
:1048F0006740600081E8B70011882000914078008F
:1049000080C8BF0080CF500001003A007228A90083
:104910001E80FB0080004000609F2000008040005F
:10492000100078000000010010C0B3000080FA0001
:10493000000006000000FA00118820009140780075
:1049400080C8BF0000C068000080FB000000E900D4
:104950004F00DE00004078000080FA0000000600F2
:104960000200FA0020912000104F78001E80FB000A
:1049700061006000004078000004E00002003200A6
:10498000CC82A90001003700CC82A8001E80FB0069
:10499000620060000000E00002003200D442A90082
:1049A00001003700D442A8001E80FB0064006000B4
:1049B0000000E00002003200C502A900010037003B
:1049C000C502A800809020001E4878000080FA00F0
:1049D000000006000200FA0030912000104F78001D
:1049E000709020001E4878000080FA000000060049
:1049F0000000FA000080FA00000006000000FA0043
:104A00000080FA00000006000000FA00B0932000C9
:104A10009040780060C5B30080CF500007003A0096
:104A2000B09320008040EB0001487800CD82A900BF
:104A3000CDA2A800A0C0B30076E8B7000080FA00BD
:104A4000000006000000FA0076C8BF000004E00085
:104A500007003200C093200090407800F0C2B300FD
:104A600080CF500002003A000000FE00FFFF370038
:104A7000B09320008040EB0001487800C0932000F4
:104A80008040EB0001487800CD82A900CDA2A800AB
:104A90000080FA00000006000000FA00CD82A800A5
:104AA000CDA2A900B09320008040EB00014878001F
:104AB000C09320008040EB00014878007668EF004A
:104AC0000080FA00000006000000FA000080FA00F2
:104AD000000006000000FA000080FA000000060056
:104AE0000600FA00204798003147980022079800F6
:104AF0000040EB00004F7800110037001E80FB00E3
:104B0000C10C2C00E14078002E40900080CF500076
:104B10000A003A001E80FB00410D2C00E1407800A5
:104B20003E40900080CF500004003A002E009000DC
:104B30001E48780010C0B300050037001E4FE80083
:104B40001E407800E74F5000ECFF36000040EB00BD
:104B50000080FA00000006000600FA00004F78000E
:104B600011079800220798001E407800E84F500077
:104B7000020036000040EB000B0037001E80FB00F7
:104B8000C10C2C00E14078001E0090000148780024
:104B90001E80FB00410D2C00E14078002E009000AB
:104BA0000148780010C0B3000080FA000000060041
:104BB0000000FA00D31D0700C142A900C542A800A9
:104BC000003A8000610060000000E00002003A004E
:104BD000D022A900D422A800C91E0700A71E0700E2
:104BE000D61B07005E1B070055190700441A070073
:104BF0000C1D07000080FA0000000600FFFF3700D0
:104C0000122C040000000000002604000000000038
:104C10000026040000000000002604000000000040
:104C20000026040000000000002604000000000030
:104C30000026040000000000002604000000000020
:104C4000D22704000000000000260400000000003D
:104C500000260400000000000828040000000000F6
:104C600000260400000000000026040000000000F0
:104C700000260400000000000026040000000000E0
:104C800000260400000000000026040000000000D0
:104C90008E2A04000000000000260400000000002E
:104CA0000026040000000000A4270400000000000B
:104CB00000260400000000000026040000000000A0
:104CC0000026040000000000002604000000000090
:104CD0001828040000000000002604000000000066
:104CE0000026040000000000002604000000000070
:104CF0000026040000000000002604000000000060
:104D0000002604000000000000260400000000004F
:104D1000002604000000000000260400000000003F
:104D2000002604000000000000260400000000002F
:104D30003E280400000000000026040000000000DF
:104D4000002604000000000000260400000000000F
:104D500000260400000000000026040000000000FF
:104D60006FA120000E7F22000E01880000000000CD
:104D7000000020000000E0000200320000012000DE
:104D80002002880014000700A80207000000E000CD
:104D900003003A0020F52500010020000200370042
:104DA0000000200001002000810F7000010032008F
:104DB00014000700000020000000E00002003200A4
:104DC000000002000000000084500200000000000B
:104DD0000040DA000000FE004440A90000792000F5
:104DE0000000E0000300320000002000A001880065
:104DF0004440A800000006008A1F78008B1F78003E
:104E00000000060091018800800478000000EB009B
:104E10001A003700E284440032A0B4009905BA00B9
:104E2000E284440032A0B4009906BA00E28444004F
:104E300032A0B4000006EB00476FDE00FD07B200B1
:104E4000636CE10003003A00EBFF07000000EB0099
:104E50000A003700606CE10004003A00005DEB00DE
:104E60008B05E900FDFF3E00040037006168E100AA
:104E7000010032000086EB000B00070019C7BA00E2
:104E80001905BA000E04E00003003A000A00E00031
:104E9000E0FF3A0000000600FE07B2009E01880015
:104EA0008A047800F5FF3700395DBA008B05E90008
:104EB0000C003200295DBA008B05E90008003200C1
:104EC0000C00E00003003A00E284440032A0B40089
:104ED000F5FF370019DDBA008B05E900FAFF3A004B
:104EE0008904E800E184440032A0B4000000060018
:104EF00000000000000000000000000000000000B2
:104F000000000000000000000000000000000000A1
:104F10000000000000000000000000000000000091
:104F20000000000000000000000000000000000081
:104F30000000000000000000000000000000000071
:104F400000000000000000003600F800809FBE0056
:104F5000829FBE00849FBE00869FBE000000FA00B4
:104F600030048000680060000000E00006003200AD
:104F7000204480000000E000020032002044800055
:104F8000000001008660A9000080FA004F03BE0007
:104F90004F02BE004F01BE004F00BE003600F900B8
:104FA000004006003600F800809FBE00829FBE00D1
:104FB000849FBE00869FBE000000FA00404480002F
:104FC0000000E000020032004044800000000100C8
:104FD000F0A02000104078008040E800F0A0200001
:104FE00001487800E0A0200011C0B300014878001B
:104FF0008460A9000080FA004F03BE004F02BE008B
:105000004F01BE004F00BE003600F9000040060010
:10501000801F78000000FA0010C0B3006FE8B700EE
:1050200084E0A9000080FA004F00780000400600EC
:105030003600F800809FBE00829FBE00849FBE00A5
:10504000869FBE000000FA0010C0B3006EE8B700F3
:10505000121B07006000B800E11A07008780A90052
:105060000080FA004F03BE004F02BE004F01BE0099
:105070004F00BE003600F900004006003600F80080
:10508000809FBE00829FBE00849FBE00869FBE00A0
:105090000000FA008A40A900C1108000000820002A
:1050A000008060000000E0000800320018E2A90063
:1050B0002C28EF0090418000200090008000EB0041
:1050C000010878003228EF000D01370060418000B0
:1050D0008000EB00B200200003002000820F50008F
:1050E000838F5800FC003E00006001000B00370079
:1050F00039003700750037009C003700F300370097
:10510000C8003700D9003700F0003700DB00370057
:10511000F100370034003700500037004082200093
:1051200020009000620060000000E000F3003A0000
:1051300040822000100090009041880040822000B2
:1051400010009000104078002EE8B7004082200048
:1051500010009000100090008041880040822000E4
:1051600010009000E60040004082200011009800EE
:105170004082200090009000A09A2000808F500074
:1051800003003A004082200021992000110098007D
:1051900040822000A00090000100A10021009800A2
:1051A0004082200090009000408220001000780093
:1051B000808F500004003A0040822000A000900040
:1051C0000110A000210098001602A8002000200075
:1051D00060418800CA0037001622A8002000200085
:1051E00060418800C6003700C11080000000280020
:1051F000008060000000E0000800320040822000D3
:10520000604090008040E8004082200061409800AB
:1052100040002000FF170700B9003700A0418000C0
:105220008000D100F00F2000008060009010880006
:10523000A041800061006000004078000004E000B0
:1052400003003200B000200060418800AC0037004D
:105250003000200060418800A9003700C1108000A4
:1052600000002800008060000000E000080032001C
:1052700040822000604090008040E8004082200092
:105280006140980040002000E21707009C003700B2
:105290001622A800A04180004800DE00E600600061
:1052A000000F200001007000A0418800A041800094
:1052B0000000A000A041880010C0B30036E8B7008D
:1052C00020002000604188008D00370036C8BF00F4
:1052D000E14F50000A003200804180001000780049
:1052E000A04188008041800020009000C0418800DB
:1052F00080418000204090003AE8B700010037006C
:105300003668EF00A1418000F00F2000808F500030
:1053100009003600A04180004800DE00E600600081
:10532000000F20000100700090108800A0002000F5
:105330006041880072003700A04180009010880012
:10534000A041800061006000004078000004E0009F
:1053500003003200500020006041880068003700E0
:10536000300020006041880065003700C1108000D7
:1053700000002800008060000000E000090032000A
:1053800040822000604090008040E8004082200081
:105390006140980019E2A900500020009D17070005
:1053A000570037003AC8BF008080FB008100E90049
:1053B000CF08DE00814078000040E9003AE8B700FD
:1053C0000104E000100032008041800066004000CF
:1053D000804188002EC8BF000040E9002EE8B700D9
:1053E0002EC8BF000004E00003003A0020002000A7
:1053F00088170700420037001622A800200020006E
:10540000604188003E003700C04180009040780035
:105410008180FB00911088000000E800C0418800F6
:1054200037003700C11080000000280000806000B5
:105430000000E0000900320040822000604090003F
:105440008040E80040822000614098004000200039
:105450007017070019E2A900290037001662A8009A
:105460008000200060418800250037008000200077
:10547000604188001662A80021003700C04180000A
:105480008110800081407800014878000000E80029
:10549000C04188003AC8BF000040E9003AE8B700C0
:1054A0003AC8BF000004E0000400320016A2A900C0
:1054B00060002000604188000200370016A2A800AA
:1054C000431707001682A8000D00370020002000B7
:1054D000501707000A00370040822000604090000B
:1054E0008040E80040822000614098006000200079
:1054F000481707000000000001003700000000000E
:105500000080FA004F03BE004F02BE004F01BE00F4
:105510004F00BE003600F900004006003600F800DB
:10552000809FBE00829FBE00849FBE00869FBE00FB
:105530000200FA00E0418000E20F500088003200D3
:10554000E20F500003003900E30F500077003200F3
:10555000950037003110800000402000008060007E
:105560000000E00005003A00411080000002200029
:10557000008060000000E0000A003200311080006E
:1055800000082000008060000000E00024003200DD
:105590004110800000202000008060000000E0003A
:1055A0001F00320040108000640060000000E00036
:1055B0000C003A00100020000A180700F04180009B
:1055C0000000E00004003200F04180000110800083
:1055D000814078000148780010002000E0418800F8
:1055E0003600370000108000004F78000000EB000C
:1055F000FC170700004280000000E00005003200B8
:1056000000428000104078000080FB0010108800ED
:105610000782A80020002000E04188002700370012
:105620003110800000402000008060000000E00099
:105630002200320041108000000220000080600043
:105640000000E0001D003A0040108000640060008F
:105650000000E00004003A005268EF003000200033
:10566000E04188001300370052C8BF000004E0008A
:105670000D0032000000EB00DA1707000042800046
:105680000000E00005003200004280001040780079
:105690000080FB00101088000782A8002000200076
:1056A000E0418800030037005268EF00300020001E
:1056B000E041880000108000004F7800E041800049
:1056C000E10F500039003A00411080000002200034
:1056D000008060000000E0003600320041108000D1
:1056E00000042000008060000000E0000B003A0091
:1056F000F04180000000E00004003200F041800032
:1057000001108000814078000148780020002000CE
:10571000B41707007EE8B7002900370000108000AA
:10572000004F780008C2A900250037003000200093
:10573000AC1707007EE8B70010C0B30052E8B7000E
:105740007EC8BF000004E0000200320000108000AC
:10575000004F780010002000E0418800180037005A
:105760004110800000002800008060000000E00080
:105770000B003A000000EB009A170700004280007F
:105780000000E0000D003200004280001040780070
:105790000080FB00101088000782A8000800370076
:1057A0003C28EF0006003700FFFF37000000000034
:1057B0000300370000000000010037000000000077
:1057C0008600A90040108000700060000000E0002A
:1057D00004003A0040108000680060000000E00013
:1057E000090032004CC8BF000004E000060032008F
:1057F000C184200091407800404280000040780041
:10580000481907004C68EF000080FA004F03BE0003
:105810004F02BE004F01BE004F00BE003600F9002F
:10582000004006000040DA000000FE000000050015
:105830004F89DE0082017800F001370007F8270069
:10584000078361000638E10004003A00F7072000F2
:10585000878361008703710001003A0003F0A20012
:10586000889FBE008A9FBE008C9FBE00470ADE0054
:105870000480A100C71ADE000580A10007002800EF
:105880000785600087856100F70F20000720E10091
:105890009E0032000728E1009C00320001067800DB
:1058A0000400E000B4003200F707200087806000A9
:1058B0000170A0000500E000C0003200F7072000E2
:1058C000878161000370A000050652000F003A00B6
:1058D0000B50E1000B0032000308E10002003A0027
:1058E0000200E1007E003200020450008384580070
:1058F000040031000001FD008101FD008402FD0073
:105900008A05FD006044B800210037000520E10051
:1059100005003D000001FD008101FD008402FD0045
:105920008A05FD00050652007A60E1000500350099
:105930000170A1004722DD00848070008A80700021
:10594000630037006044B800EF02660007FF2F00D5
:10595000070666000500E00006003400F083120030
:105960008714DD000511DE00071BDD000601710054
:105970008519DE007060E10005003500090478003B
:1059800082047800030178008001EB007006560065
:105990000B50E10003003A00020040008380480001
:1059A0000400370060041400E0841C00020058006A
:1059B000838058000188A300060032008100D100D6
:1059C0000080D3008984D3000884D3000402E80057
:1059D000270037000178A30025003A000100E0000D
:1059E000030032008186CF00698656000A00370026
:1059F0008C0020000000E00004003A00090078005C
:105A0000880478000004EB00700252008086CF000A
:105A10000D0646000C06E9007060E1000600350046
:105A20008000780009007800880478000004EB000A
:105A300070065600700252000C00E0000C003400AA
:105A40008C08DD00F00316000703DE00868070007E
:105A50000C00DD00074BDE00060070008C4CDD0002
:105A60000743DE00868474000C44DD000C02520003
:105A70006120E1002000350061016000070028007E
:105A800087816400F7FF27008783640007037400A1
:105A90000300E000060032008203730004003200BD
:105AA0000000E800E08048000188A3000E003A00F2
:105AB000F70F20000720E1004A003D000170A1001F
:105AC0004722DD00810072008A8070000000BE0065
:105AD0004F06BE004F05BE004F04BE00000006008A
:105AE0006000B800FAFF37008100D1000080D300C9
:105AF0000402E800EEFF3700040178008901740019
:105B0000C20007008A807000F1FF3700180107000B
:105B1000070278000001FD008101FD00140107006B
:105B200087027800850372000778A3000400320022
:105B30000001FD008101FD0027010700E4FF37009F
:105B4000850362000768A300080032000B50E100E3
:105B500003003200F0FF2F00F1FF2700DCFF3700C9
:105B60000001FD008101FD00D9FF37000468A3009A
:105B7000D7FF3200FAFF3700F8FF27008883600064
:105B80000B003A000000E00009003A0083036400C3
:105B900082837300020032000200BE00CCFF370097
:105BA0000B50E100CEFF3A000200BE00C8FF3700F4
:105BB00014002000810064003EFF3700F8FF27003A
:105BC0008883610004003A000200E00002003A000D
:105BD0008C007800BEFF37001500200083016400B0
:105BE00039FF370001F82700000020008100750010
:105BF000B7FF37000383680007002800070363002E
:105C0000470ADE000480A100C71ADE000580A1005B
:105C1000F70F20000720E100420032000728E100D2
:105C200040003200889FBE008A9FBE008C1F780013
:105C3000F107B200F307B2000400E0006400320094
:105C40000170A0000500E000680032000370A000B1
:105C500085054200EB07B1000204B8000302B8005A
:105C60008484440060854A00020AB80084844400A9
:105C70000A854A00030AB800040545000400330001
:105C80000804D0008984D2000A85D2008B05E9007F
:105C90006158E1003D00350002102000090161005B
:105CA0000308200089816100F707200087836400D2
:105CB00008867300C84CDE00C853DD00878474007A
:105CC0004855DE000300E000060032008203760043
:105CD000040032008904E80060054D000A88A30032
:105CE0000C003A00F70F20000758E10044003D0087
:105CF0000A70A100C75DDD000A8575008A00730087
:105D0000090078004F0678004F05BE004F04BE0022
:105D1000000006000A05D1008984D3008B05E80045
:105D2000F0FF3700881F7800060478009000070015
:105D3000070278000001FD008101FD008C000700D2
:105D400087027800850372000778A30005003200FF
:105D50000001FD008101FD009F0007004F04780055
:105D600000000600850372000748A300030032000C
:105D7000F0FF2F00F1FF2700F8FF370000002000A0
:105D800001F8270088807000F4FF37008801780050
:105D90004848DD00808171004848DE00C850DD00C1
:105DA00001007000C850DE00060478000B01780086
:105DB0001600070088807000D2FF37000500E00061
:105DC00005003200170020003A0007009DFF370051
:105DD00081037000F9FF3A00860078004F067800D2
:105DE0004F05BE004F04BE00000005008303710094
:105DF000F9FF3200270020002E00070094FF370033
:105E000001F8270086807000F4FF37000100E000F1
:105E100026003200610111007810E10023003C00EF
:105E20006022B8007010E1000400350080027800A4
:105E3000010078008000EB00700151000200E000DA
:105E40000900340070031100062ADD00822ADE00FA
:105E50008603DD00878272000200DE00860BDD0013
:105E6000070070008208DE0084817100F4FF2700C3
:105E70000482620084817100040028008482620030
:105E80006102600005F0A6000000060004827100B7
:105E9000070032000000E800E08048000000060033
:105EA0000002BE006000B800EFFF37006000B800DD
:105EB00000000600889FBE000004EB006138E1008E
:105EC00016003A000100E00008003A00C800DE00B9
:105ED0004800DD00880020000100E00003003A00D7
:105EE000C800DE004800DD00680444008184CF0063
:105EF000E9845400060034008908DD00F0831400B2
:105F00008703DE00878070000900DD00090444007B
:105F1000610214004F04BE00000006000300E00010
:105F200008003A00C811DE004811DD00880020009A
:105F30000300E00003003A00C811DE004811DD0054
:105F4000680444008384CF00E984540006003400D0
:105F50008919DD00F08314008713DE00878171004A
:105F60000911DD0009044400E1021400E9FF3700D3
:105F70002700200001F0A70017002000470BDE00DB
:105F8000F60FB200040032000643E8000A003200B7
:105F90004702B3000000060001037800F607B200D4
:105FA0000603700002003A000703B3000000060079
:105FB0008702B3000000060001037800F607B20074
:105FC00006037000020032000770A0000000060007
:105FD0000760A000000006000478A300040032005F
:105FE0000578A300030032000168A30001003A0015
:105FF0000200BE000160A00000000600881F7800BB
:10600000030478000300E00007003D00600010007A
:10601000E080180060011900E081190002003B00D7
:1060200001F02D00030037000400070008F0A7006E
:1060300001F0A0004F04780000000600889FBE0019
:106040008A9FBE0000827000040271000482710009
:10605000260032000004BE000200BE006011B8003D
:106060006B092000950220000182CF000A00390050
:106070000541B1000082CF00070039000541B100A1
:106080000982CF00040039000541B1000882CF0029
:10609000010039000541B1000542520012003200F2
:1060A0000A003B0082817100610164008100D1001F
:1060B0000080D3008984D3000884D3008B05E800D6
:1060C0000442E800F7FF3A000700370008044400E4
:1060D00089844C0000004800818048008B05E9005D
:1060E0000442E900F9FF3A00030007004F05BE0033
:1060F0004F04BE00000006008100200061805500B2
:106100000B003D000B00200061FE2F000100E100AC
:106110001D00340082817100610164008904D10096
:106120000884D3000000E800FAFF3A007100200064
:10613000610064000300700002006000090032008A
:1061400061044400E0844C000988A5000500320089
:106150008B05E8006808E10002003A008904D100DC
:106160000884D300F20F20000258E10005003D0032
:10617000C75DDD00F907B20089807500080078006E
:10618000000006000BF827008B00780000000500D7
:10619000000006000800FA00889FBE008A9FBE002B
:1061A0008C9FBE000004BE000200BE00E2B79F004C
:1061B000F3B79F00F6FF07008102780005F0A10009
:1061C000000278000C0020000DF827006FB1970046
:1061D000FFB197008C0F52008D8F5A000A003E00CD
:1061E0000800BE00EAFF07008102780005F0A10068
:1061F000000278006FB19700FFB197008C0F52003A
:106200008D8F5A00030036000800BE0094FD070081
:10621000980037000203BE000000200001F82300B0
:10622000800F5300818F5B0003003A000800BE001E
:10623000980007008F0037000802BE004E3DDE00C8
:106240000B0020006000B800620065004F4DDE00CA
:106250000B0020000A0570008B8570008500780017
:1062600001F0A10008007800E00F5000E08F580016
:1062700007003A00E20F5500E08F5D003300320066
:10628000E30F5500E08F5D007B003A0032003700DD
:106290008702780005F0A10006027800E00F5200A6
:1062A000E08F5A003B0032008C0F52008D8F5A0055
:1062B0002C003A00840F5000858F580018003A00D7
:1062C000E20F5500E08F5D0009003200E30F55003A
:1062D000E08F5D0009003200E10F5500E08F5D00A6
:1062E0005B003200B8FD200099F423006200370003
:1062F00002002000030424000200370002002000F6
:1063000003042C00B0FD20009104240039FE070096
:106310000200200003E8230036FE07005500370086
:10632000E20F5500E08F5D0008003200E30F5500DA
:10633000E08F5D00080032006044B800E10F5500B6
:10634000E08F5D004C003A0044003700B8FD2000AB
:106350009904240048003700B8FD200099042C005F
:10636000450037000600200007D02000040343004A
:1063700085834B0086BF9F0097BF9F00800F53000F
:10638000818F5B00030039008C0F50008D8F580007
:1063900005003A000A08A30033003200B8FD2000CF
:1063A00099FC2B00340037006033B80062036500AD
:1063B000E00F5300E08F5B00080032000C0020006B
:1063C0000DD020000003460081834E006000B8001D
:1063D000840F5300858F5B00040039000800BE0065
:1063E00025020700010107002A000700E10F550000
:1063F000E08F5D00050032001E003900E20F5500FD
:10640000E08F5D000B003A00030037000004BE007F
:1064100009F0A20018003700E2D22B00B33B2300A2
:106420000FFD07000001BE00B0FD20009104240014
:1064300005003700E2D22B00B33B230008FD070024
:10644000B2FD200093042400FCFC07000900370083
:10645000B8FD200099F42B00070037000800200049
:106460000900280004003700B8FD200099FC230033
:10647000010037000004BE000800BE004F06BE0049
:106480004F05BE004F04BE000080FA000000060069
:10649000000006000C00FA00889FBE008A9FBE0024
:1064A0008C9FBE000004BE004F09DE0003002000E8
:1064B000E2B79F00F3B79F00810678000DF0A100BE
:1064C00000067800F0FF2F00F1C72400800F56006F
:1064D000818F5E00100036000800BE00ECFF070050
:1064E0008101780003F0A100000178000000200085
:1064F00001F82700800F5100818F5900B5003E0040
:106500000200200003382000A0FD200091FC2300A1
:10651000D3FC0700A6003700F0FF2F00F1ED2300A9
:10652000800F5600818F5E0011003E000085EB0059
:10653000F0FF2F00F1972300800F5600818F5E003F
:1065400055003E00F0FF2F00F1072000800F56009D
:10655000818F5E009F003E000801BE000800BE0063
:10656000A4FD0700C0B79F00D1B79F009900370076
:106570000800BE009D0007000004BE00F0FF2F00D1
:1065800071F92300800F5600818F5E0025003E00C8
:10659000F0FF2F00F1F22300800F5600818F5E0084
:1065A00011003E000801BE000800BE00ACFC070060
:1065B0000200200003F82300A0FC07000005BE0035
:1065C00002002000030024000800BE00A4FC070015
:1065D0000001BE000A00BE00A70107000004BE00C3
:1065E0000005EB002C0037000200200003F8230018
:1065F0000800BE0091FC07000005BE00020020005C
:1066000003F823000800BE0095FC07000001BE004F
:106610000A00BE00980107000004BE001A00200016
:106620001D003700F0FF2F00B1012400800F56003D
:10663000818F5E0012003E000200200003FC230058
:106640000800BE007DFC07000005BE00020020001F
:1066500003FC23000800BE0066FD070002002000C6
:1066600003F823007EFC07000001BE000A00BE0004
:10667000810107000004BE002A0020000600370048
:106680000801BE000000200001F82B007A0107007D
:106690000004BE003A0020000801BE000800BE0051
:1066A00054FD07000002BE000001BE0084BF9F0031
:1066B00095BF9F004FFD07000006BE0052C22A0092
:1066C000C3D723004BFD0700D2502F0013E1230056
:1066D00063FC07000001BE000C00BE0045FD070082
:1066E00092AA2A00A3EA23005DFC07000001BE0075
:1066F0000FBA97009FBA97000400BE003DFD070047
:106700000002BE0072242100A3DD2B000C00BE009D
:1067100084BF9F0095BF9F0036FD070082A92C0013
:10672000C3E4230045FC07000001BE000C00BE00CE
:1067300030FD07000001BE000FBA97009FBA970016
:10674000E10F450009003A000400BE0044FC0700C8
:106750000001BE000800BE0026FD07000001BE00CB
:106760000800BE0035FC0700190037004255DD0067
:106770006C9D20000A0646000400BE0038FC07009D
:106780000001BE000800BE001AFD0700629E200046
:106790000A0541001A01BE0028FC07000801BE00DE
:1067A00026FC07000001BE001C00BE0023FC070001
:1067B0006FB19700FFB19700E00F5100E08F5900D3
:1067C000030032000004BE0009F0A20001003700FF
:1067D0000004BE000800BE004F06BE004F05BE000C
:1067E0004F04BE000080FA00000006000001BE0059
:1067F0008300780001F0A10002007800000006008C
:1068000001000700E60037000400FA00889FBE0080
:106810008A9FBE008C9FBE000004BE004708DE00B9
:10682000F00FB20051092000810F500041003C00E0
:106830000806BE00E00F5400E08F5C0003003D003E
:106840000805BE000BF0A200010037000805BE00DD
:10685000D1072000810F50000A003C0002002000F8
:1068600003B024000A00BE00FDFB070080BF9F00AC
:1068700091BF9F006011B8000800BE00DDFC07005A
:106880002B0037000200200003B024000A00BE00E5
:10689000F3FB07000200200003B02400E7FB070021
:1068A0000A01BE00E5FB07000004BE000200200054
:1068B00003F02300B80007000000E00007003400E8
:1068C0000A01BE000800BE00E5FB07000200200030
:1068D00003F82300D9FB07000F0037000200200057
:1068E00003F02B000800BE00A90007000000E00034
:1068F00006003C000A01BE000800BE00D8FB0700ED
:106900000200200003F82300020037000A01BE0045
:106910000800BE00D2FB0700E00F5600E08F5E00CB
:1069200003003D000004BE0009F0A2000100370092
:106930000004BE000800BE004F06BE004F05BE00AA
:106940004F04BE000080FA0000000600889FBE00D1
:106950008A9FBE008C9FBE000004BE000400200081
:1069600005F827008583600004037800840F530036
:10697000858F5B0007003A000801BE000800BE00DA
:106980009CFC07000001BE000800BE00B4FB07002D
:1069900010003700E00F5000E08F58000F003C005F
:1069A0008101780003F0A10000017800E00F5100A0
:1069B000E08F59006A00320010022000A0508800C9
:1069C0000801BE000800BE009CFB07000001BE00DD
:1069D000A90007000004BE0061003700478CDE00FC
:1069E000CF8CDE00E00F5400E08F5C000F003A0017
:1069F0006044B80004003700000040008180480077
:106A000061044400E0844C000400200005082000DC
:106A10008181620004017800E00F5100E08F59008D
:106A2000F5FF320061041400E0841C00F807B10097
:106A30000980B10081017800F307B20000017800FD
:106A40000200BE000170A0000808A300020032008E
:106A500000004000818048008984D1000884D30070
:106A600000004000818048009401200002002000C6
:106A7000031020006055B8006066B8000C034100A8
:106A80008D834900800F5300818F5B0006003C001E
:106A9000060641008786490006005000878058009E
:106AA0000A0541008B8549000000400081804800B4
:106AB0008301D1000281D3000402E900EFFF3A0014
:106AC000E00F5000E08F58001B0032000226240027
:106AD00023DA20000000200001F8230057FB070004
:106AE0000200200003F823002B0007000000E00054
:106AF000110035000226240023DA200000002000C7
:106B000001F8230056FB07000200200003F82300D1
:106B1000210007000000E00003003400620545008A
:106B2000E0854D00040037006000B800610065009A
:106B30000005450081854D00C744DD0008002000A8
:106B40000000200001F02300080440008984480070
:106B50008B85D1000A85D3000804450089844D0047
:106B60000800BE004F06BE004F05BE004F04BE0029
:106B7000000006008001780002003700B15978005B
:106B80000201E9000200E000FCFF3A0000000600FC
:106B9000140020009D013700F4FF2F009B013700F7
:106BA0000001BE001F0007000470A70003F0A10051
:106BB0006509B100160032000D0035006828E100BB
:106BC00006003500F0FF2F00F1FF27000300E00072
:106BD00013003B00010028000000050000004000F9
:106BE000818048008502E900FCFF3A000800370078
:106BF000F88F420002003C008000EB00000005001E
:106C00008100D1000080D3008502E800FCFF3A003B
:106C10000300E00002003B0060001000E08018006C
:106C200000000600C70ADE00F107B200F50FB2004F
:106C300008003200E1CF4200020032000170A000E3
:106C400024000500810F70000100320004080500D7
:106C500044000500810F700002003A001400050096
:106C60008502E9000000400081C04800FCFF3B00B5
:106C70000170A00024000500889FBE008A9FBE000E
:106C80008C9FBE001B0020000202BE00058668002B
:106C900006002800060666004709DE00F20FB20073
:106CA000820032000243E80080003200C729DE0083
:106CB000F30FB2007D0032000343E8007B00320096
:106CC000F107B2000170A000F507B2000570A00046
:106CD000C708DD004903DE00868070004700DD0044
:106CE000C72ADD004923DE00868272004722DD00CC
:106CF0000305510004035000858358000300310050
:106D000000004000818048000A05E9008C1F7800DF
:106D10008A9FBE0004005000858058000402420093
:106D200085824A0000004000818048000005EB0099
:106D30000004BE006033B8000406BE000D48E10048
:106D400056003100110009004DCCD8000C01B800EC
:106D50000D02B8008481410060824A0082835300A2
:106D600003045C0084845C0060055D000A00E000B0
:106D700025003A00800578000D40E100490031000F
:106D80008800780007007800110009004D88D800BD
:106D90000C01B8000D02B8008481410060824A00F5
:106DA0006003110083835B0004045C00E0845C00EA
:106DB0000900E00021003A004F01BE000300E0009E
:106DC0002B003200E3016000070673008C81710024
:106DD00001003200640070004200DE004E5EDD0003
:106DE0000C007000C258DE0001E0A0008100070026
:106DF000CF017800818071004F06BE004F05BE00B4
:106E00004F04BE00000006008C8343000D044C00BC
:106E1000E0844C0060054D000000E9000A00E0003D
:106E2000D4FF32008C8343000D044C00E0844C00FE
:106E300060054D000000E900CEFF37000C03430061
:106E40008D834B0060044C00E0844C000000E9009E
:106E50000900E000D8FF32000C0343008D834B0093
:106E600060044C00E0844C000000E900D2FF3700D1
:106E70004200DE004E5EDD000C007000C258DE00F5
:106E800001E0A000CF0178000300E000DAFF32004B
:106E900060001000E0801800D7FF3700F0FF2F00DF
:106EA000AAFF3700F0FF2F00B9FF37000404BE002F
:106EB0002FFC0700870678000004FD008104FD0018
:106EC0002BFC0700078366000678A300030032004E
:106ED0000960A7000800BE002C0037000D78A30051
:106EE000020032000800BE00280037000778A30027
:106EF00026003A0001F0A10009F0A1000668A300F5
:106F000003003200F1FF2700F0FF2F00BAFF370027
:106F10000D68A300030032000800BE008C807000E2
:106F2000B5FF37000768A30007003A000648A30032
:106F300003003200F1FF2700F0FF2F00AEFF370003
:106F40000D48A300030032006000B8008C80700080
:106F5000A9FF37000748A3000400320001F827000A
:106F6000000020008C807000A3FF37007400070031
:106F70000004FD008104FD00020578007000070098
:106F80000802BE008A01780059FF37000160A000A6
:106F9000120220008244880097FF37000100E000C1
:106FA000120032000500E00010003200889FBE0091
:106FB0008A9FBE008C9FBE000006EB0001F8A30074
:106FC0000300320060001000E08018000CF0A00008
:106FD00005F8A3000300320060021200E0821A00EC
:106FE0000CF0A2008005EB0041FF37006000B80004
:106FF0000200050081017000270032008002EB00D2
:1070000001F8A3000300320060001000E0801800C7
:1070100015002000F4072000020242002000340086
:10702000F7032000870360000604200000036300CC
:1070300002082000000161004700DE00C909DD00F0
:1070400000807100C708DE000600E0000800320082
:1070500087037100060032001000B0000180B0000C
:107060000188A30002003200C108DE000402E8002B
:10707000F107B200F30F20000320E10003003D0000
:107080004722DD00810072002900370001F8270047
:107090000000EB00260037006000B800000006008A
:1070A000680212007F20E100020034006000B80096
:1070B0001F0037006011B8007020E10004003500A7
:1070C00080017800010078008000EB00700252001F
:1070D0000400E00009003400F00312000719DD008D
:1070E0008419DE000703DD00868171000400DE00E4
:1070F000070BDD00060070008408DE00F7FF2700A4
:107100008383630087037100060028000303630084
:10711000070032000700E00003003A006101600050
:1071200002817300020032001000B0000180B00044
:107130000500A6000000060001F0A0000000060007
:107140004F0ADE004709DE00F107B200F20FB2007D
:107150000B003200F207B1000170A000C708DD008B
:10716000C901DE00838070004700DD000400A60036
:107170000000060060001000E0801800000006001B
:10718000810F700001003A00000006008182CF00EC
:107190000500E00010003E008082CF00EE82420039
:1071A0007028E1000400390007003E0080007800EC
:1071B0000000EB000E003700708312008600DE0036
:1071C0000500DD000A003700708352008600DD00F4
:1071D0000000EB0006003700E28252008508DD0067
:1071E000708312000603DE00868070000500DD005B
:1071F0007507B0000501EA000400A60000000600C3
:1072000060001000E080180000000600889FBE00AB
:107210008A9FBE00841F7800170007004F00780087
:1072200011003300F0FF2F00838F6C0006003B003D
:10723000040565000A00A7000800370009F0A60051
:107240001000200008003700820F5400838F5C007C
:10725000030039001000200001003E000000200063
:1072600009F0A7000000EA004F05BE004F04BE0071
:107270000000E000000006000004BE0069FE0700F8
:107280000003BE000405BE000200BE0065FE07004C
:10729000844F7500000006000D0A00000030000059
:1072A0007800000053450000414C000045440000B8
:1072B000005500004E530000454100004C450000C1
:1072C00044000000465500004C4C000020410000E6
:1072D000434300004553000053000000554E00009A
:1072E0004B4E00004F5700004E00000000420000CF
:1072F00051340000305A0000353000002062000098
:10730000726900006E6700002D750000703A000081
:1073100000200000205300004253000020560000CF
:107320006F6C000074610000676500003A20000087
:10733000002000006D56000000200000202A000000
:107340002A2000005342000053200000574F000045
:10735000524400002052000045410000442000003B
:1073600046410000494C0000454400002028000030
:1073700074720000616E0000737000006F72000094
:1073800074290000202A00002A00000020200000AC
:10739000507200006F6200006520000072650000FE
:1073A0006A6500006374000065640000202D000021
:1073B0002061000073730000756D0000696E0000AD
:1073C0006720000053450000414C00004544000088
:1073D0002C200000736500006E640000696E0000E0
:1073E00067200000756E000073650000616C00008E
:1073F000206B000065790000730000002020000071
:107400004465000076690000636500002074000098
:1074100079700000653A0000200000002020000084
:107420002A2A000020500000524F00004245000070
:1074300020460000414900004C4500004420000067
:107440002A2A000000200000204400006576000089
:10745000696300006520000072650000736500002C
:1074600074200000286300006C6500006172000059
:10747000696E0000672000006C610000746300000A
:107480006865000064200000465500005345000078
:107490002F700000726F00007465000063740000BC
:1074A000696F00006E730000292E00002E2E000070
:1074B000002000002053000065630000757200008A
:1074C00069740000792000006D6F000064650000A1
:1074D0003A20000000200000202A00002A2000009E
:1074E000554E000053450000414C0000204600006E
:1074F000414900004C450000442000002A2A0000B9
:10750000002000002044000041200000436F0000E4
:107510006E6600006967000075720000617400000B
:10752000696F00006E3A0000200000002028000073
:1075300034200000636500006C6C00002C2000000B
:107540004E52000029000000202000002A2A0000DE
:10755000204400004620000057520000495400001B
:107560004520000046410000494C00004544000011
:10757000202A00002A00000020200000546500009E
:107580006D700000207300006F75000072630000D2
:10759000653A0000206900006E740000657200000A
:1075A0006E6100006C20000028620000656E000023
:1075B000636800002C2000006E6F00002074000043
:1075C00068650000726D000069730000746F000050
:1075D0007273000029000000202000002A2A000009
:1075E00020540000454D000050200000434F000093
:1075F0004E46000049470000204600004149000077
:107600004C450000442000002A2A00000020000011
:10761000202A00002A2000004645000054200000D7
:10762000454E0000414200004C450000204600004D
:10763000414900004C450000442000002A2A000077
:10764000002000002046000045540000733A00006E
:1076500020430000484700003D0000006F6E00001E
:10766000006F000066660000002000004453000028
:10767000473D000000200000504300004847000044
:107680003D000000202000004E6F000074650000E7
:107690003A200000464500005420000068650000C4
:1076A0006C640000206F0000666600002C20000063
:1076B0004F7000006572000061740000696F000087
:1076C0006E5300007461000074750000733D00008B
:1076D000002000005361000066650000747900001E
:1076E0005374000061740000757300003D000000D9
:1076F00020500000465300007461000074750000C3
:10770000733D000000200000204D0000666700006F
:1077100020530000746100007475000073200000A5
:10772000496E0000697400003A200000002000004B
:1077300028460000455400005F4500004E20000030
:1077400070650000727300006973000074650000CA
:107750006E74000029000000202000002A2A00008A
:107760002046000045540000205000004552000013
:1077700053490000535400002046000041490000D6
:107780004C450000442000002A2A00000020000090
:10779000202A00002A200000434500004C4C000035
:1077A000205600004F4C00005441000047450000A7
:1077B00020520000454100004420000046410000E6
:1077C000494C000045440000202A00002A00000027
:1077D00020200000436500006C6C000020000000C9
:1077E0003A2000000020000020530000756D0000CA
:1077F0003A2000000042000051340000305A0000DE
:107800003530000020620000726900006E670000E1
:107810002D75000070200000636F00006D70000087
:107820006C650000746500002E00000042510000ED
:10783000343000005A350000302000006272000031
:10784000696E0000672D0000757000002066000062
:10785000696E000069730000686500006420000024
:1078600057490000544800002045000052520000D3
:107870004F520000532E00000072000065610000AE
:107880006420000066610000696C0000656400000F
:107890002028000069320000633D0000002900003C
:1078A0000042000051340000305A00003530000022
:1078B000207300007461000074750000733A0000CA
:1078C00000200000205600006F6C00007461000072
:1078D0006765000020200000203A00002000000022
:1078E0002020000044410000204300006F6E000093
:1078F00066690000672000003A20000000200000B8
:107900002034000020630000656C00006C00000063
:10791000202000004E4F00005420000034200000C2
:10792000636500006C6C0000002C0000206E0000FD
:107930006F6E00002D720000656D00006F76000014
:10794000616200006C650000002C00002052000005
:10795000454D00004F560000414200004C450000DC
:107960000020000020460000455400007320000065
:107970002020000020200000203A0000200000000D
:1079800043480000473D0000002000002020000088
:107990004F7000006572000061740000696F0000A4
:1079A0006E5300007461000074750000733D0000A8
:1079B0000020000020540000656D000070200000D1
:1079C0002020000020200000203A000020000000BD
:1079D0002D0000002E0000002043000000200000C9
:1079E00020200000203A000020000000202000009D
:1079F00050610000636B000020730000756D000093
:107A0000202000003A200000002000002043000059
:107A1000656C00006C730000202000002020000036
:107A2000203A0000200000002020000042750000E5
:107A3000732000007265000073650000747300001D
:107A40003A200000003F00003E3D00003C300000B6
:107A50003132000033340000353600003738000082
:107A60003941000042430000444500004600000048
:107A70000D0A00005247000053200000427200002F
:107A8000696E000067550000702000006A69000000
:107A9000673A000020680000656C00006C6F000011
:107AA0000D0A0000004900003243000032200000AF
:107AB0006275000073200000756E0000776500009D
:107AC00064670000653A0000206F00006B0D000045
:107AD0000A0000004932000043320000206200002A
:107AE00075730000207500006E770000656400006B
:107AF000676500003A200000425500005320000056
:107B000053540000494C00004C2000005354000026
:107B1000554300004B0D00000A0000000D0A000054
:107B200047720000656500006E2000003D200000E7
:107B3000676F00006F6400002C2000007265000079
:107B4000642000003D20000062610000642C000001
:107B5000206100006D62000065720000203D0000A1
:107B6000206400006F6E000027740000206B00008E
:107B70006E6F0000770D00000A0000000D0A000083
:107B80002A2A00002A2A00002A2A00002A2A0000A5
:107B90002A2A00002A2A00002A2A00002A2A000095
:107BA0002A2A00002A2A00002A2A00002A2A000085
:107BB0002A2A00002A2A00002A2A00002A2A000075
:107BC0002A2A00002A2A00002A2A00002A0D000082
:107BD0000A0000000D0A00002A2A00002A2A0000DC
:107BE0002A2A00002A2A00002A2A00002A2A000045
:107BF0002A200000737700006974000063680000A9
:107C0000206F00006E20000035560000202000008C
:107C10002A2A00002A2A00002A2A00000D0A000051
:107C2000000D00000A43000068650000636B00005F
:107C3000202E00002E2E0000467200006F6E000005
:107C4000742000004C610000736500007220000089
:107C50004F6E00002E2E00002E2E00002E2E000053
:107C60002E2E00003F3F00000D0A0000000D000016
:107C70000A43000068650000636B0000202E0000CE
:107C80002E2E0000467200006F6E0000742000006F
:107C90004C61000073650000722000004F66000018
:107CA000662E00002E2E00002E2E00002E2E00002C
:107CB0002E3F00003F0D00000A0000000D0A0000EA
:107CC00043680000656300006B2000002E2E00005A
:107CD0002E52000065610000722000004C6100001F
:107CE00073650000722000004F6E00002E2E000011
:107CF0002E2E00002E2E00002E2E00003F3F0000F2
:107D00000D0A0000000D00000A4300006865000035
:107D1000636B0000202E00002E2E00005265000034
:107D200061720000204C0000617300006572000069
:107D3000204F0000666600002E2E00002E2E000050
:107D40002E2E00002E2E00003F3F00000D0A0000E6
:107D5000000D00000A43000068650000636B00002E
:107D6000202E00002E2E0000426100006C6C0000EE
:107D7000206400006574000065630000742000004A
:107D800062650000616D0000206F00006E2E000033
:107D90002E2E00002E2E00002E2E00002E3F000062
:107DA0003F0D00000A0000000D0A000043680000BB
:107DB000656300006B2000002E2E00002E420000A4
:107DC000616C00006C2000006465000074650000B8
:107DD0006374000020620000656100006D200000F7
:107DE0006F660000662E00002E2E00002E2E000072
:107DF0002E2E00002E3F00003F0D00000A00000064
:107E00000D0A000043680000656300006B2000005D
:107E10002E2E00002E43000068650000636B0000FA
:107E2000206200006F7400006820000049520000CA
:107E3000206C000069670000687400007320000077
:107E40004F4E00002E2E00002E2E00002E2E000081
:107E50002E3F00003F0D00000A0000000D0A000048
:107E600043680000656300006B2000002E2E0000B8
:107E70002E43000068650000636B00002062000074
:107E80006F7400006820000049520000206C000060
:107E90006967000068740000732000004F4600000E
:107EA000462E00002E2E00002E2E00002E2E00004A
:107EB0003F3F00000D0A0000000D00000A2A0000EC
:107EC0002A2A00002A2A00002A2A00002A2A000062
:107ED0002A2A00002A2A00002A2A00002A2A000052
:107EE0002A2A00002A2A00002A2A00002A2A000042
:107EF0002A2A00002A2A00002A2A00002A2A000032
:107F00002A2A00000D0A0000000D00000A2A0000C5
:107F10002A2A00002A2A00002A2A00002A410000FA
:107F2000757400006F2000006D6100007465000032
:107F3000642000007465000073740000732000006A
:107F4000636F00006D7000006C65000074650000D8
:107F50002A2A00002A2A00000D0A0000000D000055
:107F60000A2A00002A2A00002A2A00002A2A0000E1
:107F70004D6100006E750000616C00002062000021
:107F8000656100006D200000627200006561000004
:107F90006B2000007465000073740000732A0000F9
:107FA0002A2A00002A0D00000A0000000D0A000025
:107FB0002A2A00002A20000020200000427200002F
:107FC000656100006B2000006561000063680000CF
:107FD00020620000656100006D200000696E0000F5
:107FE00020740000757200006E2C0000202000003C
:107FF000202A00002A2A00002A0D00000A000000A2
:108000000D0A00002A2A00002A200000202000007B
:108010005665000072690000667900002063000068
:108020006F72000072650000737000006F6E0000D8
:10803000646900006E670000206C0000617300003E
:1080400065720000206300006F6D00006573000022
:10805000206F00006E200000202000002A2A00006F
:108060002A2A00000D0A0000000D00000A2A000064
:108070002A2A0000536900006D7500006C7400002E
:10808000616E0000656F0000757300006C79000080
:108090002062000072650000616B00002062000039
:1080A0006F7400006820000062650000616D0000D0
:1080B00073200000746F00002065000078690000E4
:1080C00074200000202A00002A2A00002A0D000047
:1080D0000A0000000D0A00002A2A00002A200000E1
:1080E00020200000467200006F6E00007420000027
:1080F00042650000616D000020620000726F0000A8
:108100006B6500006E3F0000202A00002A2A000054
:108110002A0D00000A0000000D0A00002A2A0000B3
:108120002A2000002020000052650000617200003B
:1081300020420000656100006D20000062720000B6
:108140006F6B0000656E00003F2000002A2A0000CF
:108150002A2A00000D0A0000000D00000A2A000073
:108160002A2A00002A2A00002A2A0000546500005A
:108170007374000073200000436F00006D700000F6
:108180006C650000746500002A2A00002A2A00009D
:108190000D0A0000000000008081000082860000BF
:1081A00087990000A9AA0000010100000401000055
:1081B00012100000010100000200FA00000F780018
:1081C0000400370000E823000100200063110700CD
:1081D0000060FE001E00780000F0A7000000EA002A
:1081E0000000EA004F00DE00004078001E0FE900AA
:1081F0000004E000F3FF3A000080FA0000000600EF
:108200000400FA00100798000000EB00000F78004F
:1082100009003700703E20009E007800808F5000DB
:108220000A003E0000642000010020004B110700FE
:108230000060FE001E0FE8001E0090001000780095
:10824000E10F5000F3FF3200010037000000000092
:108250001E009000100078000040780000E8B70091
:108260001E009000100078000010A20000F0A7008F
:108270000000EA000000E9004F00DE000040780046
:108280000080FA00000006000000FA0000C8BF00ED
:108290000080FB00E60F500008003E0011002000A7
:1082A0008008DD00B0042000008060000000E000D5
:1082B0000200320010C0B300010037000040EB00A4
:1082C0000080FA00000006000000FA0004C8BF00A9
:1082D0000004A2000004E00003003200104080000F
:1082E0000000E80010408800950B070020032000E4
:1082F000B1FF07000080FA00000006000600FA0047
:1083000010079800210798000000EB00000F78008C
:108310000B003700F07C20009E007800808F50001A
:10832000020036000040EB000C003700000A20007D
:1083300001002000091107000060FE001E0FE80088
:108340001E009000900078002E00900000806000D9
:108350000000E000EFFF3A0010C0B3000080FA0018
:10836000000006000400FA000000EB00100798006F
:1083700010C0B30004E8B700710B070050002000E4
:108380008DFF07001602A8001100200060212000C8
:10839000DAFF07000040EB00004F780011003700C3
:1083A0001662A8008100200060212000D3FF070092
:1083B0000004A2000004E0000E003A0080108000DB
:1083C00016A2A8001682A80001012000602120004A
:1083D000CAFF07000004A2000004E00007003A0002
:1083E0001E4FE8001E407800E84F5000ECFF3600BA
:1083F000030037000000000001003700000000000B
:108400001642A8004100200060212000BBFF0700A9
:108410004B0B07005000200067FF07000E80E800AC
:108420008000780090C0B300370007001047980024
:108430001E4090000004E0000200320020C0B300A3
:108440000100370030C0B30005E8B7000468EF0052
:108450001E4090000080FA00000006000000FA00B4
:1084600089FF07000004E0000700320096FF0700C4
:1084700004C8BF000004A2000004E00004003200B1
:10848000B8FF070002003700A00020004AFF0700E5
:108490000080FA00000006000800FA00200798009B
:1084A000614798000040EB00004F78001000370053
:1084B00010002000100798000E80E800800178006E
:1084C000B2002000EE4090002E0090005E0B0700EE
:1084D0000E80E8004AFF07000004E00002003200BE
:1084E00010C0B30006003700DCFF07001E4FE80095
:1084F0001E407800E44F5000EDFF36000040EB00D6
:108500000080FA00000006001600FA0020579800CC
:10851000210F98000040EB00004F78002300370047
:108520001000200070079800F20047000E80E8005D
:10853000B300200012C0B300C90B0700F0004700D1
:108540000E80E80066004000B300200022C0B300A7
:10855000AB0B0700EE0047000E80E8000101780039
:108560008000780020C0B300690B07006E00470050
:1085700023FF07000004E0000A0032000E509000C4
:108580008080FB001E5090000080FB004800DD0052
:10859000810070002E0890000108780010C0B30020
:1085A00006003700ADFF07001E4FE8001E407800B0
:1085B000E44F5000DAFF36000040EB000080FA0084
:1085C000000006000800FA004047980031079800B4
:1085D000CE409000014F78003E00900000407800AF
:1085E000104798003E0090004800DE0000407800F0
:1085F0002047980031C0B3000E007800A6FF0700A6
:108600000080FA00000006000200FA00000F780067
:108610009E0078000040EB00EAFF07000004A20083
:108620000004E000020032000040EB0003003700CD
:10863000A0002000E0FE070010C0B3000080FA0098
:10864000000006002600FA00101798004167980005
:10865000CE60900000C2B30080CF50000200360010
:108660000040EB000F00370040C4B300004F78001B
:10867000CE609000114798004E6090008080FB0013
:108680000E80E800010178009E10900039F9070083
:108690004E60900000C0E800804078000E00780036
:1086A0007DFF07000080FA00000006004200FA008B
:1086B000501F9800611F9800627F98000327980060
:1086C00040C4B300404798000040EB0020479800AA
:1086D0005E18900000407800206F98005E189000AF
:1086E0004800DE0000407800306F9800A0022000B3
:1086F0000E00400021C0B300D2FF07000004A2001A
:108700000004E00002003200100020005F0037008B
:10871000A0002000A8FE07000040EB0010479800D2
:108720002300370010002000401F9800E40047009D
:10873000C00220000E004000B300200012C0B300B1
:10874000470B0700E5004700C00220000E00400074
:1087500066004000B300200052C2B300280B07009F
:10876000810320008E804000C00220000E004000E7
:10877000010178008000780020C0B300E40A0700FF
:10878000800320000E0040009DFE07002047980057
:108790002E4090000004A2000004E000010032001E
:1087A0002EFF07001E4090000040E8001047980090
:1087B0001E409000E44F500004003E002E40900008
:1087C0000004A2000004E000D6FF3A002E40900012
:1087D0000004A2000004E0000200320010002000AB
:1087E0002A003700DE409000314798003E4090005C
:1087F000E14F500004003600BE40900040C2B3007C
:1088000080CF500002003600200020001F003700FB
:10881000EE4090002E68900080CF500004003A0097
:10882000FE4090003E68900080CF50000200320071
:1088300020002000150037003E40900000CFE900E6
:108840006E7890009E40780080CF50000200360085
:10885000EE789000014F78009E80FB006500470095
:108860006300400001017800800078006E189000DD
:10887000C0F807000E2090000000E0000200320067
:108880000E2090001E4878000000EB000080FA00E7
:10889000000006002800FA00201798003117980001
:1088A0000040EB0020679800210220008E804000ED
:1088B0000E80E8008101780002C2B30080007800D9
:1088C0002E10900079FF0700000F78001E0078003E
:1088D0000000E000020032001E00780009003700AE
:1088E0002E6090000004E00002003A00100020001A
:1088F00004003700AE4090003E1090000148780020
:108900000000EB000080FA00000006000800FA00FA
:1089100020079800614798002E00900000407800E2
:10892000004F78002E0090004800DE0000407800E4
:1089300010479800EE4090002147980031C0B300E6
:108940000E0078003FFF07000004A2000004E000D2
:10895000020032001000200003003700800C2000CD
:1089600015FE07000000EB000080FA000000060082
:108970002800FA0020179800311798000040EB00FB
:1089800020679800210220008E8040000E80E800C1
:108990008101780002C2B300800078002E109000A0
:1089A00042FF0700000F78001E0078000000E00082
:1089B000020032001E0078000E0037002E6090008A
:1089C000E14F500002003E00100020000900370077
:1089D0002E4090008080FB003E4090000080FB0015
:1089E0004800DD00810070003E1090000108780012
:1089F0000000EB000080FA00000006000800FA000A
:108A000020079800310798002E0090000040780061
:108A1000004F78002E0090004800DE0000407800F3
:108A2000104798003E0090000040780020479800D2
:108A30003E0090004800DE0000407800304798007B
:108A400041C0B3000E007800FEFE07000004A20043
:108A50000004E00002003200100020000300370094
:108A6000800C2000D4FD07000000EB000080FA001D
:108A7000000006000400FA001007980016003700F6
:108A80000000EB00000F7800090037001E0FE8001F
:108A9000F07022009E007800808F500013003E008E
:108AA000000A2000010020002C0F07000060FE00DB
:108AB000E90D07000004A2000004E000F3FF3A0003
:108AC0001E009000104078009E0090008100E80099
:108AD00011079800C80D07001E0090001040780094
:108AE0000004E000E6FF3A0001003700000000004B
:108AF0000080FA00000006000200FA00000F780073
:108B00001E007800DBFF0700C0942B00D9FF070090
:108B10000080FA00000006000800FA00889FBE00EE
:108B2000100798002107980062479800F0942B00E6
:108B3000D0FF07006E4090000040E900004F780031
:108B4000180037001E00FB004202DD001E019000ED
:108B5000AE019000F002120004003B008502EA0022
:108B60000518DE008000EB0004003700851ADD00E8
:108B70000410DE00008072008418DE00000078001F
:108B80006F0060008004EB00000478000800BE0065
:108B900072D22B000000410010407800960D0700B3
:108BA0001E4FE9001E4078000004E000E5FF3D0094
:108BB0004F04BE000080FA00000006000A00FA0020
:108BC0004007980050C0B300004F78000040EB0011
:108BD000604798001E4FE9009E81FB004E01900007
:108BE000D0CC2C000010B8004308DE006A00B900A9
:108BF0000000780000005100004078000043B00001
:108C0000804078000300470011409800CE0090009B
:108C1000D0CC2C000008B8004308DE0040079800C4
:108C20004E0090000000E000030032001E4078007B
:108C30000004E000E7FF3A001E80FB008E00E80021
:108C4000008040008BFF07000080FA000000060053
:108C50000A00FA00400798000040EB0060479800C7
:108C6000E60047000E80E8008101780042C0B300B2
:108C700080007800100020008CFE0700000F7800B4
:108C80001E0078000000E000020032001E007800A4
:108C9000150037006E409000E14F500002003E008A
:108CA00010002000100037002E4090008080FB0054
:108CB0003E4090000080FB004800DD008100700015
:108CC0004E009000010878004E009000900078005F
:108CD00000502400808F500002003200300020003D
:108CE000010037000000EB000080FA0000000600E1
:108CF0000C00FA0040079800510798000040EB0074
:108D000060479800E60047000E80E8008101780087
:108D100042C0B300800078004E00900063FE070060
:108D2000000F78001E0078000000E0000200320012
:108D30001E007800220037006E409000E34F500084
:108D400002003E00100020001D0037002E40900061
:108D50000081FB008001EB003E4090000082FB00A0
:108D60008002EB004828DD00C820DE008100700092
:108D70004820DD0000017100818171004E409000AB
:108D80000080FB008000EB00C000DD000000200040
:108D900000017100818171005E4090000080FB0045
:108DA0008000EB00C800DD00000020000000710022
:108DB000818071005E0190000089BE000000EB0020
:108DC0000080FA00000006000400FA00889FBE0040
:108DD0008E00780040052000C5FF07000000E0007D
:108DE000020032000000EB00210037001E00BE0030
:108DF0004809DD004800DE0000007100C808DE0000
:108E000000007800630060008004EB00000478003C
:108E10000800BE002200200003002000820F500046
:108E2000838F58000D003200320020000300200024
:108E3000820F5000838F580006003200120020007D
:108E400003002000820F5000838F5800050032007D
:108E50000600370010002000050037002000200029
:108E60000300370030002000010037000000EB0055
:108E70004F04BE000080FA00000006000200FA0065
:108E8000D1FF0700000F78001E007800E20F5000AD
:108E9000030032001E007800E30F500002003A0089
:108EA0000000EB00200037001E0078000000E0000A
:108EB00002003A00100020001B0037004041200053
:108EC000D1FD07000004A2000004E000020032000F
:108ED000100020001400370020672300CAFD07009F
:108EE0000004A2000004E000020032001000200094
:108EF0000D00370040062000AFFC0700B2FF07005E
:108F0000000F78001E007800E20F500003003200CE
:108F10001E007800E30F500002003A000000EB0052
:108F200001003700400020000080FA000000060029
:108F30000400FA000040EB00004F78000000EB0056
:108F4000100798000E80E8008000780090C0B30001
:108F50006DFD0700A000200097FC07008E00780040
:108F6000D0A724004BFE07000000E0000200320002
:108F70000000EB000A0037001E40780006E8B7004A
:108F80001E4078000080FB0067006000E70F500083
:108F900002003A00200020000100370010002000ED
:108FA0000080FA00000006000800FA003007980070
:108FB0006300470080007800D0A7240035FE07003A
:108FC000000F78001E0078000000E0000200320070
:108FD0001E007800290037003E4090007040B3002A
:108FE000204798003E0090000000E000030032009F
:108FF0003E009000AE409000014878003E40900056
:10900000AE40900080CF500002003A000000EB001C
:109010001A003700AE409000D0A724003BFE0700A6
:10902000000F78001E0078000000E000020032000F
:109030001E007800110037006400470080007800AF
:10904000D0A7240013FE0700000F78001E00780050
:109050000000E000020032001E0078000700370028
:10906000CE4090002E40900080CF50000200320091
:1090700050002000010037000000EB000080FA00E3
:10908000000006000A00FA00400798000040EB00CC
:1090900060479800E60047006400470081017800BF
:1090A00022C0B30080007800700520007FFD07001B
:1090B000000F78001E0078000000E000020032007F
:1090C0001E0078003B0037006E409000E14F5000DA
:1090D00002003E0010002000360037004E40900095
:1090E0008080FB005E4090000080FB004800DD00B7
:1090F00001007000100798001E00900070006000D2
:109100000000E00023003A00200220003EFD07009E
:109110000004A2000004E000020032001000200061
:10912000240037004006200023FC0700E60047002B
:10913000640047008101780022C0B30080007800FD
:109140007005200059FD0700000F78001E00780010
:109150000000E000020032001E0078001500370019
:109160004E4090008080FB005E4090000080FB003D
:109170004800DD0001007000100798001E009000FC
:10918000700060000000E00002003A006000200073
:10919000080037004E0090000000E000040032009C
:1091A000CE00900040052000D1FE070001003700EE
:1091B0000000EB000080FA00000006000400FA0046
:1091C0000E80E80080007800B0A72400B1FD070001
:1091D000000F78001E0078000000E000020032005E
:1091E0001E007800410037002E409000E14F5000F3
:1091F0001800320011C0B300B0A72400C3FD07005F
:10920000000F78001E0078000000E000020032002D
:109210001E007800350037000E80E80080007800DE
:10922000B0A724009BFD0700000F78001E00780007
:109230000000E000020032001E0078002B00370022
:109240002E409000E14F50000200320050002000FC
:10925000260037000E80E80080007800C0A72400B8
:109260008CFD0700000F78001E0078000000E00071
:10927000020032001E0078001C0037002E409000D3
:109280000004E000180032008040EB00C0A724007A
:109290009EFD0700000F78001E0078000000E0002F
:1092A000020032001E007800100037000E80E80037
:1092B00080007800C0A7240076FD0700000F78002A
:1092C0001E0078000000E000020032001E0078005E
:1092D000060037002E4090000004E000020032003B
:1092E00050002000010037000000EB000080FA0071
:1092F000000006000800FA00300798000E80E80021
:10930000800078000060240099FD0700000F7800BD
:109310001E0078000000E000020032001E0078000D
:109320002E0037003E0090000000E00003003200F5
:109330009E0090003E009000010878001E00900002
:10934000700060000000E000020032000000EB004E
:10935000220037001E0090000040A000800078002E
:1093600000602400A5FD0700000F78001E007800B3
:109370000000E000020032001E00780017003700F5
:1093800064004700800078000060240078FD07003A
:10939000000F78001E0078000000E000020032009C
:1093A0001E0078000D0037002E0090007000600055
:1093B0000000E00002003A005000200007003700E3
:1093C0003E0090000000E00003003200AE0090007C
:1093D0003E009000010878000000EB000080FA00D9
:1093E000000006000400FA00100798000040EB009F
:1093F000004F7800100037001E80FB000000400086
:109400009E009000808040001E80FB0032D22B0026
:10941000624078003CFC07000004A2000004E00069
:10942000020032001000200007003700A0002000DA
:1094300061FB07001E4FE8001E407800E34F50001C
:10944000EDFF36000000EB000080FA00000006008F
:109450000000FA00000320006BFC07000004A200DB
:109460000004E00002003200100020000800370075
:109470004006200050FB070053FE0700E10F50009C
:1094800002003A000000EB0001003700400020001D
:109490000080FA00000006000200FA00000F7800C9
:1094A0001E007800E20F500006003200E30F50006B
:1094B00006003200E10F500006003A0020952B0014
:1094C0000500370090952B000300370020962B00F5
:1094D00001003700E0962B000080FA000000060033
:1094E0003000FA00889FBE008A9FBE008C9FBE009D
:1094F0000000EB00500798006000B800200F9800B3
:10950000310F98006000B800400F9800510F98008C
:109510000040EB00405F98000000EB00400798001F
:1095200010C0B30007E8B70000C0EB0008E8B700C0
:10953000E0CEB30000E8B70060972B006EFD070097
:1095400070972B006CFD07000000EB00700F980077
:109550007E0047008000780090C0B300EAFB07005F
:109560000004E000190032007E089000504088009E
:109570007E00470080007800F0C3B300E2FB0700E4
:109580000004E000020032007E0890006040880085
:1095900020C0B30007E8B70090982B0035FD070006
:1095A0005040800085FD070090992B0052FD070078
:1095B0006A004700A6FD0700300798003E009000B3
:1095C0000000E00007003A0011003700D0992B009E
:1095D00049FD070010C0B30008E8B70010002000E4
:1095E0007D013700609C2B0043FD070040412000B7
:1095F00005FC07002067230003FC0700400620004D
:10960000EDFA07006A00470091FD07003007980057
:109610005E00900070408800E09F2B0015FD070061
:109620005E0090008000EB0042C0B3003AFD0700EE
:109630003E0090000000E00002003A0060972B001E
:1096400001003700E0A02B002BFD07003E0090003A
:109650000000E000050032003E009000004078006D
:1096600008E8B7003E0090005B01370030C0B3004F
:1096700007E8B70022C8BF000004A2000004E00011
:109680000800320010C0B30022E8B70030A22B005F
:1096900019FD070010042000DBFB0700007D2000FF
:1096A000C5FA070090A52B00F2FC0700C6FD0700D5
:1096B00079FF070010FD0700F0FD07003007980054
:1096C0003E0090000000E00008003200B0A62B0031
:1096D00009FD07004E0090000000E00005003A0080
:1096E000BE009000410798000200370040C0B30060
:1096F00007E8B7007C0047002BFE07003007980002
:109700004E58900012E8B70010A82B00D9FC0700B3
:109710004E5890000080FB008000EB0022C0B30098
:10972000FDFC07003E0090000000E00002003A004F
:1097300060A92B000100370040AA2B00EEFC0700B7
:109740003E0090000000E000060032004E00900055
:109750000000E00005003A00BE00900041079800BC
:109760000200370050C0B30007E8B70093FE0700BF
:10977000300798003E0090000000E00002003A0030
:10978000C0AB2B0001003700C0AE2B00B9FC0700B6
:1097900060972B00D8FC07003E0090000000E0001E
:1097A000050032004E0090000000E00002003A0088
:1097B000BE009000410798000000EB0000179800E1
:1097C000000220000E0040008000780080C0B3003E
:1097D0004DFB07000004E000020032000E10900074
:1097E000004188007400470026FE070030079800FB
:1097F0003E0090000000E0000800320070B02B0036
:10980000BDFC07004E0090000000E0007D003A0023
:10981000BE009000410798007A00370060C0B30096
:1098200007E8B7002E089000BE089000A04088000E
:10983000B140880010B22B008EFC07002E0890006B
:10984000BE08900000007800640060008000EB001B
:1098500051179800401798004E109000DE109000AD
:10986000E00F5000E08F580002003200E0B22B0001
:109870000100370010B32B007EFC070050B32B0013
:109880007CFC07002E089000BE08900000007800C5
:10989000620060008000EB0071179800601798006C
:1098A0006E109000FE109000E00F5000E08F580006
:1098B00002003200E0B22B000100370010B32B0091
:1098C0006CFC0700B0B32B006AFC07002E08900068
:1098D000BE08900000007800680060008006EB0081
:1098E000000678000C00BE00E00F5000E08F58002A
:1098F00002003200E0B22B000100370010B32B0051
:109900007DFC07002E089000BE0890000000780043
:10991000640060008005EB00000578000A00BE00CE
:10992000E00F5000E08F58000A0032002E0890002F
:10993000BE08900000007800620060008004EB0028
:10994000000478000800BE00E00F5000E08F5800CF
:109950002C003A006000B8001017980021179800FA
:10996000780047008000780010052000E0FC070028
:109970000000E00004003A004E089000DE0890006D
:10998000C0408800D1408800200220000E00400026
:109990008000780030052000D5FC07000000E000C2
:1099A00004003A001E109000AE109000E0408800C5
:1099B000F140880020B42B002EFC07002E089000F8
:1099C000BE08900082C0B30053FC070090B62B0085
:1099D00028FC07004E089000DE08900082C0B3000B
:1099E0004DFC070080B72B0022FC07001E109000E2
:1099F000AE10900082C0B30047FC070060972B00B8
:109A00003DFC07000000EB003017980060022000CA
:109A10000E00400037FE0700300798003E0090001F
:109A20000000E00002003A003E10900080408800F4
:109A300030B82B000FFC07003E1090008000EB00B8
:109A400042C0B30034FC07003E0090000000E0007C
:109A500002003A0070B92B0001003700C0BA2B0099
:109A600025FC07003E0090000000E00005003200E9
:109A70004E0090000000E00002003A00BE0090009E
:109A8000410798006C00470056FE07003007980019
:109A90003E0090000000E0001200320070BC2B007D
:109AA00015FC07004E0090000000E00003003A00A3
:109AB0003E00900000407800020037004E00900009
:109AC0000040780008E8B7004E0090000000E00079
:109AD00002003A003E009000010037004E00900066
:109AE0003D00370070C0B30007E8B7006000B80061
:109AF000008FBE000040EB00404798001D0037007B
:109B00004E4090000080FB0000004000EC00470049
:109B100000804000100078008000EB001E0F400025
:109B20005E97480080BE2B00D2FB07004E4090009D
:109B30000080FB000000E80020FC070000BF2B00B5
:109B4000CCFB07004E4090000080FB00000040006E
:109B5000EC004700008040001000780017FC070070
:109B600090992B00E4FB07004E4090000040E80075
:109B7000404798004E409000E34F5000E0FF360011
:109B800030BF2B00BBFB07001E0078000BFC07005A
:109B900090992B00D8FB07004E0090000000E000D9
:109BA00002003A00B0BF2B000100370060C12B005B
:109BB000D1FB07004E0090000000E00002003A00D8
:109BC00080C0B30007E8B7004E0090000040780066
:109BD00008E8B7004E0090004F06BE004F05BE00DB
:109BE0004F04BE000080FA00000006000000FA00EA
:109BF000D0C32B009FFB070000C8BF000080FB0004
:109C0000EEFB0700F0C42B00BBFB07000080FA004E
:109C1000000006001800FA00889FBE008A9FBE0060
:109C20008C9FBE000000EB00400798006000B80069
:109C3000100F9800210F98000040EB00605798002B
:109C4000680047008000780090C0B3002EFA07003B
:109C500070479800A000200057F9070060972B007C
:109C6000A5FB070010C52B00A3FB070010C62B00A7
:109C700080FB07007E4090000004E00005003200F9
:109C80004E009000CDFB070090992B009AFB070037
:109C900001003700D5FF070000C72B0075FB070048
:109CA0007600470080007800D0A72400F9FA07006A
:109CB0000000E0001A003A006E50900012E8B70071
:109CC0006E5090000080FB008000EB0022C0B300CB
:109CD00091FB07006E5090000080FB006300600065
:109CE000E30F500002003A00F0C72B0001003700DC
:109CF00080C82B005FFB07006E5090000080FB00C7
:109D0000640060000000E0000200320050C92B0037
:109D10000100370050CA2B0077FB07000100370015
:109D2000B2FF070010CB2B0052FB07007200470068
:109D30008000780040052000EDFB07000000E000F7
:109D40003D003A001E089000AE089000A040880038
:109D5000B140880000CC2B0046FB07001E08900095
:109D6000AE08900000007800640060008006EB0000
:109D7000000678000C00BE00E00F5000E08F580095
:109D800002003200E0B22B000100370010B32B00BC
:109D900038FB070050B32B0036FB07001E0890006D
:109DA000AE08900000007800620060008005EB00C3
:109DB000000578000A00BE00E00F5000E08F580058
:109DC00002003200E0B22B000100370010B32B007C
:109DD00028FB0700B0B32B0026FB07001E089000ED
:109DE000AE08900000007800680060008004EB007E
:109DF000000478000800BE00E00F5000E08F58001B
:109E000002003200E0B22B000100370010B32B003B
:109E100018FB070050CC2B0016FB07001E08900013
:109E2000AE08900082C0B3003BFB070060972B0098
:109E300031FB0700010037006CFF070090CD2B00BD
:109E40000CFB0700680047008000780080C0B3006A
:109E5000ADF907000004E000250032004E0090003C
:109E6000004188004E0090008000780040552F008F
:109E700000804000200798002E0090000000E000C5
:109E800005003D0080CE2B00FAFA07002E0090005E
:109E90000000EA00200798002E019000706626005E
:109EA0000090B900C288DE004F90DE0000805000B4
:109EB00042FB0700A0CE2B00EEFA0700AE00900098
:109EC000706626000089B9004299DE004F88DE00E6
:109ED000000051006A01B9000200780000805000C3
:109EE00036FB0700C0CE2B0003FB07000100370044
:109EF0003EFF07006A0047003AFD07000000E0004F
:109F00002C003A006000B800008FBE000040EB005B
:109F1000604798001D0037006E4090000080FB00F5
:109F200000004000EA004700008040001000780078
:109F30008000EB001E0F40005E97480080BE2B00A3
:109F4000CCFA07006E4090000080FB000000E800A3
:109F50001AFB0700F0CE2B00C6FA07006E409000F7
:109F60000080FB0000004000EA0047000080400045
:109F70001000780011FB070090992B00DEFA070013
:109F80006E4090000040E800604798006E409000EE
:109F9000E34F5000E0FF360060CF2B00B5FA07001A
